{"contracts/RiskAssessment.sol":{"RiskAssessment":{"abi":[{"inputs":[],"stateMutability":"nonpayable","type":"constructor"},{"inputs":[{"internalType":"address","name":"owner","type":"address"}],"name":"OwnableInvalidOwner","type":"error"},{"inputs":[{"internalType":"address","name":"account","type":"address"}],"name":"OwnableUnauthorizedAccount","type":"error"},{"anonymous":false,"inputs":[{"indexed":true,"internalType":"address","name":"previousOwner","type":"address"},{"indexed":true,"internalType":"address","name":"newOwner","type":"address"}],"name":"OwnershipTransferred","type":"event"},{"anonymous":false,"inputs":[{"indexed":false,"internalType":"string","name":"regPlate","type":"string"},{"indexed":false,"internalType":"uint8","name":"riskScore","type":"uint8"},{"indexed":false,"internalType":"enum IVehicleShield.VerificationTier","name":"tier","type":"uint8"}],"name":"RiskAssessed","type":"event"},{"inputs":[{"internalType":"string","name":"_regPlate","type":"string"},{"internalType":"uint256","name":"_baseValue","type":"uint256"},{"internalType":"uint256","name":"_age","type":"uint256"},{"internalType":"uint256","name":"_mileage","type":"uint256"},{"internalType":"uint8","name":"_condition","type":"uint8"},{"internalType":"bool","name":"_hasAccidentHistory","type":"bool"}],"name":"assessVehicle","outputs":[{"internalType":"enum IVehicleShield.VerificationTier","name":"","type":"uint8"},{"internalType":"uint256","name":"","type":"uint256"}],"stateMutability":"nonpayable","type":"function"},{"inputs":[{"internalType":"string","name":"_regPlate","type":"string"},{"internalType":"enum IVehicleShield.VerificationTier","name":"_tier","type":"uint8"}],"name":"calculatePremium","outputs":[{"internalType":"uint256","name":"","type":"uint256"}],"stateMutability":"view","type":"function"},{"inputs":[{"internalType":"uint256","name":"_age","type":"uint256"},{"internalType":"uint256","name":"_mileage","type":"uint256"},{"internalType":"uint8","name":"_condition","type":"uint8"},{"internalType":"bool","name":"_hasAccidentHistory","type":"bool"}],"name":"calculateRiskScore","outputs":[{"internalType":"uint8","name":"","type":"uint8"}],"stateMutability":"pure","type":"function"},{"inputs":[{"internalType":"uint256","name":"_baseValue","type":"uint256"},{"internalType":"uint8","name":"_riskScore","type":"uint8"}],"name":"determineTier","outputs":[{"internalType":"enum IVehicleShield.VerificationTier","name":"","type":"uint8"}],"stateMutability":"pure","type":"function"},{"inputs":[{"internalType":"string","name":"_regPlate","type":"string"}],"name":"getVehicleRisk","outputs":[{"components":[{"internalType":"uint256","name":"baseValue","type":"uint256"},{"internalType":"uint256","name":"age","type":"uint256"},{"internalType":"uint256","name":"mileage","type":"uint256"},{"internalType":"uint8","name":"condition","type":"uint8"},{"internalType":"uint8","name":"riskScore","type":"uint8"},{"internalType":"bool","name":"hasAccidentHistory","type":"bool"},{"internalType":"uint256","name":"lastAssessment","type":"uint256"}],"internalType":"struct RiskAssessment.VehicleRisk","name":"","type":"tuple"}],"stateMutability":"view","type":"function"},{"inputs":[],"name":"owner","outputs":[{"internalType":"address","name":"","type":"address"}],"stateMutability":"view","type":"function"},{"inputs":[],"name":"renounceOwnership","outputs":[],"stateMutability":"nonpayable","type":"function"},{"inputs":[{"internalType":"enum IVehicleShield.VerificationTier","name":"","type":"uint8"}],"name":"tierPremiums","outputs":[{"internalType":"uint256","name":"baseRate","type":"uint256"},{"internalType":"uint256","name":"ageMultiplier","type":"uint256"},{"internalType":"uint256","name":"conditionMultiplier","type":"uint256"},{"internalType":"uint256","name":"accidentPenalty","type":"uint256"}],"stateMutability":"view","type":"function"},{"inputs":[{"internalType":"address","name":"newOwner","type":"address"}],"name":"transferOwnership","outputs":[],"stateMutability":"nonpayable","type":"function"},{"inputs":[{"internalType":"enum IVehicleShield.VerificationTier","name":"_tier","type":"uint8"},{"internalType":"uint256","name":"_baseRate","type":"uint256"},{"internalType":"uint256","name":"_ageMultiplier","type":"uint256"},{"internalType":"uint256","name":"_conditionMultiplier","type":"uint256"},{"internalType":"uint256","name":"_accidentPenalty","type":"uint256"}],"name":"updatePremiumFactors","outputs":[],"stateMutability":"nonpayable","type":"function"},{"inputs":[{"internalType":"string","name":"","type":"string"}],"name":"vehicleRisks","outputs":[{"internalType":"uint256","name":"baseValue","type":"uint256"},{"internalType":"uint256","name":"age","type":"uint256"},{"internalType":"uint256","name":"mileage","type":"uint256"},{"internalType":"uint8","name":"condition","type":"uint8"},{"internalType":"uint8","name":"riskScore","type":"uint8"},{"internalType":"bool","name":"hasAccidentHistory","type":"bool"},{"internalType":"uint256","name":"lastAssessment","type":"uint256"}],"stateMutability":"view","type":"function"}],"evm":{"bytecode":{"linkReferences":{},"object":"60806040523480156200001157600080fd5b5033806200003957604051631e4fbdf760e01b81526000600482015260240160405180910390fd5b6200004481620001fa565b506040518060800160405280662386f26fc1000081526020016002815260200160058152602001600a815250600260008060028111156200008957620000896200024a565b60028111156200009d576200009d6200024a565b815260200190815260200160002060008201518160000155602082015181600101556040820151816002015560608201518160030155905050604051806080016040528066470de4df82000081526020016001815260200160038152602001600781525060026000600160028111156200011b576200011b6200024a565b60028111156200012f576200012f6200024a565b8152602001908152602001600020600082015181600001556020820151816001015560408201518160020155606082015181600301559050506040518060800160405280666a94d74f43000081526020016001815260200160028152602001600581525060026000600280811115620001ac57620001ac6200024a565b6002811115620001c057620001c06200024a565b8152602080820192909252604090810160002083518155918301516001830155820151600282015560609091015160039091015562000260565b600080546001600160a01b038381166001600160a01b0319831681178455604051919092169283917f8be0079c531659141344cd1fd0a4f28419497f9722a3daafe3b4186f6b6457e09190a35050565b634e487b7160e01b600052602160045260246000fd5b610d4480620002706000396000f3fe608060405234801561001057600080fd5b50600436106100a95760003560e01c80639b1e19a7116100715780639b1e19a714610143578063a870afcd146101b4578063af27c1521461020b578063e51267c71461022b578063ede77d5d146102c8578063f2fde38b146102db57600080fd5b80630944a8ca146100ae57806369c27e14146100d857806370ac03d8146100f9578063715018a61461011e5780638da5cb5b14610128575b600080fd5b6100c16100bc366004610977565b6102ee565b6040516100cf929190610a29565b60405180910390f35b6100eb6100e6366004610a53565b6104c5565b6040519081526020016100cf565b61010c610107366004610aa1565b6105ae565b60405160ff90911681526020016100cf565b610126610632565b005b6000546040516001600160a01b0390911681526020016100cf565b610156610151366004610ae7565b610646565b6040516100cf9190600060e08201905082518252602083015160208301526040830151604083015260ff606084015116606083015260ff608084015116608083015260a0830151151560a083015260c083015160c083015292915050565b6101eb6101c2366004610b1c565b600260208190526000918252604090912080546001820154928201546003909201549092919084565b6040805194855260208501939093529183015260608201526080016100cf565b61021e610219366004610b3e565b61070b565b6040516100cf9190610b61565b61028e610239366004610ae7565b8051602081830181018051600180835293830192909401919091209290528154908201546002830154600384015460049094015492939192909160ff8082169261010083048216926201000090049091169087565b6040805197885260208801969096529486019390935260ff9182166060860152166080840152151560a083015260c082015260e0016100cf565b6101266102d6366004610b6f565b610768565b6101266102e9366004610bb1565b6107f3565b600080600a8460ff1611156103435760405162461bcd60e51b81526020600482015260166024820152750436f6e646974696f6e206d75737420626520312d31360541b60448201526064015b60405180910390fd5b620f42408511156103885760405162461bcd60e51b815260206004820152600f60248201526e496e76616c6964206d696c6561676560881b604482015260640161033a565b6000610396878787876105ae565b90506040518060e001604052808981526020018881526020018781526020018660ff1681526020018260ff16815260200185151581526020014281525060018a6040516103e39190610bfe565b908152604080519182900360209081019092208351815591830151600183015582015160028201556060820151600382018054608085015160a08601511515620100000262ff00001960ff9283166101000261ffff199094169290951691909117919091179290921691909117905560c090910151600490910155600061046a898361070b565b905060006104788b836104c5565b90507f3d95572704130bb661d2805806f913c134f4cb017e58bdf1c7041db1055001e18b84846040516104ad93929190610c1a565b60405180910390a1909a909950975050505050505050565b6000806001846040516104d89190610bfe565b90815260200160405180910390209050600060026000856002811115610500576105006109f1565b6002811115610511576105116109f1565b815260200190815260200160002090506000816000015490508160010154836001015461053e9190610c73565b6105489082610c8a565b60028301546003850154919250906105649060ff16600a610c9d565b60ff166105719190610c73565b61057b9082610c8a565b600384015490915062010000900460ff16156105a35760038201546105a09082610c8a565b90505b925050505b92915050565b600060646105bd866002610c73565b6105c79082610cb6565b90506105d561271086610cc9565b6105e0906003610c73565b6105ea9082610cb6565b90506105f7846005610ceb565b6106049060ff1682610c8a565b9050821561061a57610617601482610cb6565b90505b6064811115610627575060645b90505b949350505050565b61063a610831565b610644600061085e565b565b61068e6040518060e00160405280600081526020016000815260200160008152602001600060ff168152602001600060ff168152602001600015158152602001600081525090565b60018260405161069e9190610bfe565b90815260408051918290036020908101832060e08401835280548452600181015491840191909152600281015491830191909152600381015460ff80821660608501526101008204811660808501526201000090910416151560a08301526004015460c082015292915050565b60006702c68af0bb1400008310158015610729575060508260ff1610155b15610736575060026105a8565b67016345785d8a000083101580156107525750603c8260ff1610155b1561075f575060016105a8565b50600092915050565b610770610831565b604051806080016040528085815260200184815260200183815260200182815250600260008760028111156107a7576107a76109f1565b60028111156107b8576107b86109f1565b815260208082019290925260409081016000208351815591830151600183015582015160028201556060909101516003909101555050505050565b6107fb610831565b6001600160a01b03811661082557604051631e4fbdf760e01b81526000600482015260240161033a565b61082e8161085e565b50565b6000546001600160a01b031633146106445760405163118cdaa760e01b815233600482015260240161033a565b600080546001600160a01b038381166001600160a01b0319831681178455604051919092169283917f8be0079c531659141344cd1fd0a4f28419497f9722a3daafe3b4186f6b6457e09190a35050565b634e487b7160e01b600052604160045260246000fd5b600082601f8301126108d557600080fd5b813567ffffffffffffffff808211156108f0576108f06108ae565b604051601f8301601f19908116603f01168101908282118183101715610918576109186108ae565b8160405283815286602085880101111561093157600080fd5b836020870160208301376000602085830101528094505050505092915050565b803560ff8116811461096257600080fd5b919050565b8035801515811461096257600080fd5b60008060008060008060c0878903121561099057600080fd5b863567ffffffffffffffff8111156109a757600080fd5b6109b389828a016108c4565b9650506020870135945060408701359350606087013592506109d760808801610951565b91506109e560a08801610967565b90509295509295509295565b634e487b7160e01b600052602160045260246000fd5b60038110610a2557634e487b7160e01b600052602160045260246000fd5b9052565b60408101610a378285610a07565b8260208301529392505050565b80356003811061096257600080fd5b60008060408385031215610a6657600080fd5b823567ffffffffffffffff811115610a7d57600080fd5b610a89858286016108c4565b925050610a9860208401610a44565b90509250929050565b60008060008060808587031215610ab757600080fd5b8435935060208501359250610ace60408601610951565b9150610adc60608601610967565b905092959194509250565b600060208284031215610af957600080fd5b813567ffffffffffffffff811115610b1057600080fd5b61062a848285016108c4565b600060208284031215610b2e57600080fd5b610b3782610a44565b9392505050565b60008060408385031215610b5157600080fd5b82359150610a9860208401610951565b602081016105a88284610a07565b600080600080600060a08688031215610b8757600080fd5b610b9086610a44565b97602087013597506040870135966060810135965060800135945092505050565b600060208284031215610bc357600080fd5b81356001600160a01b0381168114610b3757600080fd5b60005b83811015610bf5578181015183820152602001610bdd565b50506000910152565b60008251610c10818460208701610bda565b9190910192915050565b6060815260008451806060840152610c39816080850160208901610bda565b60ff85166020840152601f01601f19168201608001905061062a6040830184610a07565b634e487b7160e01b600052601160045260246000fd5b80820281158282048414176105a8576105a8610c5d565b808201808211156105a8576105a8610c5d565b60ff82811682821603908111156105a8576105a8610c5d565b818103818111156105a8576105a8610c5d565b600082610ce657634e487b7160e01b600052601260045260246000fd5b500490565b60ff8181168382160290811690818114610d0757610d07610c5d565b509291505056fea26469706673582212203428032d8ef9b11a9880be6a98ee2dd0fb4e1b47231c339912ca6b724d4f748964736f6c63430008140033","opcodes":"PUSH1 0x80 PUSH1 0x40 MSTORE CALLVALUE DUP1 ISZERO PUSH3 0x11 JUMPI PUSH1 0x0 DUP1 REVERT JUMPDEST POP CALLER DUP1 PUSH3 0x39 JUMPI PUSH1 0x40 MLOAD PUSH4 0x1E4FBDF7 PUSH1 0xE0 SHL DUP2 MSTORE PUSH1 0x0 PUSH1 0x4 DUP3 ADD MSTORE PUSH1 0x24 ADD PUSH1 0x40 MLOAD DUP1 SWAP2 SUB SWAP1 REVERT JUMPDEST PUSH3 0x44 DUP2 PUSH3 0x1FA JUMP JUMPDEST POP PUSH1 0x40 MLOAD DUP1 PUSH1 0x80 ADD PUSH1 0x40 MSTORE DUP1 PUSH7 0x2386F26FC10000 DUP2 MSTORE PUSH1 0x20 ADD PUSH1 0x2 DUP2 MSTORE PUSH1 0x20 ADD PUSH1 0x5 DUP2 MSTORE PUSH1 0x20 ADD PUSH1 0xA DUP2 MSTORE POP PUSH1 0x2 PUSH1 0x0 DUP1 PUSH1 0x2 DUP2 GT ISZERO PUSH3 0x89 JUMPI PUSH3 0x89 PUSH3 0x24A JUMP JUMPDEST PUSH1 0x2 DUP2 GT ISZERO PUSH3 0x9D JUMPI PUSH3 0x9D PUSH3 0x24A JUMP JUMPDEST DUP2 MSTORE PUSH1 0x20 ADD SWAP1 DUP2 MSTORE PUSH1 0x20 ADD PUSH1 0x0 KECCAK256 PUSH1 0x0 DUP3 ADD MLOAD DUP2 PUSH1 0x0 ADD SSTORE PUSH1 0x20 DUP3 ADD MLOAD DUP2 PUSH1 0x1 ADD SSTORE PUSH1 0x40 DUP3 ADD MLOAD DUP2 PUSH1 0x2 ADD SSTORE PUSH1 0x60 DUP3 ADD MLOAD DUP2 PUSH1 0x3 ADD SSTORE SWAP1 POP POP PUSH1 0x40 MLOAD DUP1 PUSH1 0x80 ADD PUSH1 0x40 MSTORE DUP1 PUSH7 0x470DE4DF820000 DUP2 MSTORE PUSH1 0x20 ADD PUSH1 0x1 DUP2 MSTORE PUSH1 0x20 ADD PUSH1 0x3 DUP2 MSTORE PUSH1 0x20 ADD PUSH1 0x7 DUP2 MSTORE POP PUSH1 0x2 PUSH1 0x0 PUSH1 0x1 PUSH1 0x2 DUP2 GT ISZERO PUSH3 0x11B JUMPI PUSH3 0x11B PUSH3 0x24A JUMP JUMPDEST PUSH1 0x2 DUP2 GT ISZERO PUSH3 0x12F JUMPI PUSH3 0x12F PUSH3 0x24A JUMP JUMPDEST DUP2 MSTORE PUSH1 0x20 ADD SWAP1 DUP2 MSTORE PUSH1 0x20 ADD PUSH1 0x0 KECCAK256 PUSH1 0x0 DUP3 ADD MLOAD DUP2 PUSH1 0x0 ADD SSTORE PUSH1 0x20 DUP3 ADD MLOAD DUP2 PUSH1 0x1 ADD SSTORE PUSH1 0x40 DUP3 ADD MLOAD DUP2 PUSH1 0x2 ADD SSTORE PUSH1 0x60 DUP3 ADD MLOAD DUP2 PUSH1 0x3 ADD SSTORE SWAP1 POP POP PUSH1 0x40 MLOAD DUP1 PUSH1 0x80 ADD PUSH1 0x40 MSTORE DUP1 PUSH7 0x6A94D74F430000 DUP2 MSTORE PUSH1 0x20 ADD PUSH1 0x1 DUP2 MSTORE PUSH1 0x20 ADD PUSH1 0x2 DUP2 MSTORE PUSH1 0x20 ADD PUSH1 0x5 DUP2 MSTORE POP PUSH1 0x2 PUSH1 0x0 PUSH1 0x2 DUP1 DUP2 GT ISZERO PUSH3 0x1AC JUMPI PUSH3 0x1AC PUSH3 0x24A JUMP JUMPDEST PUSH1 0x2 DUP2 GT ISZERO PUSH3 0x1C0 JUMPI PUSH3 0x1C0 PUSH3 0x24A JUMP JUMPDEST DUP2 MSTORE PUSH1 0x20 DUP1 DUP3 ADD SWAP3 SWAP1 SWAP3 MSTORE PUSH1 0x40 SWAP1 DUP2 ADD PUSH1 0x0 KECCAK256 DUP4 MLOAD DUP2 SSTORE SWAP2 DUP4 ADD MLOAD PUSH1 0x1 DUP4 ADD SSTORE DUP3 ADD MLOAD PUSH1 0x2 DUP3 ADD SSTORE PUSH1 0x60 SWAP1 SWAP2 ADD MLOAD PUSH1 0x3 SWAP1 SWAP2 ADD SSTORE PUSH3 0x260 JUMP JUMPDEST PUSH1 0x0 DUP1 SLOAD PUSH1 0x1 PUSH1 0x1 PUSH1 0xA0 SHL SUB DUP4 DUP2 AND PUSH1 0x1 PUSH1 0x1 PUSH1 0xA0 SHL SUB NOT DUP4 AND DUP2 OR DUP5 SSTORE PUSH1 0x40 MLOAD SWAP2 SWAP1 SWAP3 AND SWAP3 DUP4 SWAP2 PUSH32 0x8BE0079C531659141344CD1FD0A4F28419497F9722A3DAAFE3B4186F6B6457E0 SWAP2 SWAP1 LOG3 POP POP JUMP JUMPDEST PUSH4 0x4E487B71 PUSH1 0xE0 SHL PUSH1 0x0 MSTORE PUSH1 0x21 PUSH1 0x4 MSTORE PUSH1 0x24 PUSH1 0x0 REVERT JUMPDEST PUSH2 0xD44 DUP1 PUSH3 0x270 PUSH1 0x0 CODECOPY PUSH1 0x0 RETURN INVALID PUSH1 0x80 PUSH1 0x40 MSTORE CALLVALUE DUP1 ISZERO PUSH2 0x10 JUMPI PUSH1 0x0 DUP1 REVERT JUMPDEST POP PUSH1 0x4 CALLDATASIZE LT PUSH2 0xA9 JUMPI PUSH1 0x0 CALLDATALOAD PUSH1 0xE0 SHR DUP1 PUSH4 0x9B1E19A7 GT PUSH2 0x71 JUMPI DUP1 PUSH4 0x9B1E19A7 EQ PUSH2 0x143 JUMPI DUP1 PUSH4 0xA870AFCD EQ PUSH2 0x1B4 JUMPI DUP1 PUSH4 0xAF27C152 EQ PUSH2 0x20B JUMPI DUP1 PUSH4 0xE51267C7 EQ PUSH2 0x22B JUMPI DUP1 PUSH4 0xEDE77D5D EQ PUSH2 0x2C8 JUMPI DUP1 PUSH4 0xF2FDE38B EQ PUSH2 0x2DB JUMPI PUSH1 0x0 DUP1 REVERT JUMPDEST DUP1 PUSH4 0x944A8CA EQ PUSH2 0xAE JUMPI DUP1 PUSH4 0x69C27E14 EQ PUSH2 0xD8 JUMPI DUP1 PUSH4 0x70AC03D8 EQ PUSH2 0xF9 JUMPI DUP1 PUSH4 0x715018A6 EQ PUSH2 0x11E JUMPI DUP1 PUSH4 0x8DA5CB5B EQ PUSH2 0x128 JUMPI JUMPDEST PUSH1 0x0 DUP1 REVERT JUMPDEST PUSH2 0xC1 PUSH2 0xBC CALLDATASIZE PUSH1 0x4 PUSH2 0x977 JUMP JUMPDEST PUSH2 0x2EE JUMP JUMPDEST PUSH1 0x40 MLOAD PUSH2 0xCF SWAP3 SWAP2 SWAP1 PUSH2 0xA29 JUMP JUMPDEST PUSH1 0x40 MLOAD DUP1 SWAP2 SUB SWAP1 RETURN JUMPDEST PUSH2 0xEB PUSH2 0xE6 CALLDATASIZE PUSH1 0x4 PUSH2 0xA53 JUMP JUMPDEST PUSH2 0x4C5 JUMP JUMPDEST PUSH1 0x40 MLOAD SWAP1 DUP2 MSTORE PUSH1 0x20 ADD PUSH2 0xCF JUMP JUMPDEST PUSH2 0x10C PUSH2 0x107 CALLDATASIZE PUSH1 0x4 PUSH2 0xAA1 JUMP JUMPDEST PUSH2 0x5AE JUMP JUMPDEST PUSH1 0x40 MLOAD PUSH1 0xFF SWAP1 SWAP2 AND DUP2 MSTORE PUSH1 0x20 ADD PUSH2 0xCF JUMP JUMPDEST PUSH2 0x126 PUSH2 0x632 JUMP JUMPDEST STOP JUMPDEST PUSH1 0x0 SLOAD PUSH1 0x40 MLOAD PUSH1 0x1 PUSH1 0x1 PUSH1 0xA0 SHL SUB SWAP1 SWAP2 AND DUP2 MSTORE PUSH1 0x20 ADD PUSH2 0xCF JUMP JUMPDEST PUSH2 0x156 PUSH2 0x151 CALLDATASIZE PUSH1 0x4 PUSH2 0xAE7 JUMP JUMPDEST PUSH2 0x646 JUMP JUMPDEST PUSH1 0x40 MLOAD PUSH2 0xCF SWAP2 SWAP1 PUSH1 0x0 PUSH1 0xE0 DUP3 ADD SWAP1 POP DUP3 MLOAD DUP3 MSTORE PUSH1 0x20 DUP4 ADD MLOAD PUSH1 0x20 DUP4 ADD MSTORE PUSH1 0x40 DUP4 ADD MLOAD PUSH1 0x40 DUP4 ADD MSTORE PUSH1 0xFF PUSH1 0x60 DUP5 ADD MLOAD AND PUSH1 0x60 DUP4 ADD MSTORE PUSH1 0xFF PUSH1 0x80 DUP5 ADD MLOAD AND PUSH1 0x80 DUP4 ADD MSTORE PUSH1 0xA0 DUP4 ADD MLOAD ISZERO ISZERO PUSH1 0xA0 DUP4 ADD MSTORE PUSH1 0xC0 DUP4 ADD MLOAD PUSH1 0xC0 DUP4 ADD MSTORE SWAP3 SWAP2 POP POP JUMP JUMPDEST PUSH2 0x1EB PUSH2 0x1C2 CALLDATASIZE PUSH1 0x4 PUSH2 0xB1C JUMP JUMPDEST PUSH1 0x2 PUSH1 0x20 DUP2 SWAP1 MSTORE PUSH1 0x0 SWAP2 DUP3 MSTORE PUSH1 0x40 SWAP1 SWAP2 KECCAK256 DUP1 SLOAD PUSH1 0x1 DUP3 ADD SLOAD SWAP3 DUP3 ADD SLOAD PUSH1 0x3 SWAP1 SWAP3 ADD SLOAD SWAP1 SWAP3 SWAP2 SWAP1 DUP5 JUMP JUMPDEST PUSH1 0x40 DUP1 MLOAD SWAP5 DUP6 MSTORE PUSH1 0x20 DUP6 ADD SWAP4 SWAP1 SWAP4 MSTORE SWAP2 DUP4 ADD MSTORE PUSH1 0x60 DUP3 ADD MSTORE PUSH1 0x80 ADD PUSH2 0xCF JUMP JUMPDEST PUSH2 0x21E PUSH2 0x219 CALLDATASIZE PUSH1 0x4 PUSH2 0xB3E JUMP JUMPDEST PUSH2 0x70B JUMP JUMPDEST PUSH1 0x40 MLOAD PUSH2 0xCF SWAP2 SWAP1 PUSH2 0xB61 JUMP JUMPDEST PUSH2 0x28E PUSH2 0x239 CALLDATASIZE PUSH1 0x4 PUSH2 0xAE7 JUMP JUMPDEST DUP1 MLOAD PUSH1 0x20 DUP2 DUP4 ADD DUP2 ADD DUP1 MLOAD PUSH1 0x1 DUP1 DUP4 MSTORE SWAP4 DUP4 ADD SWAP3 SWAP1 SWAP5 ADD SWAP2 SWAP1 SWAP2 KECCAK256 SWAP3 SWAP1 MSTORE DUP2 SLOAD SWAP1 DUP3 ADD SLOAD PUSH1 0x2 DUP4 ADD SLOAD PUSH1 0x3 DUP5 ADD SLOAD PUSH1 0x4 SWAP1 SWAP5 ADD SLOAD SWAP3 SWAP4 SWAP2 SWAP3 SWAP1 SWAP2 PUSH1 0xFF DUP1 DUP3 AND SWAP3 PUSH2 0x100 DUP4 DIV DUP3 AND SWAP3 PUSH3 0x10000 SWAP1 DIV SWAP1 SWAP2 AND SWAP1 DUP8 JUMP JUMPDEST PUSH1 0x40 DUP1 MLOAD SWAP8 DUP9 MSTORE PUSH1 0x20 DUP9 ADD SWAP7 SWAP1 SWAP7 MSTORE SWAP5 DUP7 ADD SWAP4 SWAP1 SWAP4 MSTORE PUSH1 0xFF SWAP2 DUP3 AND PUSH1 0x60 DUP7 ADD MSTORE AND PUSH1 0x80 DUP5 ADD MSTORE ISZERO ISZERO PUSH1 0xA0 DUP4 ADD MSTORE PUSH1 0xC0 DUP3 ADD MSTORE PUSH1 0xE0 ADD PUSH2 0xCF JUMP JUMPDEST PUSH2 0x126 PUSH2 0x2D6 CALLDATASIZE PUSH1 0x4 PUSH2 0xB6F JUMP JUMPDEST PUSH2 0x768 JUMP JUMPDEST PUSH2 0x126 PUSH2 0x2E9 CALLDATASIZE PUSH1 0x4 PUSH2 0xBB1 JUMP JUMPDEST PUSH2 0x7F3 JUMP JUMPDEST PUSH1 0x0 DUP1 PUSH1 0xA DUP5 PUSH1 0xFF AND GT ISZERO PUSH2 0x343 JUMPI PUSH1 0x40 MLOAD PUSH3 0x461BCD PUSH1 0xE5 SHL DUP2 MSTORE PUSH1 0x20 PUSH1 0x4 DUP3 ADD MSTORE PUSH1 0x16 PUSH1 0x24 DUP3 ADD MSTORE PUSH22 0x436F6E646974696F6E206D75737420626520312D313 PUSH1 0x54 SHL PUSH1 0x44 DUP3 ADD MSTORE PUSH1 0x64 ADD JUMPDEST PUSH1 0x40 MLOAD DUP1 SWAP2 SUB SWAP1 REVERT JUMPDEST PUSH3 0xF4240 DUP6 GT ISZERO PUSH2 0x388 JUMPI PUSH1 0x40 MLOAD PUSH3 0x461BCD PUSH1 0xE5 SHL DUP2 MSTORE PUSH1 0x20 PUSH1 0x4 DUP3 ADD MSTORE PUSH1 0xF PUSH1 0x24 DUP3 ADD MSTORE PUSH15 0x496E76616C6964206D696C65616765 PUSH1 0x88 SHL PUSH1 0x44 DUP3 ADD MSTORE PUSH1 0x64 ADD PUSH2 0x33A JUMP JUMPDEST PUSH1 0x0 PUSH2 0x396 DUP8 DUP8 DUP8 DUP8 PUSH2 0x5AE JUMP JUMPDEST SWAP1 POP PUSH1 0x40 MLOAD DUP1 PUSH1 0xE0 ADD PUSH1 0x40 MSTORE DUP1 DUP10 DUP2 MSTORE PUSH1 0x20 ADD DUP9 DUP2 MSTORE PUSH1 0x20 ADD DUP8 DUP2 MSTORE PUSH1 0x20 ADD DUP7 PUSH1 0xFF AND DUP2 MSTORE PUSH1 0x20 ADD DUP3 PUSH1 0xFF AND DUP2 MSTORE PUSH1 0x20 ADD DUP6 ISZERO ISZERO DUP2 MSTORE PUSH1 0x20 ADD TIMESTAMP DUP2 MSTORE POP PUSH1 0x1 DUP11 PUSH1 0x40 MLOAD PUSH2 0x3E3 SWAP2 SWAP1 PUSH2 0xBFE JUMP JUMPDEST SWAP1 DUP2 MSTORE PUSH1 0x40 DUP1 MLOAD SWAP2 DUP3 SWAP1 SUB PUSH1 0x20 SWAP1 DUP2 ADD SWAP1 SWAP3 KECCAK256 DUP4 MLOAD DUP2 SSTORE SWAP2 DUP4 ADD MLOAD PUSH1 0x1 DUP4 ADD SSTORE DUP3 ADD MLOAD PUSH1 0x2 DUP3 ADD SSTORE PUSH1 0x60 DUP3 ADD MLOAD PUSH1 0x3 DUP3 ADD DUP1 SLOAD PUSH1 0x80 DUP6 ADD MLOAD PUSH1 0xA0 DUP7 ADD MLOAD ISZERO ISZERO PUSH3 0x10000 MUL PUSH3 0xFF0000 NOT PUSH1 0xFF SWAP3 DUP4 AND PUSH2 0x100 MUL PUSH2 0xFFFF NOT SWAP1 SWAP5 AND SWAP3 SWAP1 SWAP6 AND SWAP2 SWAP1 SWAP2 OR SWAP2 SWAP1 SWAP2 OR SWAP3 SWAP1 SWAP3 AND SWAP2 SWAP1 SWAP2 OR SWAP1 SSTORE PUSH1 0xC0 SWAP1 SWAP2 ADD MLOAD PUSH1 0x4 SWAP1 SWAP2 ADD SSTORE PUSH1 0x0 PUSH2 0x46A DUP10 DUP4 PUSH2 0x70B JUMP JUMPDEST SWAP1 POP PUSH1 0x0 PUSH2 0x478 DUP12 DUP4 PUSH2 0x4C5 JUMP JUMPDEST SWAP1 POP PUSH32 0x3D95572704130BB661D2805806F913C134F4CB017E58BDF1C7041DB1055001E1 DUP12 DUP5 DUP5 PUSH1 0x40 MLOAD PUSH2 0x4AD SWAP4 SWAP3 SWAP2 SWAP1 PUSH2 0xC1A JUMP JUMPDEST PUSH1 0x40 MLOAD DUP1 SWAP2 SUB SWAP1 LOG1 SWAP1 SWAP11 SWAP1 SWAP10 POP SWAP8 POP POP POP POP POP POP POP POP JUMP JUMPDEST PUSH1 0x0 DUP1 PUSH1 0x1 DUP5 PUSH1 0x40 MLOAD PUSH2 0x4D8 SWAP2 SWAP1 PUSH2 0xBFE JUMP JUMPDEST SWAP1 DUP2 MSTORE PUSH1 0x20 ADD PUSH1 0x40 MLOAD DUP1 SWAP2 SUB SWAP1 KECCAK256 SWAP1 POP PUSH1 0x0 PUSH1 0x2 PUSH1 0x0 DUP6 PUSH1 0x2 DUP2 GT ISZERO PUSH2 0x500 JUMPI PUSH2 0x500 PUSH2 0x9F1 JUMP JUMPDEST PUSH1 0x2 DUP2 GT ISZERO PUSH2 0x511 JUMPI PUSH2 0x511 PUSH2 0x9F1 JUMP JUMPDEST DUP2 MSTORE PUSH1 0x20 ADD SWAP1 DUP2 MSTORE PUSH1 0x20 ADD PUSH1 0x0 KECCAK256 SWAP1 POP PUSH1 0x0 DUP2 PUSH1 0x0 ADD SLOAD SWAP1 POP DUP2 PUSH1 0x1 ADD SLOAD DUP4 PUSH1 0x1 ADD SLOAD PUSH2 0x53E SWAP2 SWAP1 PUSH2 0xC73 JUMP JUMPDEST PUSH2 0x548 SWAP1 DUP3 PUSH2 0xC8A JUMP JUMPDEST PUSH1 0x2 DUP4 ADD SLOAD PUSH1 0x3 DUP6 ADD SLOAD SWAP2 SWAP3 POP SWAP1 PUSH2 0x564 SWAP1 PUSH1 0xFF AND PUSH1 0xA PUSH2 0xC9D JUMP JUMPDEST PUSH1 0xFF AND PUSH2 0x571 SWAP2 SWAP1 PUSH2 0xC73 JUMP JUMPDEST PUSH2 0x57B SWAP1 DUP3 PUSH2 0xC8A JUMP JUMPDEST PUSH1 0x3 DUP5 ADD SLOAD SWAP1 SWAP2 POP PUSH3 0x10000 SWAP1 DIV PUSH1 0xFF AND ISZERO PUSH2 0x5A3 JUMPI PUSH1 0x3 DUP3 ADD SLOAD PUSH2 0x5A0 SWAP1 DUP3 PUSH2 0xC8A JUMP JUMPDEST SWAP1 POP JUMPDEST SWAP3 POP POP POP JUMPDEST SWAP3 SWAP2 POP POP JUMP JUMPDEST PUSH1 0x0 PUSH1 0x64 PUSH2 0x5BD DUP7 PUSH1 0x2 PUSH2 0xC73 JUMP JUMPDEST PUSH2 0x5C7 SWAP1 DUP3 PUSH2 0xCB6 JUMP JUMPDEST SWAP1 POP PUSH2 0x5D5 PUSH2 0x2710 DUP7 PUSH2 0xCC9 JUMP JUMPDEST PUSH2 0x5E0 SWAP1 PUSH1 0x3 PUSH2 0xC73 JUMP JUMPDEST PUSH2 0x5EA SWAP1 DUP3 PUSH2 0xCB6 JUMP JUMPDEST SWAP1 POP PUSH2 0x5F7 DUP5 PUSH1 0x5 PUSH2 0xCEB JUMP JUMPDEST PUSH2 0x604 SWAP1 PUSH1 0xFF AND DUP3 PUSH2 0xC8A JUMP JUMPDEST SWAP1 POP DUP3 ISZERO PUSH2 0x61A JUMPI PUSH2 0x617 PUSH1 0x14 DUP3 PUSH2 0xCB6 JUMP JUMPDEST SWAP1 POP JUMPDEST PUSH1 0x64 DUP2 GT ISZERO PUSH2 0x627 JUMPI POP PUSH1 0x64 JUMPDEST SWAP1 POP JUMPDEST SWAP5 SWAP4 POP POP POP POP JUMP JUMPDEST PUSH2 0x63A PUSH2 0x831 JUMP JUMPDEST PUSH2 0x644 PUSH1 0x0 PUSH2 0x85E JUMP JUMPDEST JUMP JUMPDEST PUSH2 0x68E PUSH1 0x40 MLOAD DUP1 PUSH1 0xE0 ADD PUSH1 0x40 MSTORE DUP1 PUSH1 0x0 DUP2 MSTORE PUSH1 0x20 ADD PUSH1 0x0 DUP2 MSTORE PUSH1 0x20 ADD PUSH1 0x0 DUP2 MSTORE PUSH1 0x20 ADD PUSH1 0x0 PUSH1 0xFF AND DUP2 MSTORE PUSH1 0x20 ADD PUSH1 0x0 PUSH1 0xFF AND DUP2 MSTORE PUSH1 0x20 ADD PUSH1 0x0 ISZERO ISZERO DUP2 MSTORE PUSH1 0x20 ADD PUSH1 0x0 DUP2 MSTORE POP SWAP1 JUMP JUMPDEST PUSH1 0x1 DUP3 PUSH1 0x40 MLOAD PUSH2 0x69E SWAP2 SWAP1 PUSH2 0xBFE JUMP JUMPDEST SWAP1 DUP2 MSTORE PUSH1 0x40 DUP1 MLOAD SWAP2 DUP3 SWAP1 SUB PUSH1 0x20 SWAP1 DUP2 ADD DUP4 KECCAK256 PUSH1 0xE0 DUP5 ADD DUP4 MSTORE DUP1 SLOAD DUP5 MSTORE PUSH1 0x1 DUP2 ADD SLOAD SWAP2 DUP5 ADD SWAP2 SWAP1 SWAP2 MSTORE PUSH1 0x2 DUP2 ADD SLOAD SWAP2 DUP4 ADD SWAP2 SWAP1 SWAP2 MSTORE PUSH1 0x3 DUP2 ADD SLOAD PUSH1 0xFF DUP1 DUP3 AND PUSH1 0x60 DUP6 ADD MSTORE PUSH2 0x100 DUP3 DIV DUP2 AND PUSH1 0x80 DUP6 ADD MSTORE PUSH3 0x10000 SWAP1 SWAP2 DIV AND ISZERO ISZERO PUSH1 0xA0 DUP4 ADD MSTORE PUSH1 0x4 ADD SLOAD PUSH1 0xC0 DUP3 ADD MSTORE SWAP3 SWAP2 POP POP JUMP JUMPDEST PUSH1 0x0 PUSH8 0x2C68AF0BB140000 DUP4 LT ISZERO DUP1 ISZERO PUSH2 0x729 JUMPI POP PUSH1 0x50 DUP3 PUSH1 0xFF AND LT ISZERO JUMPDEST ISZERO PUSH2 0x736 JUMPI POP PUSH1 0x2 PUSH2 0x5A8 JUMP JUMPDEST PUSH8 0x16345785D8A0000 DUP4 LT ISZERO DUP1 ISZERO PUSH2 0x752 JUMPI POP PUSH1 0x3C DUP3 PUSH1 0xFF AND LT ISZERO JUMPDEST ISZERO PUSH2 0x75F JUMPI POP PUSH1 0x1 PUSH2 0x5A8 JUMP JUMPDEST POP PUSH1 0x0 SWAP3 SWAP2 POP POP JUMP JUMPDEST PUSH2 0x770 PUSH2 0x831 JUMP JUMPDEST PUSH1 0x40 MLOAD DUP1 PUSH1 0x80 ADD PUSH1 0x40 MSTORE DUP1 DUP6 DUP2 MSTORE PUSH1 0x20 ADD DUP5 DUP2 MSTORE PUSH1 0x20 ADD DUP4 DUP2 MSTORE PUSH1 0x20 ADD DUP3 DUP2 MSTORE POP PUSH1 0x2 PUSH1 0x0 DUP8 PUSH1 0x2 DUP2 GT ISZERO PUSH2 0x7A7 JUMPI PUSH2 0x7A7 PUSH2 0x9F1 JUMP JUMPDEST PUSH1 0x2 DUP2 GT ISZERO PUSH2 0x7B8 JUMPI PUSH2 0x7B8 PUSH2 0x9F1 JUMP JUMPDEST DUP2 MSTORE PUSH1 0x20 DUP1 DUP3 ADD SWAP3 SWAP1 SWAP3 MSTORE PUSH1 0x40 SWAP1 DUP2 ADD PUSH1 0x0 KECCAK256 DUP4 MLOAD DUP2 SSTORE SWAP2 DUP4 ADD MLOAD PUSH1 0x1 DUP4 ADD SSTORE DUP3 ADD MLOAD PUSH1 0x2 DUP3 ADD SSTORE PUSH1 0x60 SWAP1 SWAP2 ADD MLOAD PUSH1 0x3 SWAP1 SWAP2 ADD SSTORE POP POP POP POP POP JUMP JUMPDEST PUSH2 0x7FB PUSH2 0x831 JUMP JUMPDEST PUSH1 0x1 PUSH1 0x1 PUSH1 0xA0 SHL SUB DUP2 AND PUSH2 0x825 JUMPI PUSH1 0x40 MLOAD PUSH4 0x1E4FBDF7 PUSH1 0xE0 SHL DUP2 MSTORE PUSH1 0x0 PUSH1 0x4 DUP3 ADD MSTORE PUSH1 0x24 ADD PUSH2 0x33A JUMP JUMPDEST PUSH2 0x82E DUP2 PUSH2 0x85E JUMP JUMPDEST POP JUMP JUMPDEST PUSH1 0x0 SLOAD PUSH1 0x1 PUSH1 0x1 PUSH1 0xA0 SHL SUB AND CALLER EQ PUSH2 0x644 JUMPI PUSH1 0x40 MLOAD PUSH4 0x118CDAA7 PUSH1 0xE0 SHL DUP2 MSTORE CALLER PUSH1 0x4 DUP3 ADD MSTORE PUSH1 0x24 ADD PUSH2 0x33A JUMP JUMPDEST PUSH1 0x0 DUP1 SLOAD PUSH1 0x1 PUSH1 0x1 PUSH1 0xA0 SHL SUB DUP4 DUP2 AND PUSH1 0x1 PUSH1 0x1 PUSH1 0xA0 SHL SUB NOT DUP4 AND DUP2 OR DUP5 SSTORE PUSH1 0x40 MLOAD SWAP2 SWAP1 SWAP3 AND SWAP3 DUP4 SWAP2 PUSH32 0x8BE0079C531659141344CD1FD0A4F28419497F9722A3DAAFE3B4186F6B6457E0 SWAP2 SWAP1 LOG3 POP POP JUMP JUMPDEST PUSH4 0x4E487B71 PUSH1 0xE0 SHL PUSH1 0x0 MSTORE PUSH1 0x41 PUSH1 0x4 MSTORE PUSH1 0x24 PUSH1 0x0 REVERT JUMPDEST PUSH1 0x0 DUP3 PUSH1 0x1F DUP4 ADD SLT PUSH2 0x8D5 JUMPI PUSH1 0x0 DUP1 REVERT JUMPDEST DUP2 CALLDATALOAD PUSH8 0xFFFFFFFFFFFFFFFF DUP1 DUP3 GT ISZERO PUSH2 0x8F0 JUMPI PUSH2 0x8F0 PUSH2 0x8AE JUMP JUMPDEST PUSH1 0x40 MLOAD PUSH1 0x1F DUP4 ADD PUSH1 0x1F NOT SWAP1 DUP2 AND PUSH1 0x3F ADD AND DUP2 ADD SWAP1 DUP3 DUP3 GT DUP2 DUP4 LT OR ISZERO PUSH2 0x918 JUMPI PUSH2 0x918 PUSH2 0x8AE JUMP JUMPDEST DUP2 PUSH1 0x40 MSTORE DUP4 DUP2 MSTORE DUP7 PUSH1 0x20 DUP6 DUP9 ADD ADD GT ISZERO PUSH2 0x931 JUMPI PUSH1 0x0 DUP1 REVERT JUMPDEST DUP4 PUSH1 0x20 DUP8 ADD PUSH1 0x20 DUP4 ADD CALLDATACOPY PUSH1 0x0 PUSH1 0x20 DUP6 DUP4 ADD ADD MSTORE DUP1 SWAP5 POP POP POP POP POP SWAP3 SWAP2 POP POP JUMP JUMPDEST DUP1 CALLDATALOAD PUSH1 0xFF DUP2 AND DUP2 EQ PUSH2 0x962 JUMPI PUSH1 0x0 DUP1 REVERT JUMPDEST SWAP2 SWAP1 POP JUMP JUMPDEST DUP1 CALLDATALOAD DUP1 ISZERO ISZERO DUP2 EQ PUSH2 0x962 JUMPI PUSH1 0x0 DUP1 REVERT JUMPDEST PUSH1 0x0 DUP1 PUSH1 0x0 DUP1 PUSH1 0x0 DUP1 PUSH1 0xC0 DUP8 DUP10 SUB SLT ISZERO PUSH2 0x990 JUMPI PUSH1 0x0 DUP1 REVERT JUMPDEST DUP7 CALLDATALOAD PUSH8 0xFFFFFFFFFFFFFFFF DUP2 GT ISZERO PUSH2 0x9A7 JUMPI PUSH1 0x0 DUP1 REVERT JUMPDEST PUSH2 0x9B3 DUP10 DUP3 DUP11 ADD PUSH2 0x8C4 JUMP JUMPDEST SWAP7 POP POP PUSH1 0x20 DUP8 ADD CALLDATALOAD SWAP5 POP PUSH1 0x40 DUP8 ADD CALLDATALOAD SWAP4 POP PUSH1 0x60 DUP8 ADD CALLDATALOAD SWAP3 POP PUSH2 0x9D7 PUSH1 0x80 DUP9 ADD PUSH2 0x951 JUMP JUMPDEST SWAP2 POP PUSH2 0x9E5 PUSH1 0xA0 DUP9 ADD PUSH2 0x967 JUMP JUMPDEST SWAP1 POP SWAP3 SWAP6 POP SWAP3 SWAP6 POP SWAP3 SWAP6 JUMP JUMPDEST PUSH4 0x4E487B71 PUSH1 0xE0 SHL PUSH1 0x0 MSTORE PUSH1 0x21 PUSH1 0x4 MSTORE PUSH1 0x24 PUSH1 0x0 REVERT JUMPDEST PUSH1 0x3 DUP2 LT PUSH2 0xA25 JUMPI PUSH4 0x4E487B71 PUSH1 0xE0 SHL PUSH1 0x0 MSTORE PUSH1 0x21 PUSH1 0x4 MSTORE PUSH1 0x24 PUSH1 0x0 REVERT JUMPDEST SWAP1 MSTORE JUMP JUMPDEST PUSH1 0x40 DUP2 ADD PUSH2 0xA37 DUP3 DUP6 PUSH2 0xA07 JUMP JUMPDEST DUP3 PUSH1 0x20 DUP4 ADD MSTORE SWAP4 SWAP3 POP POP POP JUMP JUMPDEST DUP1 CALLDATALOAD PUSH1 0x3 DUP2 LT PUSH2 0x962 JUMPI PUSH1 0x0 DUP1 REVERT JUMPDEST PUSH1 0x0 DUP1 PUSH1 0x40 DUP4 DUP6 SUB SLT ISZERO PUSH2 0xA66 JUMPI PUSH1 0x0 DUP1 REVERT JUMPDEST DUP3 CALLDATALOAD PUSH8 0xFFFFFFFFFFFFFFFF DUP2 GT ISZERO PUSH2 0xA7D JUMPI PUSH1 0x0 DUP1 REVERT JUMPDEST PUSH2 0xA89 DUP6 DUP3 DUP7 ADD PUSH2 0x8C4 JUMP JUMPDEST SWAP3 POP POP PUSH2 0xA98 PUSH1 0x20 DUP5 ADD PUSH2 0xA44 JUMP JUMPDEST SWAP1 POP SWAP3 POP SWAP3 SWAP1 POP JUMP JUMPDEST PUSH1 0x0 DUP1 PUSH1 0x0 DUP1 PUSH1 0x80 DUP6 DUP8 SUB SLT ISZERO PUSH2 0xAB7 JUMPI PUSH1 0x0 DUP1 REVERT JUMPDEST DUP5 CALLDATALOAD SWAP4 POP PUSH1 0x20 DUP6 ADD CALLDATALOAD SWAP3 POP PUSH2 0xACE PUSH1 0x40 DUP7 ADD PUSH2 0x951 JUMP JUMPDEST SWAP2 POP PUSH2 0xADC PUSH1 0x60 DUP7 ADD PUSH2 0x967 JUMP JUMPDEST SWAP1 POP SWAP3 SWAP6 SWAP2 SWAP5 POP SWAP3 POP JUMP JUMPDEST PUSH1 0x0 PUSH1 0x20 DUP3 DUP5 SUB SLT ISZERO PUSH2 0xAF9 JUMPI PUSH1 0x0 DUP1 REVERT JUMPDEST DUP2 CALLDATALOAD PUSH8 0xFFFFFFFFFFFFFFFF DUP2 GT ISZERO PUSH2 0xB10 JUMPI PUSH1 0x0 DUP1 REVERT JUMPDEST PUSH2 0x62A DUP5 DUP3 DUP6 ADD PUSH2 0x8C4 JUMP JUMPDEST PUSH1 0x0 PUSH1 0x20 DUP3 DUP5 SUB SLT ISZERO PUSH2 0xB2E JUMPI PUSH1 0x0 DUP1 REVERT JUMPDEST PUSH2 0xB37 DUP3 PUSH2 0xA44 JUMP JUMPDEST SWAP4 SWAP3 POP POP POP JUMP JUMPDEST PUSH1 0x0 DUP1 PUSH1 0x40 DUP4 DUP6 SUB SLT ISZERO PUSH2 0xB51 JUMPI PUSH1 0x0 DUP1 REVERT JUMPDEST DUP3 CALLDATALOAD SWAP2 POP PUSH2 0xA98 PUSH1 0x20 DUP5 ADD PUSH2 0x951 JUMP JUMPDEST PUSH1 0x20 DUP2 ADD PUSH2 0x5A8 DUP3 DUP5 PUSH2 0xA07 JUMP JUMPDEST PUSH1 0x0 DUP1 PUSH1 0x0 DUP1 PUSH1 0x0 PUSH1 0xA0 DUP7 DUP9 SUB SLT ISZERO PUSH2 0xB87 JUMPI PUSH1 0x0 DUP1 REVERT JUMPDEST PUSH2 0xB90 DUP7 PUSH2 0xA44 JUMP JUMPDEST SWAP8 PUSH1 0x20 DUP8 ADD CALLDATALOAD SWAP8 POP PUSH1 0x40 DUP8 ADD CALLDATALOAD SWAP7 PUSH1 0x60 DUP2 ADD CALLDATALOAD SWAP7 POP PUSH1 0x80 ADD CALLDATALOAD SWAP5 POP SWAP3 POP POP POP JUMP JUMPDEST PUSH1 0x0 PUSH1 0x20 DUP3 DUP5 SUB SLT ISZERO PUSH2 0xBC3 JUMPI PUSH1 0x0 DUP1 REVERT JUMPDEST DUP2 CALLDATALOAD PUSH1 0x1 PUSH1 0x1 PUSH1 0xA0 SHL SUB DUP2 AND DUP2 EQ PUSH2 0xB37 JUMPI PUSH1 0x0 DUP1 REVERT JUMPDEST PUSH1 0x0 JUMPDEST DUP4 DUP2 LT ISZERO PUSH2 0xBF5 JUMPI DUP2 DUP2 ADD MLOAD DUP4 DUP3 ADD MSTORE PUSH1 0x20 ADD PUSH2 0xBDD JUMP JUMPDEST POP POP PUSH1 0x0 SWAP2 ADD MSTORE JUMP JUMPDEST PUSH1 0x0 DUP3 MLOAD PUSH2 0xC10 DUP2 DUP5 PUSH1 0x20 DUP8 ADD PUSH2 0xBDA JUMP JUMPDEST SWAP2 SWAP1 SWAP2 ADD SWAP3 SWAP2 POP POP JUMP JUMPDEST PUSH1 0x60 DUP2 MSTORE PUSH1 0x0 DUP5 MLOAD DUP1 PUSH1 0x60 DUP5 ADD MSTORE PUSH2 0xC39 DUP2 PUSH1 0x80 DUP6 ADD PUSH1 0x20 DUP10 ADD PUSH2 0xBDA JUMP JUMPDEST PUSH1 0xFF DUP6 AND PUSH1 0x20 DUP5 ADD MSTORE PUSH1 0x1F ADD PUSH1 0x1F NOT AND DUP3 ADD PUSH1 0x80 ADD SWAP1 POP PUSH2 0x62A PUSH1 0x40 DUP4 ADD DUP5 PUSH2 0xA07 JUMP JUMPDEST PUSH4 0x4E487B71 PUSH1 0xE0 SHL PUSH1 0x0 MSTORE PUSH1 0x11 PUSH1 0x4 MSTORE PUSH1 0x24 PUSH1 0x0 REVERT JUMPDEST DUP1 DUP3 MUL DUP2 ISZERO DUP3 DUP3 DIV DUP5 EQ OR PUSH2 0x5A8 JUMPI PUSH2 0x5A8 PUSH2 0xC5D JUMP JUMPDEST DUP1 DUP3 ADD DUP1 DUP3 GT ISZERO PUSH2 0x5A8 JUMPI PUSH2 0x5A8 PUSH2 0xC5D JUMP JUMPDEST PUSH1 0xFF DUP3 DUP2 AND DUP3 DUP3 AND SUB SWAP1 DUP2 GT ISZERO PUSH2 0x5A8 JUMPI PUSH2 0x5A8 PUSH2 0xC5D JUMP JUMPDEST DUP2 DUP2 SUB DUP2 DUP2 GT ISZERO PUSH2 0x5A8 JUMPI PUSH2 0x5A8 PUSH2 0xC5D JUMP JUMPDEST PUSH1 0x0 DUP3 PUSH2 0xCE6 JUMPI PUSH4 0x4E487B71 PUSH1 0xE0 SHL PUSH1 0x0 MSTORE PUSH1 0x12 PUSH1 0x4 MSTORE PUSH1 0x24 PUSH1 0x0 REVERT JUMPDEST POP DIV SWAP1 JUMP JUMPDEST PUSH1 0xFF DUP2 DUP2 AND DUP4 DUP3 AND MUL SWAP1 DUP2 AND SWAP1 DUP2 DUP2 EQ PUSH2 0xD07 JUMPI PUSH2 0xD07 PUSH2 0xC5D JUMP JUMPDEST POP SWAP3 SWAP2 POP POP JUMP INVALID LOG2 PUSH5 0x6970667358 0x22 SLT KECCAK256 CALLVALUE 0x28 SUB 0x2D DUP15 0xF9 0xB1 BYTE SWAP9 DUP1 0xBE PUSH11 0x98EE2DD0FB4E1B47231C33 SWAP10 SLT 0xCA PUSH12 0x724D4F748964736F6C634300 ADDMOD EQ STOP CALLER "},"methodIdentifiers":{"assessVehicle(string,uint256,uint256,uint256,uint8,bool)":"0944a8ca","calculatePremium(string,uint8)":"69c27e14","calculateRiskScore(uint256,uint256,uint8,bool)":"70ac03d8","determineTier(uint256,uint8)":"af27c152","getVehicleRisk(string)":"9b1e19a7","owner()":"8da5cb5b","renounceOwnership()":"715018a6","tierPremiums(uint8)":"a870afcd","transferOwnership(address)":"f2fde38b","updatePremiumFactors(uint8,uint256,uint256,uint256,uint256)":"ede77d5d","vehicleRisks(string)":"e51267c7"}}}}}