{"contracts/InsuranceCore.sol":{"InsuranceCore":{"abi":[{"inputs":[{"internalType":"address","name":"_policyNFTAddress","type":"address"},{"internalType":"address","name":"_riskAssessmentAddress","type":"address"}],"stateMutability":"nonpayable","type":"constructor"},{"inputs":[{"internalType":"address","name":"owner","type":"address"}],"name":"OwnableInvalidOwner","type":"error"},{"inputs":[{"internalType":"address","name":"account","type":"address"}],"name":"OwnableUnauthorizedAccount","type":"error"},{"inputs":[],"name":"ReentrancyGuardReentrantCall","type":"error"},{"anonymous":false,"inputs":[{"indexed":true,"internalType":"uint256","name":"claimId","type":"uint256"},{"indexed":false,"internalType":"uint256","name":"amount","type":"uint256"}],"name":"ClaimPaid","type":"event"},{"anonymous":false,"inputs":[{"indexed":true,"internalType":"uint256","name":"claimId","type":"uint256"},{"indexed":false,"internalType":"bool","name":"approved","type":"bool"}],"name":"ClaimProcessed","type":"event"},{"anonymous":false,"inputs":[{"indexed":true,"internalType":"uint256","name":"claimId","type":"uint256"},{"indexed":true,"internalType":"uint256","name":"policyId","type":"uint256"}],"name":"ClaimSubmitted","type":"event"},{"anonymous":false,"inputs":[{"indexed":true,"internalType":"address","name":"previousOwner","type":"address"},{"indexed":true,"internalType":"address","name":"newOwner","type":"address"}],"name":"OwnershipTransferred","type":"event"},{"anonymous":false,"inputs":[{"indexed":false,"internalType":"string","name":"regPlate","type":"string"},{"indexed":false,"internalType":"uint256","name":"uploadDate","type":"uint256"}],"name":"PhotosUploaded","type":"event"},{"anonymous":false,"inputs":[{"indexed":true,"internalType":"uint256","name":"policyId","type":"uint256"},{"indexed":true,"internalType":"address","name":"owner","type":"address"},{"indexed":false,"internalType":"string","name":"vehicleId","type":"string"}],"name":"PolicyCreated","type":"event"},{"anonymous":false,"inputs":[{"indexed":false,"internalType":"string","name":"regPlate","type":"string"},{"indexed":false,"internalType":"address","name":"owner","type":"address"},{"indexed":false,"internalType":"enum IVehicleShield.VerificationTier","name":"tier","type":"uint8"}],"name":"VehicleRegistered","type":"event"},{"anonymous":false,"inputs":[{"indexed":false,"internalType":"string","name":"regPlate","type":"string"},{"indexed":false,"internalType":"enum InsuranceCore.VerificationStatus","name":"status","type":"uint8"}],"name":"VerificationStatusUpdated","type":"event"},{"inputs":[{"internalType":"uint256","name":"","type":"uint256"}],"name":"claims","outputs":[{"internalType":"uint256","name":"claimId","type":"uint256"},{"internalType":"uint256","name":"policyId","type":"uint256"},{"internalType":"string","name":"description","type":"string"},{"internalType":"string","name":"photoHash","type":"string"},{"internalType":"uint256","name":"amount","type":"uint256"},{"internalType":"bool","name":"isProcessed","type":"bool"},{"internalType":"bool","name":"isPaid","type":"bool"}],"stateMutability":"view","type":"function"},{"inputs":[{"internalType":"enum IVehicleShield.VerificationTier","name":"","type":"uint8"}],"name":"coverageLimits","outputs":[{"internalType":"uint256","name":"","type":"uint256"}],"stateMutability":"view","type":"function"},{"inputs":[{"internalType":"string","name":"_regPlate","type":"string"},{"internalType":"uint256","name":"_duration","type":"uint256"},{"internalType":"uint256","name":"_coverage","type":"uint256"}],"name":"createPolicy","outputs":[{"internalType":"uint256","name":"","type":"uint256"}],"stateMutability":"payable","type":"function"},{"inputs":[],"name":"owner","outputs":[{"internalType":"address","name":"","type":"address"}],"stateMutability":"view","type":"function"},{"inputs":[{"internalType":"uint256","name":"","type":"uint256"}],"name":"policies","outputs":[{"internalType":"uint256","name":"coverage","type":"uint256"},{"internalType":"uint256","name":"startDate","type":"uint256"},{"internalType":"uint256","name":"endDate","type":"uint256"},{"internalType":"bool","name":"isActive","type":"bool"},{"internalType":"enum IVehicleShield.VerificationTier","name":"tier","type":"uint8"}],"stateMutability":"view","type":"function"},{"inputs":[],"name":"policyNFT","outputs":[{"internalType":"contract IPolicyNFT","name":"","type":"address"}],"stateMutability":"view","type":"function"},{"inputs":[{"internalType":"uint256","name":"_claimId","type":"uint256"},{"internalType":"bool","name":"_approved","type":"bool"}],"name":"processClaim","outputs":[],"stateMutability":"nonpayable","type":"function"},{"inputs":[{"internalType":"string","name":"_regPlate","type":"string"},{"internalType":"string","name":"_make","type":"string"},{"internalType":"string","name":"_model","type":"string"},{"internalType":"uint256","name":"_year","type":"uint256"},{"internalType":"uint256","name":"_baseValue","type":"uint256"},{"internalType":"uint256","name":"_mileage","type":"uint256"},{"internalType":"uint8","name":"_condition","type":"uint8"},{"internalType":"bool","name":"_hasAccidentHistory","type":"bool"}],"name":"registerVehicle","outputs":[],"stateMutability":"nonpayable","type":"function"},{"inputs":[],"name":"renounceOwnership","outputs":[],"stateMutability":"nonpayable","type":"function"},{"inputs":[],"name":"riskAssessment","outputs":[{"internalType":"contract IRiskAssessment","name":"","type":"address"}],"stateMutability":"view","type":"function"},{"inputs":[{"internalType":"uint256","name":"_policyId","type":"uint256"},{"internalType":"string","name":"_description","type":"string"},{"internalType":"string","name":"_photoHash","type":"string"},{"internalType":"uint256","name":"_amount","type":"uint256"}],"name":"submitClaim","outputs":[{"internalType":"uint256","name":"","type":"uint256"}],"stateMutability":"nonpayable","type":"function"},{"inputs":[{"internalType":"address","name":"newOwner","type":"address"}],"name":"transferOwnership","outputs":[],"stateMutability":"nonpayable","type":"function"},{"inputs":[{"internalType":"string","name":"_regPlate","type":"string"},{"internalType":"enum InsuranceCore.VerificationStatus","name":"_status","type":"uint8"}],"name":"updateVerificationStatus","outputs":[],"stateMutability":"nonpayable","type":"function"},{"inputs":[{"internalType":"string","name":"_regPlate","type":"string"},{"internalType":"string","name":"_frontHash","type":"string"},{"internalType":"string","name":"_backHash","type":"string"},{"internalType":"string","name":"_leftHash","type":"string"},{"internalType":"string","name":"_rightHash","type":"string"},{"internalType":"string","name":"_mirrorLeftHash","type":"string"},{"internalType":"string","name":"_mirrorRightHash","type":"string"}],"name":"uploadVehiclePhotos","outputs":[],"stateMutability":"nonpayable","type":"function"},{"inputs":[{"internalType":"string","name":"","type":"string"}],"name":"vehiclePhotos","outputs":[{"internalType":"string","name":"frontHash","type":"string"},{"internalType":"string","name":"backHash","type":"string"},{"internalType":"string","name":"leftHash","type":"string"},{"internalType":"string","name":"rightHash","type":"string"},{"internalType":"string","name":"mirrorLeftHash","type":"string"},{"internalType":"string","name":"mirrorRightHash","type":"string"},{"internalType":"uint256","name":"uploadDate","type":"uint256"},{"internalType":"bool","name":"isComplete","type":"bool"}],"stateMutability":"view","type":"function"},{"inputs":[{"internalType":"string","name":"","type":"string"}],"name":"vehicles","outputs":[{"internalType":"string","name":"regPlate","type":"string"},{"internalType":"string","name":"make","type":"string"},{"internalType":"string","name":"model","type":"string"},{"internalType":"uint256","name":"year","type":"uint256"},{"internalType":"address","name":"owner","type":"address"},{"internalType":"enum InsuranceCore.VerificationStatus","name":"status","type":"uint8"},{"internalType":"enum IVehicleShield.VerificationTier","name":"tier","type":"uint8"},{"internalType":"uint256","name":"lastVerificationDate","type":"uint256"},{"internalType":"bool","name":"isRegistered","type":"bool"}],"stateMutability":"view","type":"function"},{"stateMutability":"payable","type":"receive"}],"evm":{"bytecode":{"linkReferences":{},"object":"608060405260016009553480156200001657600080fd5b50604051620027f3380380620027f383398101604081905262000039916200019d565b600160005533806200006557604051631e4fbdf760e01b81526000600482015260240160405180910390fd5b62000070816200012e565b50600280546001600160a01b039384166001600160a01b03199182161782556003805493909416921691909117909155600860205266b1a2bc2ec500007f5eff886ea0ce6ca488a3d6e336d6c0f75f46d19b42c06ce5ee98e42c96d256c75567016345785d8a00007fad67d757c34507f157cacfa2e3153e9f260a2244f30428821be7be64587ac55f556000526702c68af0bb1400007f6add646517a5b0f6793cd5891b7937d28a5b2981a5d88ebc7cd776088fea904155620001d5565b600180546001600160a01b038381166001600160a01b0319831681179093556040519116919082907f8be0079c531659141344cd1fd0a4f28419497f9722a3daafe3b4186f6b6457e090600090a35050565b80516001600160a01b03811681146200019857600080fd5b919050565b60008060408385031215620001b157600080fd5b620001bc8362000180565b9150620001cc6020840162000180565b90509250929050565b61260e80620001e56000396000f3fe6080604052600436106100f75760003560e01c8063976de5c51161008a578063e93b2a3411610059578063e93b2a341461031e578063f21ad98b14610331578063f2fde38b14610351578063fedda0e41461037157600080fd5b8063976de5c514610237578063a888c2cd1461026c578063af02808a1461029f578063d3e89483146102bf57600080fd5b8063744007fd116100c6578063744007fd146101975780637daaaaf3146101cb5780638da5cb5b146101eb5780638f749e151461020957600080fd5b80631ca2cf281461010357806335446def1461012557806370a1a7d514610145578063715018a61461018257600080fd5b366100fe57005b600080fd5b34801561010f57600080fd5b5061012361011e366004611c52565b61039e565b005b34801561013157600080fd5b50610123610140366004611cb9565b610529565b34801561015157600080fd5b50600354610165906001600160a01b031681565b6040516001600160a01b0390911681526020015b60405180910390f35b34801561018e57600080fd5b506101236105f3565b3480156101a357600080fd5b506101b76101b2366004611ce5565b610607565b604051610179989796959493929190611d6a565b3480156101d757600080fd5b506101236101e6366004611dff565b610986565b3480156101f757600080fd5b506001546001600160a01b0316610165565b34801561021557600080fd5b50610229610224366004611f1a565b610bab565b604051908152602001610179565b34801561024357600080fd5b50610257610252366004611ce5565b610dcc565b60405161017999989796959493929190611fc3565b34801561027857600080fd5b5061028c610287366004612054565b610fcc565b604051610179979695949392919061206d565b3480156102ab57600080fd5b50600254610165906001600160a01b031681565b3480156102cb57600080fd5b5061030d6102da366004612054565b60066020526000908152604090208054600182015460028301546003909301549192909160ff8082169161010090041685565b6040516101799594939291906120c0565b61022961032c3660046120f6565b61111e565b34801561033d57600080fd5b5061012361034c366004612155565b6115a9565b34801561035d57600080fd5b5061012361036c366004612231565b6118bb565b34801561037d57600080fd5b5061022961038c36600461224e565b60086020526000908152604090205481565b6103a66118f9565b6004826040516103b6919061226b565b9081526040519081900360200190206006015460ff166104165760405162461bcd60e51b815260206004820152601660248201527515995a1a58db19481b9bdd081c9959da5cdd195c995960521b60448201526064015b60405180910390fd5b600582604051610426919061226b565b9081526040519081900360200190206007015460ff1661047e5760405162461bcd60e51b8152602060048201526013602482015272141a1bdd1bdcc81b9bdd081d5c1b1bd8591959606a1b604482015260640161040d565b8060048360405161048f919061226b565b908152604051908190036020019020600401805460ff60a01b1916600160a01b8360028111156104c1576104c1611f8f565b0217905550426004836040516104d7919061226b565b9081526020016040518091039020600501819055507f16199dc2004744f89cfe5bc916b084fff79f2e7be10b3a6be2240e97846fb408828260405161051d929190612287565b60405180910390a15050565b6105316118f9565b6000828152600760205260409020600581015460ff16156105945760405162461bcd60e51b815260206004820152601760248201527f436c61696d20616c72656164792070726f636573736564000000000000000000604482015260640161040d565b60058101805460ff1916600117905581156105b2576105b281611926565b827fd4203892740c26c8184cfb101077c87ccf2d01beaf6aef0c250ab43bb43df202836040516105e6911515815260200190565b60405180910390a2505050565b6105fb6118f9565b6106056000611b26565b565b805160208183018101805160058252928201919093012091528054819061062d906122b2565b80601f0160208091040260200160405190810160405280929190818152602001828054610659906122b2565b80156106a65780601f1061067b576101008083540402835291602001916106a6565b820191906000526020600020905b81548152906001019060200180831161068957829003601f168201915b5050505050908060010180546106bb906122b2565b80601f01602080910402602001604051908101604052809291908181526020018280546106e7906122b2565b80156107345780601f1061070957610100808354040283529160200191610734565b820191906000526020600020905b81548152906001019060200180831161071757829003601f168201915b505050505090806002018054610749906122b2565b80601f0160208091040260200160405190810160405280929190818152602001828054610775906122b2565b80156107c25780601f10610797576101008083540402835291602001916107c2565b820191906000526020600020905b8154815290600101906020018083116107a557829003601f168201915b5050505050908060030180546107d7906122b2565b80601f0160208091040260200160405190810160405280929190818152602001828054610803906122b2565b80156108505780601f1061082557610100808354040283529160200191610850565b820191906000526020600020905b81548152906001019060200180831161083357829003601f168201915b505050505090806004018054610865906122b2565b80601f0160208091040260200160405190810160405280929190818152602001828054610891906122b2565b80156108de5780601f106108b3576101008083540402835291602001916108de565b820191906000526020600020905b8154815290600101906020018083116108c157829003601f168201915b5050505050908060050180546108f3906122b2565b80601f016020809104026020016040519081016040528092919081815260200182805461091f906122b2565b801561096c5780601f106109415761010080835404028352916020019161096c565b820191906000526020600020905b81548152906001019060200180831161094f57829003601f168201915b50505050600683015460079093015491929160ff16905088565b336001600160a01b03166004886040516109a0919061226b565b908152604051908190036020019020600401546001600160a01b0316146109fd5760405162461bcd60e51b81526020600482015260116024820152702737ba103b32b434b1b6329037bbb732b960791b604482015260640161040d565b600587604051610a0d919061226b565b9081526040519081900360200190206007015460ff1615610a705760405162461bcd60e51b815260206004820152601760248201527f50686f746f7320616c72656164792075706c6f61646564000000000000000000604482015260640161040d565b60405180610100016040528087815260200186815260200185815260200184815260200183815260200182815260200142815260200160011515815250600588604051610abd919061226b565b90815260405190819003602001902081518190610ada908261233b565b5060208201516001820190610aef908261233b565b5060408201516002820190610b04908261233b565b5060608201516003820190610b19908261233b565b5060808201516004820190610b2e908261233b565b5060a08201516005820190610b43908261233b565b5060c0820151600682015560e0909101516007909101805460ff19169115159190911790556040517f1d11784494a8ce3357eaab9e9cf4439a22dd7b03aefaea16088e21e4bb2cfeac90610b9a90899042906123fb565b60405180910390a150505050505050565b6000610bb5611b78565b60008581526006602052604090206003015460ff16610c0a5760405162461bcd60e51b8152602060048201526011602482015270506f6c696379206e6f742061637469766560781b604482015260640161040d565b60025460405163ca00902160e01b81526004810187905233916001600160a01b03169063ca00902190602401602060405180830381865afa158015610c53573d6000803e3d6000fd5b505050506040513d601f19601f82011682018060405250810190610c77919061241d565b6001600160a01b031614610cc05760405162461bcd60e51b815260206004820152601060248201526f2737ba103837b634b1bc9037bbb732b960811b604482015260640161040d565b6009805460009182610cd183612450565b909155506040805160e08101825282815260208082018a81528284018a8152606084018a905260808401899052600060a0850181905260c0850181905286815260079093529390912082518155905160018201559151929350916002820190610d3a908261233b565b5060608201516003820190610d4f908261233b565b506080820151600482015560a08201516005909101805460c09093015115156101000261ff00199215159290921661ffff1990931692909217179055604051869082907f675e9cd1ef5a9bb6971c9f1099eced3c6607be0407bc871bc50a8a7b36832e7490600090a39050610dc46001600055565b949350505050565b8051602081830181018051600482529282019190930120915280548190610df2906122b2565b80601f0160208091040260200160405190810160405280929190818152602001828054610e1e906122b2565b8015610e6b5780601f10610e4057610100808354040283529160200191610e6b565b820191906000526020600020905b815481529060010190602001808311610e4e57829003601f168201915b505050505090806001018054610e80906122b2565b80601f0160208091040260200160405190810160405280929190818152602001828054610eac906122b2565b8015610ef95780601f10610ece57610100808354040283529160200191610ef9565b820191906000526020600020905b815481529060010190602001808311610edc57829003601f168201915b505050505090806002018054610f0e906122b2565b80601f0160208091040260200160405190810160405280929190818152602001828054610f3a906122b2565b8015610f875780601f10610f5c57610100808354040283529160200191610f87565b820191906000526020600020905b815481529060010190602001808311610f6a57829003601f168201915b505050600384015460048501546005860154600690960154949591946001600160a01b038216945060ff600160a01b830481169450600160a81b909204821692911689565b60076020526000908152604090208054600182015460028301805492939192610ff4906122b2565b80601f0160208091040260200160405190810160405280929190818152602001828054611020906122b2565b801561106d5780601f106110425761010080835404028352916020019161106d565b820191906000526020600020905b81548152906001019060200180831161105057829003601f168201915b505050505090806003018054611082906122b2565b80601f01602080910402602001604051908101604052809291908181526020018280546110ae906122b2565b80156110fb5780601f106110d0576101008083540402835291602001916110fb565b820191906000526020600020905b8154815290600101906020018083116110de57829003601f168201915b50505050600483015460059093015491929160ff80821692506101009091041687565b6000611128611b78565b600060048560405161113a919061226b565b908152604051908190036020019020600681015490915060ff166111995760405162461bcd60e51b815260206004820152601660248201527515995a1a58db19481b9bdd081c9959da5cdd195c995960521b604482015260640161040d565b60048101546001600160a01b031633146111e95760405162461bcd60e51b81526020600482015260116024820152702737ba103b32b434b1b6329037bbb732b960791b604482015260640161040d565b60016004820154600160a01b900460ff16600281111561120b5761120b611f8f565b1461124f5760405162461bcd60e51b815260206004820152601460248201527315995a1a58db19481b9bdd081d995c9a599a595960621b604482015260640161040d565b6004810154600890600090600160a81b900460ff16600281111561127557611275611f8f565b600281111561128657611286611f8f565b8152602001908152602001600020548311156112e45760405162461bcd60e51b815260206004820152601b60248201527f436f76657261676520657863656564732074696572206c696d69740000000000604482015260640161040d565b600354600482810154604051631a709f8560e21b81526000936001600160a01b0316926369c27e1492611325928b92600160a81b90920460ff169101612287565b602060405180830381865afa158015611342573d6000803e3d6000fd5b505050506040513d601f19601f820116820180604052508101906113669190612469565b9050803410156113b85760405162461bcd60e51b815260206004820152601c60248201527f496e73756666696369656e74207072656d69756d207061796d656e7400000000604482015260640161040d565b600085116113fb5760405162461bcd60e51b815260206004820152601060248201526f24b73b30b634b210323ab930ba34b7b760811b604482015260640161040d565b60025460048381015460405163043537fd60e31b81526000936001600160a01b0316926321a9bfe8926114419233928d92600160a81b900460ff169189918d9101612482565b6020604051808303816000875af1158015611460573d6000803e3d6000fd5b505050506040513d601f19601f820116820180604052508101906114849190612469565b90506040518060a0016040528086815260200142815260200187426114a991906124cd565b8152600160208201526004850154604090910190600160a81b900460ff1660028111156114d8576114d8611f8f565b90526000828152600660209081526040918290208351815590830151600182015590820151600280830191909155606083015160038301805491151560ff19831681178255608086015193919261ff001990911661ffff19909116179061010090849081111561154a5761154a611f8f565b0217905550905050336001600160a01b0316817f21d0178f0cde2aed24022db30651dabafb4bbe431fb787fbc92113304d8e35498960405161158c91906124e6565b60405180910390a3925050506115a26001600055565b9392505050565b6004886040516115b9919061226b565b9081526040519081900360200190206006015460ff161561161c5760405162461bcd60e51b815260206004820152601a60248201527f56656869636c6520616c72656164792072656769737465726564000000000000604482015260640161040d565b61162a6301e13380426124f9565b611636906107b26124cd565b8511156116745760405162461bcd60e51b815260206004820152600c60248201526b24b73b30b634b2103cb2b0b960a11b604482015260640161040d565b6003546000906001600160a01b0316630944a8ca8a87896116996301e13380426124f9565b6116a5906107b26124cd565b6116af919061251b565b8888886040518763ffffffff1660e01b81526004016116d39695949392919061252e565b60408051808303816000875af11580156116f1573d6000803e3d6000fd5b505050506040513d601f19601f82011682018060405250810190611715919061256f565b5060408051610120810182528b8152602081018b90529081018990526060810188905233608082015290915060a081016000815260200182600281111561175e5761175e611f8f565b815242602082015260016040918201525160049061177d908c9061226b565b9081526040519081900360200190208151819061179a908261233b565b50602082015160018201906117af908261233b565b50604082015160028201906117c4908261233b565b506060820151600382015560808201516004820180546001600160a01b039092166001600160a01b031983168117825560a0850151926001600160a81b03191617600160a01b83600281111561181c5761181c611f8f565b021790555060c082015160048201805460ff60a81b1916600160a81b83600281111561184a5761184a611f8f565b021790555060e08201516005820155610100909101516006909101805460ff19169115159190911790556040517fac60a133922621409c80ab6958b2718dc64d275887639e7694b2aa0d87cbcb02906118a8908b903390859061259d565b60405180910390a1505050505050505050565b6118c36118f9565b6001600160a01b0381166118ed57604051631e4fbdf760e01b81526000600482015260240161040d565b6118f681611b26565b50565b6001546001600160a01b031633146106055760405163118cdaa760e01b815233600482015260240161040d565b6005810154610100900460ff16156119755760405162461bcd60e51b815260206004820152601260248201527110db185a5b48185b1c9958591e481c185a5960721b604482015260640161040d565b80600401544710156119c95760405162461bcd60e51b815260206004820152601d60248201527f496e73756666696369656e7420636f6e74726163742062616c616e6365000000604482015260640161040d565b600254600182015460405163ca00902160e01b815260048101919091526000916001600160a01b03169063ca00902190602401602060405180830381865afa158015611a19573d6000803e3d6000fd5b505050506040513d601f19601f82011682018060405250810190611a3d919061241d565b60058301805461ff00191661010017905560048301546040519192506000916001600160a01b03841691908381818185875af1925050503d8060008114611aa0576040519150601f19603f3d011682016040523d82523d6000602084013e611aa5565b606091505b5050905080611aef5760405162461bcd60e51b815260206004820152601660248201527511985a5b1959081d1bc81cd95b99081c185e5b595b9d60521b604482015260640161040d565b825460048401546040519081527fb0727183796e52c5bb00a257c1eb36d8e94dbee5d6d87e259287e3372ae39ace906020016105e6565b600180546001600160a01b038381166001600160a01b0319831681179093556040519116919082907f8be0079c531659141344cd1fd0a4f28419497f9722a3daafe3b4186f6b6457e090600090a35050565b600260005403611b9b57604051633ee5aeb560e01b815260040160405180910390fd5b6002600055565b634e487b7160e01b600052604160045260246000fd5b600082601f830112611bc957600080fd5b813567ffffffffffffffff80821115611be457611be4611ba2565b604051601f8301601f19908116603f01168101908282118183101715611c0c57611c0c611ba2565b81604052838152866020858801011115611c2557600080fd5b836020870160208301376000602085830101528094505050505092915050565b600381106118f657600080fd5b60008060408385031215611c6557600080fd5b823567ffffffffffffffff811115611c7c57600080fd5b611c8885828601611bb8565b9250506020830135611c9981611c45565b809150509250929050565b80358015158114611cb457600080fd5b919050565b60008060408385031215611ccc57600080fd5b82359150611cdc60208401611ca4565b90509250929050565b600060208284031215611cf757600080fd5b813567ffffffffffffffff811115611d0e57600080fd5b610dc484828501611bb8565b60005b83811015611d35578181015183820152602001611d1d565b50506000910152565b60008151808452611d56816020860160208601611d1a565b601f01601f19169290920160200192915050565b6000610100808352611d7e8184018c611d3e565b90508281036020840152611d92818b611d3e565b90508281036040840152611da6818a611d3e565b90508281036060840152611dba8189611d3e565b90508281036080840152611dce8188611d3e565b905082810360a0840152611de28187611d3e565b60c0840195909552505090151560e0909101529695505050505050565b600080600080600080600060e0888a031215611e1a57600080fd5b873567ffffffffffffffff80821115611e3257600080fd5b611e3e8b838c01611bb8565b985060208a0135915080821115611e5457600080fd5b611e608b838c01611bb8565b975060408a0135915080821115611e7657600080fd5b611e828b838c01611bb8565b965060608a0135915080821115611e9857600080fd5b611ea48b838c01611bb8565b955060808a0135915080821115611eba57600080fd5b611ec68b838c01611bb8565b945060a08a0135915080821115611edc57600080fd5b611ee88b838c01611bb8565b935060c08a0135915080821115611efe57600080fd5b50611f0b8a828b01611bb8565b91505092959891949750929550565b60008060008060808587031215611f3057600080fd5b84359350602085013567ffffffffffffffff80821115611f4f57600080fd5b611f5b88838901611bb8565b94506040870135915080821115611f7157600080fd5b50611f7e87828801611bb8565b949793965093946060013593505050565b634e487b7160e01b600052602160045260246000fd5b600381106118f657634e487b7160e01b600052602160045260246000fd5b6000610120808352611fd78184018d611d3e565b90508281036020840152611feb818c611d3e565b90508281036040840152611fff818b611d3e565b606084018a90526001600160a01b03891660808501529150612022905086611fa5565b8560a083015261203185611fa5565b8460c08301528360e08301528215156101008301529a9950505050505050505050565b60006020828403121561206657600080fd5b5035919050565b87815286602082015260e06040820152600061208c60e0830188611d3e565b828103606084015261209e8188611d3e565b6080840196909652505091151560a0830152151560c090910152949350505050565b8581526020810185905260408101849052821515606082015260a081016120e683611fa5565b8260808301529695505050505050565b60008060006060848603121561210b57600080fd5b833567ffffffffffffffff81111561212257600080fd5b61212e86828701611bb8565b9660208601359650604090950135949350505050565b803560ff81168114611cb457600080fd5b600080600080600080600080610100898b03121561217257600080fd5b883567ffffffffffffffff8082111561218a57600080fd5b6121968c838d01611bb8565b995060208b01359150808211156121ac57600080fd5b6121b88c838d01611bb8565b985060408b01359150808211156121ce57600080fd5b506121db8b828c01611bb8565b965050606089013594506080890135935060a089013592506121ff60c08a01612144565b915061220d60e08a01611ca4565b90509295985092959890939650565b6001600160a01b03811681146118f657600080fd5b60006020828403121561224357600080fd5b81356115a28161221c565b60006020828403121561226057600080fd5b81356115a281611c45565b6000825161227d818460208701611d1a565b9190910192915050565b60408152600061229a6040830185611d3e565b90506122a583611fa5565b8260208301529392505050565b600181811c908216806122c657607f821691505b6020821081036122e657634e487b7160e01b600052602260045260246000fd5b50919050565b601f82111561233657600081815260208120601f850160051c810160208610156123135750805b601f850160051c820191505b818110156123325782815560010161231f565b5050505b505050565b815167ffffffffffffffff81111561235557612355611ba2565b6123698161236384546122b2565b846122ec565b602080601f83116001811461239e57600084156123865750858301515b600019600386901b1c1916600185901b178555612332565b600085815260208120601f198616915b828110156123cd578886015182559484019460019091019084016123ae565b50858210156123eb5787850151600019600388901b60f8161c191681555b5050505050600190811b01905550565b60408152600061240e6040830185611d3e565b90508260208301529392505050565b60006020828403121561242f57600080fd5b81516115a28161221c565b634e487b7160e01b600052601160045260246000fd5b6000600182016124625761246261243a565b5060010190565b60006020828403121561247b57600080fd5b5051919050565b6001600160a01b038616815260a0602082018190526000906124a690830187611d3e565b90506124b185611fa5565b8460408301528360608301528260808301529695505050505050565b808201808211156124e0576124e061243a565b92915050565b6020815260006115a26020830184611d3e565b60008261251657634e487b7160e01b600052601260045260246000fd5b500490565b818103818111156124e0576124e061243a565b60c08152600061254160c0830189611d3e565b6020830197909752506040810194909452606084019290925260ff166080830152151560a090910152919050565b6000806040838503121561258257600080fd5b825161258d81611c45565b6020939093015192949293505050565b6060815260006125b06060830186611d3e565b6001600160a01b038516602084015290506125ca83611fa5565b82604083015294935050505056fea2646970667358221220a3a99baa042596d6d30896994f1298744feec4f3087b3dc33b602c9844a578a764736f6c63430008140033","opcodes":"PUSH1 0x80 PUSH1 0x40 MSTORE PUSH1 0x1 PUSH1 0x9 SSTORE CALLVALUE DUP1 ISZERO PUSH3 0x16 JUMPI PUSH1 0x0 DUP1 REVERT JUMPDEST POP PUSH1 0x40 MLOAD PUSH3 0x27F3 CODESIZE SUB DUP1 PUSH3 0x27F3 DUP4 CODECOPY DUP2 ADD PUSH1 0x40 DUP2 SWAP1 MSTORE PUSH3 0x39 SWAP2 PUSH3 0x19D JUMP JUMPDEST PUSH1 0x1 PUSH1 0x0 SSTORE CALLER DUP1 PUSH3 0x65 JUMPI PUSH1 0x40 MLOAD PUSH4 0x1E4FBDF7 PUSH1 0xE0 SHL DUP2 MSTORE PUSH1 0x0 PUSH1 0x4 DUP3 ADD MSTORE PUSH1 0x24 ADD PUSH1 0x40 MLOAD DUP1 SWAP2 SUB SWAP1 REVERT JUMPDEST PUSH3 0x70 DUP2 PUSH3 0x12E JUMP JUMPDEST POP PUSH1 0x2 DUP1 SLOAD PUSH1 0x1 PUSH1 0x1 PUSH1 0xA0 SHL SUB SWAP4 DUP5 AND PUSH1 0x1 PUSH1 0x1 PUSH1 0xA0 SHL SUB NOT SWAP2 DUP3 AND OR DUP3 SSTORE PUSH1 0x3 DUP1 SLOAD SWAP4 SWAP1 SWAP5 AND SWAP3 AND SWAP2 SWAP1 SWAP2 OR SWAP1 SWAP2 SSTORE PUSH1 0x8 PUSH1 0x20 MSTORE PUSH7 0xB1A2BC2EC50000 PUSH32 0x5EFF886EA0CE6CA488A3D6E336D6C0F75F46D19B42C06CE5EE98E42C96D256C7 SSTORE PUSH8 0x16345785D8A0000 PUSH32 0xAD67D757C34507F157CACFA2E3153E9F260A2244F30428821BE7BE64587AC55F SSTORE PUSH1 0x0 MSTORE PUSH8 0x2C68AF0BB140000 PUSH32 0x6ADD646517A5B0F6793CD5891B7937D28A5B2981A5D88EBC7CD776088FEA9041 SSTORE PUSH3 0x1D5 JUMP JUMPDEST PUSH1 0x1 DUP1 SLOAD PUSH1 0x1 PUSH1 0x1 PUSH1 0xA0 SHL SUB DUP4 DUP2 AND PUSH1 0x1 PUSH1 0x1 PUSH1 0xA0 SHL SUB NOT DUP4 AND DUP2 OR SWAP1 SWAP4 SSTORE PUSH1 0x40 MLOAD SWAP2 AND SWAP2 SWAP1 DUP3 SWAP1 PUSH32 0x8BE0079C531659141344CD1FD0A4F28419497F9722A3DAAFE3B4186F6B6457E0 SWAP1 PUSH1 0x0 SWAP1 LOG3 POP POP JUMP JUMPDEST DUP1 MLOAD PUSH1 0x1 PUSH1 0x1 PUSH1 0xA0 SHL SUB DUP2 AND DUP2 EQ PUSH3 0x198 JUMPI PUSH1 0x0 DUP1 REVERT JUMPDEST SWAP2 SWAP1 POP JUMP JUMPDEST PUSH1 0x0 DUP1 PUSH1 0x40 DUP4 DUP6 SUB SLT ISZERO PUSH3 0x1B1 JUMPI PUSH1 0x0 DUP1 REVERT JUMPDEST PUSH3 0x1BC DUP4 PUSH3 0x180 JUMP JUMPDEST SWAP2 POP PUSH3 0x1CC PUSH1 0x20 DUP5 ADD PUSH3 0x180 JUMP JUMPDEST SWAP1 POP SWAP3 POP SWAP3 SWAP1 POP JUMP JUMPDEST PUSH2 0x260E DUP1 PUSH3 0x1E5 PUSH1 0x0 CODECOPY PUSH1 0x0 RETURN INVALID PUSH1 0x80 PUSH1 0x40 MSTORE PUSH1 0x4 CALLDATASIZE LT PUSH2 0xF7 JUMPI PUSH1 0x0 CALLDATALOAD PUSH1 0xE0 SHR DUP1 PUSH4 0x976DE5C5 GT PUSH2 0x8A JUMPI DUP1 PUSH4 0xE93B2A34 GT PUSH2 0x59 JUMPI DUP1 PUSH4 0xE93B2A34 EQ PUSH2 0x31E JUMPI DUP1 PUSH4 0xF21AD98B EQ PUSH2 0x331 JUMPI DUP1 PUSH4 0xF2FDE38B EQ PUSH2 0x351 JUMPI DUP1 PUSH4 0xFEDDA0E4 EQ PUSH2 0x371 JUMPI PUSH1 0x0 DUP1 REVERT JUMPDEST DUP1 PUSH4 0x976DE5C5 EQ PUSH2 0x237 JUMPI DUP1 PUSH4 0xA888C2CD EQ PUSH2 0x26C JUMPI DUP1 PUSH4 0xAF02808A EQ PUSH2 0x29F JUMPI DUP1 PUSH4 0xD3E89483 EQ PUSH2 0x2BF JUMPI PUSH1 0x0 DUP1 REVERT JUMPDEST DUP1 PUSH4 0x744007FD GT PUSH2 0xC6 JUMPI DUP1 PUSH4 0x744007FD EQ PUSH2 0x197 JUMPI DUP1 PUSH4 0x7DAAAAF3 EQ PUSH2 0x1CB JUMPI DUP1 PUSH4 0x8DA5CB5B EQ PUSH2 0x1EB JUMPI DUP1 PUSH4 0x8F749E15 EQ PUSH2 0x209 JUMPI PUSH1 0x0 DUP1 REVERT JUMPDEST DUP1 PUSH4 0x1CA2CF28 EQ PUSH2 0x103 JUMPI DUP1 PUSH4 0x35446DEF EQ PUSH2 0x125 JUMPI DUP1 PUSH4 0x70A1A7D5 EQ PUSH2 0x145 JUMPI DUP1 PUSH4 0x715018A6 EQ PUSH2 0x182 JUMPI PUSH1 0x0 DUP1 REVERT JUMPDEST CALLDATASIZE PUSH2 0xFE JUMPI STOP JUMPDEST PUSH1 0x0 DUP1 REVERT JUMPDEST CALLVALUE DUP1 ISZERO PUSH2 0x10F JUMPI PUSH1 0x0 DUP1 REVERT JUMPDEST POP PUSH2 0x123 PUSH2 0x11E CALLDATASIZE PUSH1 0x4 PUSH2 0x1C52 JUMP JUMPDEST PUSH2 0x39E JUMP JUMPDEST STOP JUMPDEST CALLVALUE DUP1 ISZERO PUSH2 0x131 JUMPI PUSH1 0x0 DUP1 REVERT JUMPDEST POP PUSH2 0x123 PUSH2 0x140 CALLDATASIZE PUSH1 0x4 PUSH2 0x1CB9 JUMP JUMPDEST PUSH2 0x529 JUMP JUMPDEST CALLVALUE DUP1 ISZERO PUSH2 0x151 JUMPI PUSH1 0x0 DUP1 REVERT JUMPDEST POP PUSH1 0x3 SLOAD PUSH2 0x165 SWAP1 PUSH1 0x1 PUSH1 0x1 PUSH1 0xA0 SHL SUB AND DUP2 JUMP JUMPDEST PUSH1 0x40 MLOAD PUSH1 0x1 PUSH1 0x1 PUSH1 0xA0 SHL SUB SWAP1 SWAP2 AND DUP2 MSTORE PUSH1 0x20 ADD JUMPDEST PUSH1 0x40 MLOAD DUP1 SWAP2 SUB SWAP1 RETURN JUMPDEST CALLVALUE DUP1 ISZERO PUSH2 0x18E JUMPI PUSH1 0x0 DUP1 REVERT JUMPDEST POP PUSH2 0x123 PUSH2 0x5F3 JUMP JUMPDEST CALLVALUE DUP1 ISZERO PUSH2 0x1A3 JUMPI PUSH1 0x0 DUP1 REVERT JUMPDEST POP PUSH2 0x1B7 PUSH2 0x1B2 CALLDATASIZE PUSH1 0x4 PUSH2 0x1CE5 JUMP JUMPDEST PUSH2 0x607 JUMP JUMPDEST PUSH1 0x40 MLOAD PUSH2 0x179 SWAP9 SWAP8 SWAP7 SWAP6 SWAP5 SWAP4 SWAP3 SWAP2 SWAP1 PUSH2 0x1D6A JUMP JUMPDEST CALLVALUE DUP1 ISZERO PUSH2 0x1D7 JUMPI PUSH1 0x0 DUP1 REVERT JUMPDEST POP PUSH2 0x123 PUSH2 0x1E6 CALLDATASIZE PUSH1 0x4 PUSH2 0x1DFF JUMP JUMPDEST PUSH2 0x986 JUMP JUMPDEST CALLVALUE DUP1 ISZERO PUSH2 0x1F7 JUMPI PUSH1 0x0 DUP1 REVERT JUMPDEST POP PUSH1 0x1 SLOAD PUSH1 0x1 PUSH1 0x1 PUSH1 0xA0 SHL SUB AND PUSH2 0x165 JUMP JUMPDEST CALLVALUE DUP1 ISZERO PUSH2 0x215 JUMPI PUSH1 0x0 DUP1 REVERT JUMPDEST POP PUSH2 0x229 PUSH2 0x224 CALLDATASIZE PUSH1 0x4 PUSH2 0x1F1A JUMP JUMPDEST PUSH2 0xBAB JUMP JUMPDEST PUSH1 0x40 MLOAD SWAP1 DUP2 MSTORE PUSH1 0x20 ADD PUSH2 0x179 JUMP JUMPDEST CALLVALUE DUP1 ISZERO PUSH2 0x243 JUMPI PUSH1 0x0 DUP1 REVERT JUMPDEST POP PUSH2 0x257 PUSH2 0x252 CALLDATASIZE PUSH1 0x4 PUSH2 0x1CE5 JUMP JUMPDEST PUSH2 0xDCC JUMP JUMPDEST PUSH1 0x40 MLOAD PUSH2 0x179 SWAP10 SWAP9 SWAP8 SWAP7 SWAP6 SWAP5 SWAP4 SWAP3 SWAP2 SWAP1 PUSH2 0x1FC3 JUMP JUMPDEST CALLVALUE DUP1 ISZERO PUSH2 0x278 JUMPI PUSH1 0x0 DUP1 REVERT JUMPDEST POP PUSH2 0x28C PUSH2 0x287 CALLDATASIZE PUSH1 0x4 PUSH2 0x2054 JUMP JUMPDEST PUSH2 0xFCC JUMP JUMPDEST PUSH1 0x40 MLOAD PUSH2 0x179 SWAP8 SWAP7 SWAP6 SWAP5 SWAP4 SWAP3 SWAP2 SWAP1 PUSH2 0x206D JUMP JUMPDEST CALLVALUE DUP1 ISZERO PUSH2 0x2AB JUMPI PUSH1 0x0 DUP1 REVERT JUMPDEST POP PUSH1 0x2 SLOAD PUSH2 0x165 SWAP1 PUSH1 0x1 PUSH1 0x1 PUSH1 0xA0 SHL SUB AND DUP2 JUMP JUMPDEST CALLVALUE DUP1 ISZERO PUSH2 0x2CB JUMPI PUSH1 0x0 DUP1 REVERT JUMPDEST POP PUSH2 0x30D PUSH2 0x2DA CALLDATASIZE PUSH1 0x4 PUSH2 0x2054 JUMP JUMPDEST PUSH1 0x6 PUSH1 0x20 MSTORE PUSH1 0x0 SWAP1 DUP2 MSTORE PUSH1 0x40 SWAP1 KECCAK256 DUP1 SLOAD PUSH1 0x1 DUP3 ADD SLOAD PUSH1 0x2 DUP4 ADD SLOAD PUSH1 0x3 SWAP1 SWAP4 ADD SLOAD SWAP2 SWAP3 SWAP1 SWAP2 PUSH1 0xFF DUP1 DUP3 AND SWAP2 PUSH2 0x100 SWAP1 DIV AND DUP6 JUMP JUMPDEST PUSH1 0x40 MLOAD PUSH2 0x179 SWAP6 SWAP5 SWAP4 SWAP3 SWAP2 SWAP1 PUSH2 0x20C0 JUMP JUMPDEST PUSH2 0x229 PUSH2 0x32C CALLDATASIZE PUSH1 0x4 PUSH2 0x20F6 JUMP JUMPDEST PUSH2 0x111E JUMP JUMPDEST CALLVALUE DUP1 ISZERO PUSH2 0x33D JUMPI PUSH1 0x0 DUP1 REVERT JUMPDEST POP PUSH2 0x123 PUSH2 0x34C CALLDATASIZE PUSH1 0x4 PUSH2 0x2155 JUMP JUMPDEST PUSH2 0x15A9 JUMP JUMPDEST CALLVALUE DUP1 ISZERO PUSH2 0x35D JUMPI PUSH1 0x0 DUP1 REVERT JUMPDEST POP PUSH2 0x123 PUSH2 0x36C CALLDATASIZE PUSH1 0x4 PUSH2 0x2231 JUMP JUMPDEST PUSH2 0x18BB JUMP JUMPDEST CALLVALUE DUP1 ISZERO PUSH2 0x37D JUMPI PUSH1 0x0 DUP1 REVERT JUMPDEST POP PUSH2 0x229 PUSH2 0x38C CALLDATASIZE PUSH1 0x4 PUSH2 0x224E JUMP JUMPDEST PUSH1 0x8 PUSH1 0x20 MSTORE PUSH1 0x0 SWAP1 DUP2 MSTORE PUSH1 0x40 SWAP1 KECCAK256 SLOAD DUP2 JUMP JUMPDEST PUSH2 0x3A6 PUSH2 0x18F9 JUMP JUMPDEST PUSH1 0x4 DUP3 PUSH1 0x40 MLOAD PUSH2 0x3B6 SWAP2 SWAP1 PUSH2 0x226B JUMP JUMPDEST SWAP1 DUP2 MSTORE PUSH1 0x40 MLOAD SWAP1 DUP2 SWAP1 SUB PUSH1 0x20 ADD SWAP1 KECCAK256 PUSH1 0x6 ADD SLOAD PUSH1 0xFF AND PUSH2 0x416 JUMPI PUSH1 0x40 MLOAD PUSH3 0x461BCD PUSH1 0xE5 SHL DUP2 MSTORE PUSH1 0x20 PUSH1 0x4 DUP3 ADD MSTORE PUSH1 0x16 PUSH1 0x24 DUP3 ADD MSTORE PUSH22 0x15995A1A58DB19481B9BDD081C9959DA5CDD195C9959 PUSH1 0x52 SHL PUSH1 0x44 DUP3 ADD MSTORE PUSH1 0x64 ADD JUMPDEST PUSH1 0x40 MLOAD DUP1 SWAP2 SUB SWAP1 REVERT JUMPDEST PUSH1 0x5 DUP3 PUSH1 0x40 MLOAD PUSH2 0x426 SWAP2 SWAP1 PUSH2 0x226B JUMP JUMPDEST SWAP1 DUP2 MSTORE PUSH1 0x40 MLOAD SWAP1 DUP2 SWAP1 SUB PUSH1 0x20 ADD SWAP1 KECCAK256 PUSH1 0x7 ADD SLOAD PUSH1 0xFF AND PUSH2 0x47E JUMPI PUSH1 0x40 MLOAD PUSH3 0x461BCD PUSH1 0xE5 SHL DUP2 MSTORE PUSH1 0x20 PUSH1 0x4 DUP3 ADD MSTORE PUSH1 0x13 PUSH1 0x24 DUP3 ADD MSTORE PUSH19 0x141A1BDD1BDCC81B9BDD081D5C1B1BD8591959 PUSH1 0x6A SHL PUSH1 0x44 DUP3 ADD MSTORE PUSH1 0x64 ADD PUSH2 0x40D JUMP JUMPDEST DUP1 PUSH1 0x4 DUP4 PUSH1 0x40 MLOAD PUSH2 0x48F SWAP2 SWAP1 PUSH2 0x226B JUMP JUMPDEST SWAP1 DUP2 MSTORE PUSH1 0x40 MLOAD SWAP1 DUP2 SWAP1 SUB PUSH1 0x20 ADD SWAP1 KECCAK256 PUSH1 0x4 ADD DUP1 SLOAD PUSH1 0xFF PUSH1 0xA0 SHL NOT AND PUSH1 0x1 PUSH1 0xA0 SHL DUP4 PUSH1 0x2 DUP2 GT ISZERO PUSH2 0x4C1 JUMPI PUSH2 0x4C1 PUSH2 0x1F8F JUMP JUMPDEST MUL OR SWAP1 SSTORE POP TIMESTAMP PUSH1 0x4 DUP4 PUSH1 0x40 MLOAD PUSH2 0x4D7 SWAP2 SWAP1 PUSH2 0x226B JUMP JUMPDEST SWAP1 DUP2 MSTORE PUSH1 0x20 ADD PUSH1 0x40 MLOAD DUP1 SWAP2 SUB SWAP1 KECCAK256 PUSH1 0x5 ADD DUP2 SWAP1 SSTORE POP PUSH32 0x16199DC2004744F89CFE5BC916B084FFF79F2E7BE10B3A6BE2240E97846FB408 DUP3 DUP3 PUSH1 0x40 MLOAD PUSH2 0x51D SWAP3 SWAP2 SWAP1 PUSH2 0x2287 JUMP JUMPDEST PUSH1 0x40 MLOAD DUP1 SWAP2 SUB SWAP1 LOG1 POP POP JUMP JUMPDEST PUSH2 0x531 PUSH2 0x18F9 JUMP JUMPDEST PUSH1 0x0 DUP3 DUP2 MSTORE PUSH1 0x7 PUSH1 0x20 MSTORE PUSH1 0x40 SWAP1 KECCAK256 PUSH1 0x5 DUP2 ADD SLOAD PUSH1 0xFF AND ISZERO PUSH2 0x594 JUMPI PUSH1 0x40 MLOAD PUSH3 0x461BCD PUSH1 0xE5 SHL DUP2 MSTORE PUSH1 0x20 PUSH1 0x4 DUP3 ADD MSTORE PUSH1 0x17 PUSH1 0x24 DUP3 ADD MSTORE PUSH32 0x436C61696D20616C72656164792070726F636573736564000000000000000000 PUSH1 0x44 DUP3 ADD MSTORE PUSH1 0x64 ADD PUSH2 0x40D JUMP JUMPDEST PUSH1 0x5 DUP2 ADD DUP1 SLOAD PUSH1 0xFF NOT AND PUSH1 0x1 OR SWAP1 SSTORE DUP2 ISZERO PUSH2 0x5B2 JUMPI PUSH2 0x5B2 DUP2 PUSH2 0x1926 JUMP JUMPDEST DUP3 PUSH32 0xD4203892740C26C8184CFB101077C87CCF2D01BEAF6AEF0C250AB43BB43DF202 DUP4 PUSH1 0x40 MLOAD PUSH2 0x5E6 SWAP2 ISZERO ISZERO DUP2 MSTORE PUSH1 0x20 ADD SWAP1 JUMP JUMPDEST PUSH1 0x40 MLOAD DUP1 SWAP2 SUB SWAP1 LOG2 POP POP POP JUMP JUMPDEST PUSH2 0x5FB PUSH2 0x18F9 JUMP JUMPDEST PUSH2 0x605 PUSH1 0x0 PUSH2 0x1B26 JUMP JUMPDEST JUMP JUMPDEST DUP1 MLOAD PUSH1 0x20 DUP2 DUP4 ADD DUP2 ADD DUP1 MLOAD PUSH1 0x5 DUP3 MSTORE SWAP3 DUP3 ADD SWAP2 SWAP1 SWAP4 ADD KECCAK256 SWAP2 MSTORE DUP1 SLOAD DUP2 SWAP1 PUSH2 0x62D SWAP1 PUSH2 0x22B2 JUMP JUMPDEST DUP1 PUSH1 0x1F ADD PUSH1 0x20 DUP1 SWAP2 DIV MUL PUSH1 0x20 ADD PUSH1 0x40 MLOAD SWAP1 DUP2 ADD PUSH1 0x40 MSTORE DUP1 SWAP3 SWAP2 SWAP1 DUP2 DUP2 MSTORE PUSH1 0x20 ADD DUP3 DUP1 SLOAD PUSH2 0x659 SWAP1 PUSH2 0x22B2 JUMP JUMPDEST DUP1 ISZERO PUSH2 0x6A6 JUMPI DUP1 PUSH1 0x1F LT PUSH2 0x67B JUMPI PUSH2 0x100 DUP1 DUP4 SLOAD DIV MUL DUP4 MSTORE SWAP2 PUSH1 0x20 ADD SWAP2 PUSH2 0x6A6 JUMP JUMPDEST DUP3 ADD SWAP2 SWAP1 PUSH1 0x0 MSTORE PUSH1 0x20 PUSH1 0x0 KECCAK256 SWAP1 JUMPDEST DUP2 SLOAD DUP2 MSTORE SWAP1 PUSH1 0x1 ADD SWAP1 PUSH1 0x20 ADD DUP1 DUP4 GT PUSH2 0x689 JUMPI DUP3 SWAP1 SUB PUSH1 0x1F AND DUP3 ADD SWAP2 JUMPDEST POP POP POP POP POP SWAP1 DUP1 PUSH1 0x1 ADD DUP1 SLOAD PUSH2 0x6BB SWAP1 PUSH2 0x22B2 JUMP JUMPDEST DUP1 PUSH1 0x1F ADD PUSH1 0x20 DUP1 SWAP2 DIV MUL PUSH1 0x20 ADD PUSH1 0x40 MLOAD SWAP1 DUP2 ADD PUSH1 0x40 MSTORE DUP1 SWAP3 SWAP2 SWAP1 DUP2 DUP2 MSTORE PUSH1 0x20 ADD DUP3 DUP1 SLOAD PUSH2 0x6E7 SWAP1 PUSH2 0x22B2 JUMP JUMPDEST DUP1 ISZERO PUSH2 0x734 JUMPI DUP1 PUSH1 0x1F LT PUSH2 0x709 JUMPI PUSH2 0x100 DUP1 DUP4 SLOAD DIV MUL DUP4 MSTORE SWAP2 PUSH1 0x20 ADD SWAP2 PUSH2 0x734 JUMP JUMPDEST DUP3 ADD SWAP2 SWAP1 PUSH1 0x0 MSTORE PUSH1 0x20 PUSH1 0x0 KECCAK256 SWAP1 JUMPDEST DUP2 SLOAD DUP2 MSTORE SWAP1 PUSH1 0x1 ADD SWAP1 PUSH1 0x20 ADD DUP1 DUP4 GT PUSH2 0x717 JUMPI DUP3 SWAP1 SUB PUSH1 0x1F AND DUP3 ADD SWAP2 JUMPDEST POP POP POP POP POP SWAP1 DUP1 PUSH1 0x2 ADD DUP1 SLOAD PUSH2 0x749 SWAP1 PUSH2 0x22B2 JUMP JUMPDEST DUP1 PUSH1 0x1F ADD PUSH1 0x20 DUP1 SWAP2 DIV MUL PUSH1 0x20 ADD PUSH1 0x40 MLOAD SWAP1 DUP2 ADD PUSH1 0x40 MSTORE DUP1 SWAP3 SWAP2 SWAP1 DUP2 DUP2 MSTORE PUSH1 0x20 ADD DUP3 DUP1 SLOAD PUSH2 0x775 SWAP1 PUSH2 0x22B2 JUMP JUMPDEST DUP1 ISZERO PUSH2 0x7C2 JUMPI DUP1 PUSH1 0x1F LT PUSH2 0x797 JUMPI PUSH2 0x100 DUP1 DUP4 SLOAD DIV MUL DUP4 MSTORE SWAP2 PUSH1 0x20 ADD SWAP2 PUSH2 0x7C2 JUMP JUMPDEST DUP3 ADD SWAP2 SWAP1 PUSH1 0x0 MSTORE PUSH1 0x20 PUSH1 0x0 KECCAK256 SWAP1 JUMPDEST DUP2 SLOAD DUP2 MSTORE SWAP1 PUSH1 0x1 ADD SWAP1 PUSH1 0x20 ADD DUP1 DUP4 GT PUSH2 0x7A5 JUMPI DUP3 SWAP1 SUB PUSH1 0x1F AND DUP3 ADD SWAP2 JUMPDEST POP POP POP POP POP SWAP1 DUP1 PUSH1 0x3 ADD DUP1 SLOAD PUSH2 0x7D7 SWAP1 PUSH2 0x22B2 JUMP JUMPDEST DUP1 PUSH1 0x1F ADD PUSH1 0x20 DUP1 SWAP2 DIV MUL PUSH1 0x20 ADD PUSH1 0x40 MLOAD SWAP1 DUP2 ADD PUSH1 0x40 MSTORE DUP1 SWAP3 SWAP2 SWAP1 DUP2 DUP2 MSTORE PUSH1 0x20 ADD DUP3 DUP1 SLOAD PUSH2 0x803 SWAP1 PUSH2 0x22B2 JUMP JUMPDEST DUP1 ISZERO PUSH2 0x850 JUMPI DUP1 PUSH1 0x1F LT PUSH2 0x825 JUMPI PUSH2 0x100 DUP1 DUP4 SLOAD DIV MUL DUP4 MSTORE SWAP2 PUSH1 0x20 ADD SWAP2 PUSH2 0x850 JUMP JUMPDEST DUP3 ADD SWAP2 SWAP1 PUSH1 0x0 MSTORE PUSH1 0x20 PUSH1 0x0 KECCAK256 SWAP1 JUMPDEST DUP2 SLOAD DUP2 MSTORE SWAP1 PUSH1 0x1 ADD SWAP1 PUSH1 0x20 ADD DUP1 DUP4 GT PUSH2 0x833 JUMPI DUP3 SWAP1 SUB PUSH1 0x1F AND DUP3 ADD SWAP2 JUMPDEST POP POP POP POP POP SWAP1 DUP1 PUSH1 0x4 ADD DUP1 SLOAD PUSH2 0x865 SWAP1 PUSH2 0x22B2 JUMP JUMPDEST DUP1 PUSH1 0x1F ADD PUSH1 0x20 DUP1 SWAP2 DIV MUL PUSH1 0x20 ADD PUSH1 0x40 MLOAD SWAP1 DUP2 ADD PUSH1 0x40 MSTORE DUP1 SWAP3 SWAP2 SWAP1 DUP2 DUP2 MSTORE PUSH1 0x20 ADD DUP3 DUP1 SLOAD PUSH2 0x891 SWAP1 PUSH2 0x22B2 JUMP JUMPDEST DUP1 ISZERO PUSH2 0x8DE JUMPI DUP1 PUSH1 0x1F LT PUSH2 0x8B3 JUMPI PUSH2 0x100 DUP1 DUP4 SLOAD DIV MUL DUP4 MSTORE SWAP2 PUSH1 0x20 ADD SWAP2 PUSH2 0x8DE JUMP JUMPDEST DUP3 ADD SWAP2 SWAP1 PUSH1 0x0 MSTORE PUSH1 0x20 PUSH1 0x0 KECCAK256 SWAP1 JUMPDEST DUP2 SLOAD DUP2 MSTORE SWAP1 PUSH1 0x1 ADD SWAP1 PUSH1 0x20 ADD DUP1 DUP4 GT PUSH2 0x8C1 JUMPI DUP3 SWAP1 SUB PUSH1 0x1F AND DUP3 ADD SWAP2 JUMPDEST POP POP POP POP POP SWAP1 DUP1 PUSH1 0x5 ADD DUP1 SLOAD PUSH2 0x8F3 SWAP1 PUSH2 0x22B2 JUMP JUMPDEST DUP1 PUSH1 0x1F ADD PUSH1 0x20 DUP1 SWAP2 DIV MUL PUSH1 0x20 ADD PUSH1 0x40 MLOAD SWAP1 DUP2 ADD PUSH1 0x40 MSTORE DUP1 SWAP3 SWAP2 SWAP1 DUP2 DUP2 MSTORE PUSH1 0x20 ADD DUP3 DUP1 SLOAD PUSH2 0x91F SWAP1 PUSH2 0x22B2 JUMP JUMPDEST DUP1 ISZERO PUSH2 0x96C JUMPI DUP1 PUSH1 0x1F LT PUSH2 0x941 JUMPI PUSH2 0x100 DUP1 DUP4 SLOAD DIV MUL DUP4 MSTORE SWAP2 PUSH1 0x20 ADD SWAP2 PUSH2 0x96C JUMP JUMPDEST DUP3 ADD SWAP2 SWAP1 PUSH1 0x0 MSTORE PUSH1 0x20 PUSH1 0x0 KECCAK256 SWAP1 JUMPDEST DUP2 SLOAD DUP2 MSTORE SWAP1 PUSH1 0x1 ADD SWAP1 PUSH1 0x20 ADD DUP1 DUP4 GT PUSH2 0x94F JUMPI DUP3 SWAP1 SUB PUSH1 0x1F AND DUP3 ADD SWAP2 JUMPDEST POP POP POP POP PUSH1 0x6 DUP4 ADD SLOAD PUSH1 0x7 SWAP1 SWAP4 ADD SLOAD SWAP2 SWAP3 SWAP2 PUSH1 0xFF AND SWAP1 POP DUP9 JUMP JUMPDEST CALLER PUSH1 0x1 PUSH1 0x1 PUSH1 0xA0 SHL SUB AND PUSH1 0x4 DUP9 PUSH1 0x40 MLOAD PUSH2 0x9A0 SWAP2 SWAP1 PUSH2 0x226B JUMP JUMPDEST SWAP1 DUP2 MSTORE PUSH1 0x40 MLOAD SWAP1 DUP2 SWAP1 SUB PUSH1 0x20 ADD SWAP1 KECCAK256 PUSH1 0x4 ADD SLOAD PUSH1 0x1 PUSH1 0x1 PUSH1 0xA0 SHL SUB AND EQ PUSH2 0x9FD JUMPI PUSH1 0x40 MLOAD PUSH3 0x461BCD PUSH1 0xE5 SHL DUP2 MSTORE PUSH1 0x20 PUSH1 0x4 DUP3 ADD MSTORE PUSH1 0x11 PUSH1 0x24 DUP3 ADD MSTORE PUSH17 0x2737BA103B32B434B1B6329037BBB732B9 PUSH1 0x79 SHL PUSH1 0x44 DUP3 ADD MSTORE PUSH1 0x64 ADD PUSH2 0x40D JUMP JUMPDEST PUSH1 0x5 DUP8 PUSH1 0x40 MLOAD PUSH2 0xA0D SWAP2 SWAP1 PUSH2 0x226B JUMP JUMPDEST SWAP1 DUP2 MSTORE PUSH1 0x40 MLOAD SWAP1 DUP2 SWAP1 SUB PUSH1 0x20 ADD SWAP1 KECCAK256 PUSH1 0x7 ADD SLOAD PUSH1 0xFF AND ISZERO PUSH2 0xA70 JUMPI PUSH1 0x40 MLOAD PUSH3 0x461BCD PUSH1 0xE5 SHL DUP2 MSTORE PUSH1 0x20 PUSH1 0x4 DUP3 ADD MSTORE PUSH1 0x17 PUSH1 0x24 DUP3 ADD MSTORE PUSH32 0x50686F746F7320616C72656164792075706C6F61646564000000000000000000 PUSH1 0x44 DUP3 ADD MSTORE PUSH1 0x64 ADD PUSH2 0x40D JUMP JUMPDEST PUSH1 0x40 MLOAD DUP1 PUSH2 0x100 ADD PUSH1 0x40 MSTORE DUP1 DUP8 DUP2 MSTORE PUSH1 0x20 ADD DUP7 DUP2 MSTORE PUSH1 0x20 ADD DUP6 DUP2 MSTORE PUSH1 0x20 ADD DUP5 DUP2 MSTORE PUSH1 0x20 ADD DUP4 DUP2 MSTORE PUSH1 0x20 ADD DUP3 DUP2 MSTORE PUSH1 0x20 ADD TIMESTAMP DUP2 MSTORE PUSH1 0x20 ADD PUSH1 0x1 ISZERO ISZERO DUP2 MSTORE POP PUSH1 0x5 DUP9 PUSH1 0x40 MLOAD PUSH2 0xABD SWAP2 SWAP1 PUSH2 0x226B JUMP JUMPDEST SWAP1 DUP2 MSTORE PUSH1 0x40 MLOAD SWAP1 DUP2 SWAP1 SUB PUSH1 0x20 ADD SWAP1 KECCAK256 DUP2 MLOAD DUP2 SWAP1 PUSH2 0xADA SWAP1 DUP3 PUSH2 0x233B JUMP JUMPDEST POP PUSH1 0x20 DUP3 ADD MLOAD PUSH1 0x1 DUP3 ADD SWAP1 PUSH2 0xAEF SWAP1 DUP3 PUSH2 0x233B JUMP JUMPDEST POP PUSH1 0x40 DUP3 ADD MLOAD PUSH1 0x2 DUP3 ADD SWAP1 PUSH2 0xB04 SWAP1 DUP3 PUSH2 0x233B JUMP JUMPDEST POP PUSH1 0x60 DUP3 ADD MLOAD PUSH1 0x3 DUP3 ADD SWAP1 PUSH2 0xB19 SWAP1 DUP3 PUSH2 0x233B JUMP JUMPDEST POP PUSH1 0x80 DUP3 ADD MLOAD PUSH1 0x4 DUP3 ADD SWAP1 PUSH2 0xB2E SWAP1 DUP3 PUSH2 0x233B JUMP JUMPDEST POP PUSH1 0xA0 DUP3 ADD MLOAD PUSH1 0x5 DUP3 ADD SWAP1 PUSH2 0xB43 SWAP1 DUP3 PUSH2 0x233B JUMP JUMPDEST POP PUSH1 0xC0 DUP3 ADD MLOAD PUSH1 0x6 DUP3 ADD SSTORE PUSH1 0xE0 SWAP1 SWAP2 ADD MLOAD PUSH1 0x7 SWAP1 SWAP2 ADD DUP1 SLOAD PUSH1 0xFF NOT AND SWAP2 ISZERO ISZERO SWAP2 SWAP1 SWAP2 OR SWAP1 SSTORE PUSH1 0x40 MLOAD PUSH32 0x1D11784494A8CE3357EAAB9E9CF4439A22DD7B03AEFAEA16088E21E4BB2CFEAC SWAP1 PUSH2 0xB9A SWAP1 DUP10 SWAP1 TIMESTAMP SWAP1 PUSH2 0x23FB JUMP JUMPDEST PUSH1 0x40 MLOAD DUP1 SWAP2 SUB SWAP1 LOG1 POP POP POP POP POP POP POP JUMP JUMPDEST PUSH1 0x0 PUSH2 0xBB5 PUSH2 0x1B78 JUMP JUMPDEST PUSH1 0x0 DUP6 DUP2 MSTORE PUSH1 0x6 PUSH1 0x20 MSTORE PUSH1 0x40 SWAP1 KECCAK256 PUSH1 0x3 ADD SLOAD PUSH1 0xFF AND PUSH2 0xC0A JUMPI PUSH1 0x40 MLOAD PUSH3 0x461BCD PUSH1 0xE5 SHL DUP2 MSTORE PUSH1 0x20 PUSH1 0x4 DUP3 ADD MSTORE PUSH1 0x11 PUSH1 0x24 DUP3 ADD MSTORE PUSH17 0x506F6C696379206E6F7420616374697665 PUSH1 0x78 SHL PUSH1 0x44 DUP3 ADD MSTORE PUSH1 0x64 ADD PUSH2 0x40D JUMP JUMPDEST PUSH1 0x2 SLOAD PUSH1 0x40 MLOAD PUSH4 0xCA009021 PUSH1 0xE0 SHL DUP2 MSTORE PUSH1 0x4 DUP2 ADD DUP8 SWAP1 MSTORE CALLER SWAP2 PUSH1 0x1 PUSH1 0x1 PUSH1 0xA0 SHL SUB AND SWAP1 PUSH4 0xCA009021 SWAP1 PUSH1 0x24 ADD PUSH1 0x20 PUSH1 0x40 MLOAD DUP1 DUP4 SUB DUP2 DUP7 GAS STATICCALL ISZERO DUP1 ISZERO PUSH2 0xC53 JUMPI RETURNDATASIZE PUSH1 0x0 DUP1 RETURNDATACOPY RETURNDATASIZE PUSH1 0x0 REVERT JUMPDEST POP POP POP POP PUSH1 0x40 MLOAD RETURNDATASIZE PUSH1 0x1F NOT PUSH1 0x1F DUP3 ADD AND DUP3 ADD DUP1 PUSH1 0x40 MSTORE POP DUP2 ADD SWAP1 PUSH2 0xC77 SWAP2 SWAP1 PUSH2 0x241D JUMP JUMPDEST PUSH1 0x1 PUSH1 0x1 PUSH1 0xA0 SHL SUB AND EQ PUSH2 0xCC0 JUMPI PUSH1 0x40 MLOAD PUSH3 0x461BCD PUSH1 0xE5 SHL DUP2 MSTORE PUSH1 0x20 PUSH1 0x4 DUP3 ADD MSTORE PUSH1 0x10 PUSH1 0x24 DUP3 ADD MSTORE PUSH16 0x2737BA103837B634B1BC9037BBB732B9 PUSH1 0x81 SHL PUSH1 0x44 DUP3 ADD MSTORE PUSH1 0x64 ADD PUSH2 0x40D JUMP JUMPDEST PUSH1 0x9 DUP1 SLOAD PUSH1 0x0 SWAP2 DUP3 PUSH2 0xCD1 DUP4 PUSH2 0x2450 JUMP JUMPDEST SWAP1 SWAP2 SSTORE POP PUSH1 0x40 DUP1 MLOAD PUSH1 0xE0 DUP2 ADD DUP3 MSTORE DUP3 DUP2 MSTORE PUSH1 0x20 DUP1 DUP3 ADD DUP11 DUP2 MSTORE DUP3 DUP5 ADD DUP11 DUP2 MSTORE PUSH1 0x60 DUP5 ADD DUP11 SWAP1 MSTORE PUSH1 0x80 DUP5 ADD DUP10 SWAP1 MSTORE PUSH1 0x0 PUSH1 0xA0 DUP6 ADD DUP2 SWAP1 MSTORE PUSH1 0xC0 DUP6 ADD DUP2 SWAP1 MSTORE DUP7 DUP2 MSTORE PUSH1 0x7 SWAP1 SWAP4 MSTORE SWAP4 SWAP1 SWAP2 KECCAK256 DUP3 MLOAD DUP2 SSTORE SWAP1 MLOAD PUSH1 0x1 DUP3 ADD SSTORE SWAP2 MLOAD SWAP3 SWAP4 POP SWAP2 PUSH1 0x2 DUP3 ADD SWAP1 PUSH2 0xD3A SWAP1 DUP3 PUSH2 0x233B JUMP JUMPDEST POP PUSH1 0x60 DUP3 ADD MLOAD PUSH1 0x3 DUP3 ADD SWAP1 PUSH2 0xD4F SWAP1 DUP3 PUSH2 0x233B JUMP JUMPDEST POP PUSH1 0x80 DUP3 ADD MLOAD PUSH1 0x4 DUP3 ADD SSTORE PUSH1 0xA0 DUP3 ADD MLOAD PUSH1 0x5 SWAP1 SWAP2 ADD DUP1 SLOAD PUSH1 0xC0 SWAP1 SWAP4 ADD MLOAD ISZERO ISZERO PUSH2 0x100 MUL PUSH2 0xFF00 NOT SWAP3 ISZERO ISZERO SWAP3 SWAP1 SWAP3 AND PUSH2 0xFFFF NOT SWAP1 SWAP4 AND SWAP3 SWAP1 SWAP3 OR OR SWAP1 SSTORE PUSH1 0x40 MLOAD DUP7 SWAP1 DUP3 SWAP1 PUSH32 0x675E9CD1EF5A9BB6971C9F1099ECED3C6607BE0407BC871BC50A8A7B36832E74 SWAP1 PUSH1 0x0 SWAP1 LOG3 SWAP1 POP PUSH2 0xDC4 PUSH1 0x1 PUSH1 0x0 SSTORE JUMP JUMPDEST SWAP5 SWAP4 POP POP POP POP JUMP JUMPDEST DUP1 MLOAD PUSH1 0x20 DUP2 DUP4 ADD DUP2 ADD DUP1 MLOAD PUSH1 0x4 DUP3 MSTORE SWAP3 DUP3 ADD SWAP2 SWAP1 SWAP4 ADD KECCAK256 SWAP2 MSTORE DUP1 SLOAD DUP2 SWAP1 PUSH2 0xDF2 SWAP1 PUSH2 0x22B2 JUMP JUMPDEST DUP1 PUSH1 0x1F ADD PUSH1 0x20 DUP1 SWAP2 DIV MUL PUSH1 0x20 ADD PUSH1 0x40 MLOAD SWAP1 DUP2 ADD PUSH1 0x40 MSTORE DUP1 SWAP3 SWAP2 SWAP1 DUP2 DUP2 MSTORE PUSH1 0x20 ADD DUP3 DUP1 SLOAD PUSH2 0xE1E SWAP1 PUSH2 0x22B2 JUMP JUMPDEST DUP1 ISZERO PUSH2 0xE6B JUMPI DUP1 PUSH1 0x1F LT PUSH2 0xE40 JUMPI PUSH2 0x100 DUP1 DUP4 SLOAD DIV MUL DUP4 MSTORE SWAP2 PUSH1 0x20 ADD SWAP2 PUSH2 0xE6B JUMP JUMPDEST DUP3 ADD SWAP2 SWAP1 PUSH1 0x0 MSTORE PUSH1 0x20 PUSH1 0x0 KECCAK256 SWAP1 JUMPDEST DUP2 SLOAD DUP2 MSTORE SWAP1 PUSH1 0x1 ADD SWAP1 PUSH1 0x20 ADD DUP1 DUP4 GT PUSH2 0xE4E JUMPI DUP3 SWAP1 SUB PUSH1 0x1F AND DUP3 ADD SWAP2 JUMPDEST POP POP POP POP POP SWAP1 DUP1 PUSH1 0x1 ADD DUP1 SLOAD PUSH2 0xE80 SWAP1 PUSH2 0x22B2 JUMP JUMPDEST DUP1 PUSH1 0x1F ADD PUSH1 0x20 DUP1 SWAP2 DIV MUL PUSH1 0x20 ADD PUSH1 0x40 MLOAD SWAP1 DUP2 ADD PUSH1 0x40 MSTORE DUP1 SWAP3 SWAP2 SWAP1 DUP2 DUP2 MSTORE PUSH1 0x20 ADD DUP3 DUP1 SLOAD PUSH2 0xEAC SWAP1 PUSH2 0x22B2 JUMP JUMPDEST DUP1 ISZERO PUSH2 0xEF9 JUMPI DUP1 PUSH1 0x1F LT PUSH2 0xECE JUMPI PUSH2 0x100 DUP1 DUP4 SLOAD DIV MUL DUP4 MSTORE SWAP2 PUSH1 0x20 ADD SWAP2 PUSH2 0xEF9 JUMP JUMPDEST DUP3 ADD SWAP2 SWAP1 PUSH1 0x0 MSTORE PUSH1 0x20 PUSH1 0x0 KECCAK256 SWAP1 JUMPDEST DUP2 SLOAD DUP2 MSTORE SWAP1 PUSH1 0x1 ADD SWAP1 PUSH1 0x20 ADD DUP1 DUP4 GT PUSH2 0xEDC JUMPI DUP3 SWAP1 SUB PUSH1 0x1F AND DUP3 ADD SWAP2 JUMPDEST POP POP POP POP POP SWAP1 DUP1 PUSH1 0x2 ADD DUP1 SLOAD PUSH2 0xF0E SWAP1 PUSH2 0x22B2 JUMP JUMPDEST DUP1 PUSH1 0x1F ADD PUSH1 0x20 DUP1 SWAP2 DIV MUL PUSH1 0x20 ADD PUSH1 0x40 MLOAD SWAP1 DUP2 ADD PUSH1 0x40 MSTORE DUP1 SWAP3 SWAP2 SWAP1 DUP2 DUP2 MSTORE PUSH1 0x20 ADD DUP3 DUP1 SLOAD PUSH2 0xF3A SWAP1 PUSH2 0x22B2 JUMP JUMPDEST DUP1 ISZERO PUSH2 0xF87 JUMPI DUP1 PUSH1 0x1F LT PUSH2 0xF5C JUMPI PUSH2 0x100 DUP1 DUP4 SLOAD DIV MUL DUP4 MSTORE SWAP2 PUSH1 0x20 ADD SWAP2 PUSH2 0xF87 JUMP JUMPDEST DUP3 ADD SWAP2 SWAP1 PUSH1 0x0 MSTORE PUSH1 0x20 PUSH1 0x0 KECCAK256 SWAP1 JUMPDEST DUP2 SLOAD DUP2 MSTORE SWAP1 PUSH1 0x1 ADD SWAP1 PUSH1 0x20 ADD DUP1 DUP4 GT PUSH2 0xF6A JUMPI DUP3 SWAP1 SUB PUSH1 0x1F AND DUP3 ADD SWAP2 JUMPDEST POP POP POP PUSH1 0x3 DUP5 ADD SLOAD PUSH1 0x4 DUP6 ADD SLOAD PUSH1 0x5 DUP7 ADD SLOAD PUSH1 0x6 SWAP1 SWAP7 ADD SLOAD SWAP5 SWAP6 SWAP2 SWAP5 PUSH1 0x1 PUSH1 0x1 PUSH1 0xA0 SHL SUB DUP3 AND SWAP5 POP PUSH1 0xFF PUSH1 0x1 PUSH1 0xA0 SHL DUP4 DIV DUP2 AND SWAP5 POP PUSH1 0x1 PUSH1 0xA8 SHL SWAP1 SWAP3 DIV DUP3 AND SWAP3 SWAP2 AND DUP10 JUMP JUMPDEST PUSH1 0x7 PUSH1 0x20 MSTORE PUSH1 0x0 SWAP1 DUP2 MSTORE PUSH1 0x40 SWAP1 KECCAK256 DUP1 SLOAD PUSH1 0x1 DUP3 ADD SLOAD PUSH1 0x2 DUP4 ADD DUP1 SLOAD SWAP3 SWAP4 SWAP2 SWAP3 PUSH2 0xFF4 SWAP1 PUSH2 0x22B2 JUMP JUMPDEST DUP1 PUSH1 0x1F ADD PUSH1 0x20 DUP1 SWAP2 DIV MUL PUSH1 0x20 ADD PUSH1 0x40 MLOAD SWAP1 DUP2 ADD PUSH1 0x40 MSTORE DUP1 SWAP3 SWAP2 SWAP1 DUP2 DUP2 MSTORE PUSH1 0x20 ADD DUP3 DUP1 SLOAD PUSH2 0x1020 SWAP1 PUSH2 0x22B2 JUMP JUMPDEST DUP1 ISZERO PUSH2 0x106D JUMPI DUP1 PUSH1 0x1F LT PUSH2 0x1042 JUMPI PUSH2 0x100 DUP1 DUP4 SLOAD DIV MUL DUP4 MSTORE SWAP2 PUSH1 0x20 ADD SWAP2 PUSH2 0x106D JUMP JUMPDEST DUP3 ADD SWAP2 SWAP1 PUSH1 0x0 MSTORE PUSH1 0x20 PUSH1 0x0 KECCAK256 SWAP1 JUMPDEST DUP2 SLOAD DUP2 MSTORE SWAP1 PUSH1 0x1 ADD SWAP1 PUSH1 0x20 ADD DUP1 DUP4 GT PUSH2 0x1050 JUMPI DUP3 SWAP1 SUB PUSH1 0x1F AND DUP3 ADD SWAP2 JUMPDEST POP POP POP POP POP SWAP1 DUP1 PUSH1 0x3 ADD DUP1 SLOAD PUSH2 0x1082 SWAP1 PUSH2 0x22B2 JUMP JUMPDEST DUP1 PUSH1 0x1F ADD PUSH1 0x20 DUP1 SWAP2 DIV MUL PUSH1 0x20 ADD PUSH1 0x40 MLOAD SWAP1 DUP2 ADD PUSH1 0x40 MSTORE DUP1 SWAP3 SWAP2 SWAP1 DUP2 DUP2 MSTORE PUSH1 0x20 ADD DUP3 DUP1 SLOAD PUSH2 0x10AE SWAP1 PUSH2 0x22B2 JUMP JUMPDEST DUP1 ISZERO PUSH2 0x10FB JUMPI DUP1 PUSH1 0x1F LT PUSH2 0x10D0 JUMPI PUSH2 0x100 DUP1 DUP4 SLOAD DIV MUL DUP4 MSTORE SWAP2 PUSH1 0x20 ADD SWAP2 PUSH2 0x10FB JUMP JUMPDEST DUP3 ADD SWAP2 SWAP1 PUSH1 0x0 MSTORE PUSH1 0x20 PUSH1 0x0 KECCAK256 SWAP1 JUMPDEST DUP2 SLOAD DUP2 MSTORE SWAP1 PUSH1 0x1 ADD SWAP1 PUSH1 0x20 ADD DUP1 DUP4 GT PUSH2 0x10DE JUMPI DUP3 SWAP1 SUB PUSH1 0x1F AND DUP3 ADD SWAP2 JUMPDEST POP POP POP POP PUSH1 0x4 DUP4 ADD SLOAD PUSH1 0x5 SWAP1 SWAP4 ADD SLOAD SWAP2 SWAP3 SWAP2 PUSH1 0xFF DUP1 DUP3 AND SWAP3 POP PUSH2 0x100 SWAP1 SWAP2 DIV AND DUP8 JUMP JUMPDEST PUSH1 0x0 PUSH2 0x1128 PUSH2 0x1B78 JUMP JUMPDEST PUSH1 0x0 PUSH1 0x4 DUP6 PUSH1 0x40 MLOAD PUSH2 0x113A SWAP2 SWAP1 PUSH2 0x226B JUMP JUMPDEST SWAP1 DUP2 MSTORE PUSH1 0x40 MLOAD SWAP1 DUP2 SWAP1 SUB PUSH1 0x20 ADD SWAP1 KECCAK256 PUSH1 0x6 DUP2 ADD SLOAD SWAP1 SWAP2 POP PUSH1 0xFF AND PUSH2 0x1199 JUMPI PUSH1 0x40 MLOAD PUSH3 0x461BCD PUSH1 0xE5 SHL DUP2 MSTORE PUSH1 0x20 PUSH1 0x4 DUP3 ADD MSTORE PUSH1 0x16 PUSH1 0x24 DUP3 ADD MSTORE PUSH22 0x15995A1A58DB19481B9BDD081C9959DA5CDD195C9959 PUSH1 0x52 SHL PUSH1 0x44 DUP3 ADD MSTORE PUSH1 0x64 ADD PUSH2 0x40D JUMP JUMPDEST PUSH1 0x4 DUP2 ADD SLOAD PUSH1 0x1 PUSH1 0x1 PUSH1 0xA0 SHL SUB AND CALLER EQ PUSH2 0x11E9 JUMPI PUSH1 0x40 MLOAD PUSH3 0x461BCD PUSH1 0xE5 SHL DUP2 MSTORE PUSH1 0x20 PUSH1 0x4 DUP3 ADD MSTORE PUSH1 0x11 PUSH1 0x24 DUP3 ADD MSTORE PUSH17 0x2737BA103B32B434B1B6329037BBB732B9 PUSH1 0x79 SHL PUSH1 0x44 DUP3 ADD MSTORE PUSH1 0x64 ADD PUSH2 0x40D JUMP JUMPDEST PUSH1 0x1 PUSH1 0x4 DUP3 ADD SLOAD PUSH1 0x1 PUSH1 0xA0 SHL SWAP1 DIV PUSH1 0xFF AND PUSH1 0x2 DUP2 GT ISZERO PUSH2 0x120B JUMPI PUSH2 0x120B PUSH2 0x1F8F JUMP JUMPDEST EQ PUSH2 0x124F JUMPI PUSH1 0x40 MLOAD PUSH3 0x461BCD PUSH1 0xE5 SHL DUP2 MSTORE PUSH1 0x20 PUSH1 0x4 DUP3 ADD MSTORE PUSH1 0x14 PUSH1 0x24 DUP3 ADD MSTORE PUSH20 0x15995A1A58DB19481B9BDD081D995C9A599A5959 PUSH1 0x62 SHL PUSH1 0x44 DUP3 ADD MSTORE PUSH1 0x64 ADD PUSH2 0x40D JUMP JUMPDEST PUSH1 0x4 DUP2 ADD SLOAD PUSH1 0x8 SWAP1 PUSH1 0x0 SWAP1 PUSH1 0x1 PUSH1 0xA8 SHL SWAP1 DIV PUSH1 0xFF AND PUSH1 0x2 DUP2 GT ISZERO PUSH2 0x1275 JUMPI PUSH2 0x1275 PUSH2 0x1F8F JUMP JUMPDEST PUSH1 0x2 DUP2 GT ISZERO PUSH2 0x1286 JUMPI PUSH2 0x1286 PUSH2 0x1F8F JUMP JUMPDEST DUP2 MSTORE PUSH1 0x20 ADD SWAP1 DUP2 MSTORE PUSH1 0x20 ADD PUSH1 0x0 KECCAK256 SLOAD DUP4 GT ISZERO PUSH2 0x12E4 JUMPI PUSH1 0x40 MLOAD PUSH3 0x461BCD PUSH1 0xE5 SHL DUP2 MSTORE PUSH1 0x20 PUSH1 0x4 DUP3 ADD MSTORE PUSH1 0x1B PUSH1 0x24 DUP3 ADD MSTORE PUSH32 0x436F76657261676520657863656564732074696572206C696D69740000000000 PUSH1 0x44 DUP3 ADD MSTORE PUSH1 0x64 ADD PUSH2 0x40D JUMP JUMPDEST PUSH1 0x3 SLOAD PUSH1 0x4 DUP3 DUP2 ADD SLOAD PUSH1 0x40 MLOAD PUSH4 0x1A709F85 PUSH1 0xE2 SHL DUP2 MSTORE PUSH1 0x0 SWAP4 PUSH1 0x1 PUSH1 0x1 PUSH1 0xA0 SHL SUB AND SWAP3 PUSH4 0x69C27E14 SWAP3 PUSH2 0x1325 SWAP3 DUP12 SWAP3 PUSH1 0x1 PUSH1 0xA8 SHL SWAP1 SWAP3 DIV PUSH1 0xFF AND SWAP2 ADD PUSH2 0x2287 JUMP JUMPDEST PUSH1 0x20 PUSH1 0x40 MLOAD DUP1 DUP4 SUB DUP2 DUP7 GAS STATICCALL ISZERO DUP1 ISZERO PUSH2 0x1342 JUMPI RETURNDATASIZE PUSH1 0x0 DUP1 RETURNDATACOPY RETURNDATASIZE PUSH1 0x0 REVERT JUMPDEST POP POP POP POP PUSH1 0x40 MLOAD RETURNDATASIZE PUSH1 0x1F NOT PUSH1 0x1F DUP3 ADD AND DUP3 ADD DUP1 PUSH1 0x40 MSTORE POP DUP2 ADD SWAP1 PUSH2 0x1366 SWAP2 SWAP1 PUSH2 0x2469 JUMP JUMPDEST SWAP1 POP DUP1 CALLVALUE LT ISZERO PUSH2 0x13B8 JUMPI PUSH1 0x40 MLOAD PUSH3 0x461BCD PUSH1 0xE5 SHL DUP2 MSTORE PUSH1 0x20 PUSH1 0x4 DUP3 ADD MSTORE PUSH1 0x1C PUSH1 0x24 DUP3 ADD MSTORE PUSH32 0x496E73756666696369656E74207072656D69756D207061796D656E7400000000 PUSH1 0x44 DUP3 ADD MSTORE PUSH1 0x64 ADD PUSH2 0x40D JUMP JUMPDEST PUSH1 0x0 DUP6 GT PUSH2 0x13FB JUMPI PUSH1 0x40 MLOAD PUSH3 0x461BCD PUSH1 0xE5 SHL DUP2 MSTORE PUSH1 0x20 PUSH1 0x4 DUP3 ADD MSTORE PUSH1 0x10 PUSH1 0x24 DUP3 ADD MSTORE PUSH16 0x24B73B30B634B210323AB930BA34B7B7 PUSH1 0x81 SHL PUSH1 0x44 DUP3 ADD MSTORE PUSH1 0x64 ADD PUSH2 0x40D JUMP JUMPDEST PUSH1 0x2 SLOAD PUSH1 0x4 DUP4 DUP2 ADD SLOAD PUSH1 0x40 MLOAD PUSH4 0x43537FD PUSH1 0xE3 SHL DUP2 MSTORE PUSH1 0x0 SWAP4 PUSH1 0x1 PUSH1 0x1 PUSH1 0xA0 SHL SUB AND SWAP3 PUSH4 0x21A9BFE8 SWAP3 PUSH2 0x1441 SWAP3 CALLER SWAP3 DUP14 SWAP3 PUSH1 0x1 PUSH1 0xA8 SHL SWAP1 DIV PUSH1 0xFF AND SWAP2 DUP10 SWAP2 DUP14 SWAP2 ADD PUSH2 0x2482 JUMP JUMPDEST PUSH1 0x20 PUSH1 0x40 MLOAD DUP1 DUP4 SUB DUP2 PUSH1 0x0 DUP8 GAS CALL ISZERO DUP1 ISZERO PUSH2 0x1460 JUMPI RETURNDATASIZE PUSH1 0x0 DUP1 RETURNDATACOPY RETURNDATASIZE PUSH1 0x0 REVERT JUMPDEST POP POP POP POP PUSH1 0x40 MLOAD RETURNDATASIZE PUSH1 0x1F NOT PUSH1 0x1F DUP3 ADD AND DUP3 ADD DUP1 PUSH1 0x40 MSTORE POP DUP2 ADD SWAP1 PUSH2 0x1484 SWAP2 SWAP1 PUSH2 0x2469 JUMP JUMPDEST SWAP1 POP PUSH1 0x40 MLOAD DUP1 PUSH1 0xA0 ADD PUSH1 0x40 MSTORE DUP1 DUP7 DUP2 MSTORE PUSH1 0x20 ADD TIMESTAMP DUP2 MSTORE PUSH1 0x20 ADD DUP8 TIMESTAMP PUSH2 0x14A9 SWAP2 SWAP1 PUSH2 0x24CD JUMP JUMPDEST DUP2 MSTORE PUSH1 0x1 PUSH1 0x20 DUP3 ADD MSTORE PUSH1 0x4 DUP6 ADD SLOAD PUSH1 0x40 SWAP1 SWAP2 ADD SWAP1 PUSH1 0x1 PUSH1 0xA8 SHL SWAP1 DIV PUSH1 0xFF AND PUSH1 0x2 DUP2 GT ISZERO PUSH2 0x14D8 JUMPI PUSH2 0x14D8 PUSH2 0x1F8F JUMP JUMPDEST SWAP1 MSTORE PUSH1 0x0 DUP3 DUP2 MSTORE PUSH1 0x6 PUSH1 0x20 SWAP1 DUP2 MSTORE PUSH1 0x40 SWAP2 DUP3 SWAP1 KECCAK256 DUP4 MLOAD DUP2 SSTORE SWAP1 DUP4 ADD MLOAD PUSH1 0x1 DUP3 ADD SSTORE SWAP1 DUP3 ADD MLOAD PUSH1 0x2 DUP1 DUP4 ADD SWAP2 SWAP1 SWAP2 SSTORE PUSH1 0x60 DUP4 ADD MLOAD PUSH1 0x3 DUP4 ADD DUP1 SLOAD SWAP2 ISZERO ISZERO PUSH1 0xFF NOT DUP4 AND DUP2 OR DUP3 SSTORE PUSH1 0x80 DUP7 ADD MLOAD SWAP4 SWAP2 SWAP3 PUSH2 0xFF00 NOT SWAP1 SWAP2 AND PUSH2 0xFFFF NOT SWAP1 SWAP2 AND OR SWAP1 PUSH2 0x100 SWAP1 DUP5 SWAP1 DUP2 GT ISZERO PUSH2 0x154A JUMPI PUSH2 0x154A PUSH2 0x1F8F JUMP JUMPDEST MUL OR SWAP1 SSTORE POP SWAP1 POP POP CALLER PUSH1 0x1 PUSH1 0x1 PUSH1 0xA0 SHL SUB AND DUP2 PUSH32 0x21D0178F0CDE2AED24022DB30651DABAFB4BBE431FB787FBC92113304D8E3549 DUP10 PUSH1 0x40 MLOAD PUSH2 0x158C SWAP2 SWAP1 PUSH2 0x24E6 JUMP JUMPDEST PUSH1 0x40 MLOAD DUP1 SWAP2 SUB SWAP1 LOG3 SWAP3 POP POP POP PUSH2 0x15A2 PUSH1 0x1 PUSH1 0x0 SSTORE JUMP JUMPDEST SWAP4 SWAP3 POP POP POP JUMP JUMPDEST PUSH1 0x4 DUP9 PUSH1 0x40 MLOAD PUSH2 0x15B9 SWAP2 SWAP1 PUSH2 0x226B JUMP JUMPDEST SWAP1 DUP2 MSTORE PUSH1 0x40 MLOAD SWAP1 DUP2 SWAP1 SUB PUSH1 0x20 ADD SWAP1 KECCAK256 PUSH1 0x6 ADD SLOAD PUSH1 0xFF AND ISZERO PUSH2 0x161C JUMPI PUSH1 0x40 MLOAD PUSH3 0x461BCD PUSH1 0xE5 SHL DUP2 MSTORE PUSH1 0x20 PUSH1 0x4 DUP3 ADD MSTORE PUSH1 0x1A PUSH1 0x24 DUP3 ADD MSTORE PUSH32 0x56656869636C6520616C72656164792072656769737465726564000000000000 PUSH1 0x44 DUP3 ADD MSTORE PUSH1 0x64 ADD PUSH2 0x40D JUMP JUMPDEST PUSH2 0x162A PUSH4 0x1E13380 TIMESTAMP PUSH2 0x24F9 JUMP JUMPDEST PUSH2 0x1636 SWAP1 PUSH2 0x7B2 PUSH2 0x24CD JUMP JUMPDEST DUP6 GT ISZERO PUSH2 0x1674 JUMPI PUSH1 0x40 MLOAD PUSH3 0x461BCD PUSH1 0xE5 SHL DUP2 MSTORE PUSH1 0x20 PUSH1 0x4 DUP3 ADD MSTORE PUSH1 0xC PUSH1 0x24 DUP3 ADD MSTORE PUSH12 0x24B73B30B634B2103CB2B0B9 PUSH1 0xA1 SHL PUSH1 0x44 DUP3 ADD MSTORE PUSH1 0x64 ADD PUSH2 0x40D JUMP JUMPDEST PUSH1 0x3 SLOAD PUSH1 0x0 SWAP1 PUSH1 0x1 PUSH1 0x1 PUSH1 0xA0 SHL SUB AND PUSH4 0x944A8CA DUP11 DUP8 DUP10 PUSH2 0x1699 PUSH4 0x1E13380 TIMESTAMP PUSH2 0x24F9 JUMP JUMPDEST PUSH2 0x16A5 SWAP1 PUSH2 0x7B2 PUSH2 0x24CD JUMP JUMPDEST PUSH2 0x16AF SWAP2 SWAP1 PUSH2 0x251B JUMP JUMPDEST DUP9 DUP9 DUP9 PUSH1 0x40 MLOAD DUP8 PUSH4 0xFFFFFFFF AND PUSH1 0xE0 SHL DUP2 MSTORE PUSH1 0x4 ADD PUSH2 0x16D3 SWAP7 SWAP6 SWAP5 SWAP4 SWAP3 SWAP2 SWAP1 PUSH2 0x252E JUMP JUMPDEST PUSH1 0x40 DUP1 MLOAD DUP1 DUP4 SUB DUP2 PUSH1 0x0 DUP8 GAS CALL ISZERO DUP1 ISZERO PUSH2 0x16F1 JUMPI RETURNDATASIZE PUSH1 0x0 DUP1 RETURNDATACOPY RETURNDATASIZE PUSH1 0x0 REVERT JUMPDEST POP POP POP POP PUSH1 0x40 MLOAD RETURNDATASIZE PUSH1 0x1F NOT PUSH1 0x1F DUP3 ADD AND DUP3 ADD DUP1 PUSH1 0x40 MSTORE POP DUP2 ADD SWAP1 PUSH2 0x1715 SWAP2 SWAP1 PUSH2 0x256F JUMP JUMPDEST POP PUSH1 0x40 DUP1 MLOAD PUSH2 0x120 DUP2 ADD DUP3 MSTORE DUP12 DUP2 MSTORE PUSH1 0x20 DUP2 ADD DUP12 SWAP1 MSTORE SWAP1 DUP2 ADD DUP10 SWAP1 MSTORE PUSH1 0x60 DUP2 ADD DUP9 SWAP1 MSTORE CALLER PUSH1 0x80 DUP3 ADD MSTORE SWAP1 SWAP2 POP PUSH1 0xA0 DUP2 ADD PUSH1 0x0 DUP2 MSTORE PUSH1 0x20 ADD DUP3 PUSH1 0x2 DUP2 GT ISZERO PUSH2 0x175E JUMPI PUSH2 0x175E PUSH2 0x1F8F JUMP JUMPDEST DUP2 MSTORE TIMESTAMP PUSH1 0x20 DUP3 ADD MSTORE PUSH1 0x1 PUSH1 0x40 SWAP2 DUP3 ADD MSTORE MLOAD PUSH1 0x4 SWAP1 PUSH2 0x177D SWAP1 DUP13 SWAP1 PUSH2 0x226B JUMP JUMPDEST SWAP1 DUP2 MSTORE PUSH1 0x40 MLOAD SWAP1 DUP2 SWAP1 SUB PUSH1 0x20 ADD SWAP1 KECCAK256 DUP2 MLOAD DUP2 SWAP1 PUSH2 0x179A SWAP1 DUP3 PUSH2 0x233B JUMP JUMPDEST POP PUSH1 0x20 DUP3 ADD MLOAD PUSH1 0x1 DUP3 ADD SWAP1 PUSH2 0x17AF SWAP1 DUP3 PUSH2 0x233B JUMP JUMPDEST POP PUSH1 0x40 DUP3 ADD MLOAD PUSH1 0x2 DUP3 ADD SWAP1 PUSH2 0x17C4 SWAP1 DUP3 PUSH2 0x233B JUMP JUMPDEST POP PUSH1 0x60 DUP3 ADD MLOAD PUSH1 0x3 DUP3 ADD SSTORE PUSH1 0x80 DUP3 ADD MLOAD PUSH1 0x4 DUP3 ADD DUP1 SLOAD PUSH1 0x1 PUSH1 0x1 PUSH1 0xA0 SHL SUB SWAP1 SWAP3 AND PUSH1 0x1 PUSH1 0x1 PUSH1 0xA0 SHL SUB NOT DUP4 AND DUP2 OR DUP3 SSTORE PUSH1 0xA0 DUP6 ADD MLOAD SWAP3 PUSH1 0x1 PUSH1 0x1 PUSH1 0xA8 SHL SUB NOT AND OR PUSH1 0x1 PUSH1 0xA0 SHL DUP4 PUSH1 0x2 DUP2 GT ISZERO PUSH2 0x181C JUMPI PUSH2 0x181C PUSH2 0x1F8F JUMP JUMPDEST MUL OR SWAP1 SSTORE POP PUSH1 0xC0 DUP3 ADD MLOAD PUSH1 0x4 DUP3 ADD DUP1 SLOAD PUSH1 0xFF PUSH1 0xA8 SHL NOT AND PUSH1 0x1 PUSH1 0xA8 SHL DUP4 PUSH1 0x2 DUP2 GT ISZERO PUSH2 0x184A JUMPI PUSH2 0x184A PUSH2 0x1F8F JUMP JUMPDEST MUL OR SWAP1 SSTORE POP PUSH1 0xE0 DUP3 ADD MLOAD PUSH1 0x5 DUP3 ADD SSTORE PUSH2 0x100 SWAP1 SWAP2 ADD MLOAD PUSH1 0x6 SWAP1 SWAP2 ADD DUP1 SLOAD PUSH1 0xFF NOT AND SWAP2 ISZERO ISZERO SWAP2 SWAP1 SWAP2 OR SWAP1 SSTORE PUSH1 0x40 MLOAD PUSH32 0xAC60A133922621409C80AB6958B2718DC64D275887639E7694B2AA0D87CBCB02 SWAP1 PUSH2 0x18A8 SWAP1 DUP12 SWAP1 CALLER SWAP1 DUP6 SWAP1 PUSH2 0x259D JUMP JUMPDEST PUSH1 0x40 MLOAD DUP1 SWAP2 SUB SWAP1 LOG1 POP POP POP POP POP POP POP POP POP JUMP JUMPDEST PUSH2 0x18C3 PUSH2 0x18F9 JUMP JUMPDEST PUSH1 0x1 PUSH1 0x1 PUSH1 0xA0 SHL SUB DUP2 AND PUSH2 0x18ED JUMPI PUSH1 0x40 MLOAD PUSH4 0x1E4FBDF7 PUSH1 0xE0 SHL DUP2 MSTORE PUSH1 0x0 PUSH1 0x4 DUP3 ADD MSTORE PUSH1 0x24 ADD PUSH2 0x40D JUMP JUMPDEST PUSH2 0x18F6 DUP2 PUSH2 0x1B26 JUMP JUMPDEST POP JUMP JUMPDEST PUSH1 0x1 SLOAD PUSH1 0x1 PUSH1 0x1 PUSH1 0xA0 SHL SUB AND CALLER EQ PUSH2 0x605 JUMPI PUSH1 0x40 MLOAD PUSH4 0x118CDAA7 PUSH1 0xE0 SHL DUP2 MSTORE CALLER PUSH1 0x4 DUP3 ADD MSTORE PUSH1 0x24 ADD PUSH2 0x40D JUMP JUMPDEST PUSH1 0x5 DUP2 ADD SLOAD PUSH2 0x100 SWAP1 DIV PUSH1 0xFF AND ISZERO PUSH2 0x1975 JUMPI PUSH1 0x40 MLOAD PUSH3 0x461BCD PUSH1 0xE5 SHL DUP2 MSTORE PUSH1 0x20 PUSH1 0x4 DUP3 ADD MSTORE PUSH1 0x12 PUSH1 0x24 DUP3 ADD MSTORE PUSH18 0x10DB185A5B48185B1C9958591E481C185A59 PUSH1 0x72 SHL PUSH1 0x44 DUP3 ADD MSTORE PUSH1 0x64 ADD PUSH2 0x40D JUMP JUMPDEST DUP1 PUSH1 0x4 ADD SLOAD SELFBALANCE LT ISZERO PUSH2 0x19C9 JUMPI PUSH1 0x40 MLOAD PUSH3 0x461BCD PUSH1 0xE5 SHL DUP2 MSTORE PUSH1 0x20 PUSH1 0x4 DUP3 ADD MSTORE PUSH1 0x1D PUSH1 0x24 DUP3 ADD MSTORE PUSH32 0x496E73756666696369656E7420636F6E74726163742062616C616E6365000000 PUSH1 0x44 DUP3 ADD MSTORE PUSH1 0x64 ADD PUSH2 0x40D JUMP JUMPDEST PUSH1 0x2 SLOAD PUSH1 0x1 DUP3 ADD SLOAD PUSH1 0x40 MLOAD PUSH4 0xCA009021 PUSH1 0xE0 SHL DUP2 MSTORE PUSH1 0x4 DUP2 ADD SWAP2 SWAP1 SWAP2 MSTORE PUSH1 0x0 SWAP2 PUSH1 0x1 PUSH1 0x1 PUSH1 0xA0 SHL SUB AND SWAP1 PUSH4 0xCA009021 SWAP1 PUSH1 0x24 ADD PUSH1 0x20 PUSH1 0x40 MLOAD DUP1 DUP4 SUB DUP2 DUP7 GAS STATICCALL ISZERO DUP1 ISZERO PUSH2 0x1A19 JUMPI RETURNDATASIZE PUSH1 0x0 DUP1 RETURNDATACOPY RETURNDATASIZE PUSH1 0x0 REVERT JUMPDEST POP POP POP POP PUSH1 0x40 MLOAD RETURNDATASIZE PUSH1 0x1F NOT PUSH1 0x1F DUP3 ADD AND DUP3 ADD DUP1 PUSH1 0x40 MSTORE POP DUP2 ADD SWAP1 PUSH2 0x1A3D SWAP2 SWAP1 PUSH2 0x241D JUMP JUMPDEST PUSH1 0x5 DUP4 ADD DUP1 SLOAD PUSH2 0xFF00 NOT AND PUSH2 0x100 OR SWAP1 SSTORE PUSH1 0x4 DUP4 ADD SLOAD PUSH1 0x40 MLOAD SWAP2 SWAP3 POP PUSH1 0x0 SWAP2 PUSH1 0x1 PUSH1 0x1 PUSH1 0xA0 SHL SUB DUP5 AND SWAP2 SWAP1 DUP4 DUP2 DUP2 DUP2 DUP6 DUP8 GAS CALL SWAP3 POP POP POP RETURNDATASIZE DUP1 PUSH1 0x0 DUP2 EQ PUSH2 0x1AA0 JUMPI PUSH1 0x40 MLOAD SWAP2 POP PUSH1 0x1F NOT PUSH1 0x3F RETURNDATASIZE ADD AND DUP3 ADD PUSH1 0x40 MSTORE RETURNDATASIZE DUP3 MSTORE RETURNDATASIZE PUSH1 0x0 PUSH1 0x20 DUP5 ADD RETURNDATACOPY PUSH2 0x1AA5 JUMP JUMPDEST PUSH1 0x60 SWAP2 POP JUMPDEST POP POP SWAP1 POP DUP1 PUSH2 0x1AEF JUMPI PUSH1 0x40 MLOAD PUSH3 0x461BCD PUSH1 0xE5 SHL DUP2 MSTORE PUSH1 0x20 PUSH1 0x4 DUP3 ADD MSTORE PUSH1 0x16 PUSH1 0x24 DUP3 ADD MSTORE PUSH22 0x11985A5B1959081D1BC81CD95B99081C185E5B595B9D PUSH1 0x52 SHL PUSH1 0x44 DUP3 ADD MSTORE PUSH1 0x64 ADD PUSH2 0x40D JUMP JUMPDEST DUP3 SLOAD PUSH1 0x4 DUP5 ADD SLOAD PUSH1 0x40 MLOAD SWAP1 DUP2 MSTORE PUSH32 0xB0727183796E52C5BB00A257C1EB36D8E94DBEE5D6D87E259287E3372AE39ACE SWAP1 PUSH1 0x20 ADD PUSH2 0x5E6 JUMP JUMPDEST PUSH1 0x1 DUP1 SLOAD PUSH1 0x1 PUSH1 0x1 PUSH1 0xA0 SHL SUB DUP4 DUP2 AND PUSH1 0x1 PUSH1 0x1 PUSH1 0xA0 SHL SUB NOT DUP4 AND DUP2 OR SWAP1 SWAP4 SSTORE PUSH1 0x40 MLOAD SWAP2 AND SWAP2 SWAP1 DUP3 SWAP1 PUSH32 0x8BE0079C531659141344CD1FD0A4F28419497F9722A3DAAFE3B4186F6B6457E0 SWAP1 PUSH1 0x0 SWAP1 LOG3 POP POP JUMP JUMPDEST PUSH1 0x2 PUSH1 0x0 SLOAD SUB PUSH2 0x1B9B JUMPI PUSH1 0x40 MLOAD PUSH4 0x3EE5AEB5 PUSH1 0xE0 SHL DUP2 MSTORE PUSH1 0x4 ADD PUSH1 0x40 MLOAD DUP1 SWAP2 SUB SWAP1 REVERT JUMPDEST PUSH1 0x2 PUSH1 0x0 SSTORE JUMP JUMPDEST PUSH4 0x4E487B71 PUSH1 0xE0 SHL PUSH1 0x0 MSTORE PUSH1 0x41 PUSH1 0x4 MSTORE PUSH1 0x24 PUSH1 0x0 REVERT JUMPDEST PUSH1 0x0 DUP3 PUSH1 0x1F DUP4 ADD SLT PUSH2 0x1BC9 JUMPI PUSH1 0x0 DUP1 REVERT JUMPDEST DUP2 CALLDATALOAD PUSH8 0xFFFFFFFFFFFFFFFF DUP1 DUP3 GT ISZERO PUSH2 0x1BE4 JUMPI PUSH2 0x1BE4 PUSH2 0x1BA2 JUMP JUMPDEST PUSH1 0x40 MLOAD PUSH1 0x1F DUP4 ADD PUSH1 0x1F NOT SWAP1 DUP2 AND PUSH1 0x3F ADD AND DUP2 ADD SWAP1 DUP3 DUP3 GT DUP2 DUP4 LT OR ISZERO PUSH2 0x1C0C JUMPI PUSH2 0x1C0C PUSH2 0x1BA2 JUMP JUMPDEST DUP2 PUSH1 0x40 MSTORE DUP4 DUP2 MSTORE DUP7 PUSH1 0x20 DUP6 DUP9 ADD ADD GT ISZERO PUSH2 0x1C25 JUMPI PUSH1 0x0 DUP1 REVERT JUMPDEST DUP4 PUSH1 0x20 DUP8 ADD PUSH1 0x20 DUP4 ADD CALLDATACOPY PUSH1 0x0 PUSH1 0x20 DUP6 DUP4 ADD ADD MSTORE DUP1 SWAP5 POP POP POP POP POP SWAP3 SWAP2 POP POP JUMP JUMPDEST PUSH1 0x3 DUP2 LT PUSH2 0x18F6 JUMPI PUSH1 0x0 DUP1 REVERT JUMPDEST PUSH1 0x0 DUP1 PUSH1 0x40 DUP4 DUP6 SUB SLT ISZERO PUSH2 0x1C65 JUMPI PUSH1 0x0 DUP1 REVERT JUMPDEST DUP3 CALLDATALOAD PUSH8 0xFFFFFFFFFFFFFFFF DUP2 GT ISZERO PUSH2 0x1C7C JUMPI PUSH1 0x0 DUP1 REVERT JUMPDEST PUSH2 0x1C88 DUP6 DUP3 DUP7 ADD PUSH2 0x1BB8 JUMP JUMPDEST SWAP3 POP POP PUSH1 0x20 DUP4 ADD CALLDATALOAD PUSH2 0x1C99 DUP2 PUSH2 0x1C45 JUMP JUMPDEST DUP1 SWAP2 POP POP SWAP3 POP SWAP3 SWAP1 POP JUMP JUMPDEST DUP1 CALLDATALOAD DUP1 ISZERO ISZERO DUP2 EQ PUSH2 0x1CB4 JUMPI PUSH1 0x0 DUP1 REVERT JUMPDEST SWAP2 SWAP1 POP JUMP JUMPDEST PUSH1 0x0 DUP1 PUSH1 0x40 DUP4 DUP6 SUB SLT ISZERO PUSH2 0x1CCC JUMPI PUSH1 0x0 DUP1 REVERT JUMPDEST DUP3 CALLDATALOAD SWAP2 POP PUSH2 0x1CDC PUSH1 0x20 DUP5 ADD PUSH2 0x1CA4 JUMP JUMPDEST SWAP1 POP SWAP3 POP SWAP3 SWAP1 POP JUMP JUMPDEST PUSH1 0x0 PUSH1 0x20 DUP3 DUP5 SUB SLT ISZERO PUSH2 0x1CF7 JUMPI PUSH1 0x0 DUP1 REVERT JUMPDEST DUP2 CALLDATALOAD PUSH8 0xFFFFFFFFFFFFFFFF DUP2 GT ISZERO PUSH2 0x1D0E JUMPI PUSH1 0x0 DUP1 REVERT JUMPDEST PUSH2 0xDC4 DUP5 DUP3 DUP6 ADD PUSH2 0x1BB8 JUMP JUMPDEST PUSH1 0x0 JUMPDEST DUP4 DUP2 LT ISZERO PUSH2 0x1D35 JUMPI DUP2 DUP2 ADD MLOAD DUP4 DUP3 ADD MSTORE PUSH1 0x20 ADD PUSH2 0x1D1D JUMP JUMPDEST POP POP PUSH1 0x0 SWAP2 ADD MSTORE JUMP JUMPDEST PUSH1 0x0 DUP2 MLOAD DUP1 DUP5 MSTORE PUSH2 0x1D56 DUP2 PUSH1 0x20 DUP7 ADD PUSH1 0x20 DUP7 ADD PUSH2 0x1D1A JUMP JUMPDEST PUSH1 0x1F ADD PUSH1 0x1F NOT AND SWAP3 SWAP1 SWAP3 ADD PUSH1 0x20 ADD SWAP3 SWAP2 POP POP JUMP JUMPDEST PUSH1 0x0 PUSH2 0x100 DUP1 DUP4 MSTORE PUSH2 0x1D7E DUP2 DUP5 ADD DUP13 PUSH2 0x1D3E JUMP JUMPDEST SWAP1 POP DUP3 DUP2 SUB PUSH1 0x20 DUP5 ADD MSTORE PUSH2 0x1D92 DUP2 DUP12 PUSH2 0x1D3E JUMP JUMPDEST SWAP1 POP DUP3 DUP2 SUB PUSH1 0x40 DUP5 ADD MSTORE PUSH2 0x1DA6 DUP2 DUP11 PUSH2 0x1D3E JUMP JUMPDEST SWAP1 POP DUP3 DUP2 SUB PUSH1 0x60 DUP5 ADD MSTORE PUSH2 0x1DBA DUP2 DUP10 PUSH2 0x1D3E JUMP JUMPDEST SWAP1 POP DUP3 DUP2 SUB PUSH1 0x80 DUP5 ADD MSTORE PUSH2 0x1DCE DUP2 DUP9 PUSH2 0x1D3E JUMP JUMPDEST SWAP1 POP DUP3 DUP2 SUB PUSH1 0xA0 DUP5 ADD MSTORE PUSH2 0x1DE2 DUP2 DUP8 PUSH2 0x1D3E JUMP JUMPDEST PUSH1 0xC0 DUP5 ADD SWAP6 SWAP1 SWAP6 MSTORE POP POP SWAP1 ISZERO ISZERO PUSH1 0xE0 SWAP1 SWAP2 ADD MSTORE SWAP7 SWAP6 POP POP POP POP POP POP JUMP JUMPDEST PUSH1 0x0 DUP1 PUSH1 0x0 DUP1 PUSH1 0x0 DUP1 PUSH1 0x0 PUSH1 0xE0 DUP9 DUP11 SUB SLT ISZERO PUSH2 0x1E1A JUMPI PUSH1 0x0 DUP1 REVERT JUMPDEST DUP8 CALLDATALOAD PUSH8 0xFFFFFFFFFFFFFFFF DUP1 DUP3 GT ISZERO PUSH2 0x1E32 JUMPI PUSH1 0x0 DUP1 REVERT JUMPDEST PUSH2 0x1E3E DUP12 DUP4 DUP13 ADD PUSH2 0x1BB8 JUMP JUMPDEST SWAP9 POP PUSH1 0x20 DUP11 ADD CALLDATALOAD SWAP2 POP DUP1 DUP3 GT ISZERO PUSH2 0x1E54 JUMPI PUSH1 0x0 DUP1 REVERT JUMPDEST PUSH2 0x1E60 DUP12 DUP4 DUP13 ADD PUSH2 0x1BB8 JUMP JUMPDEST SWAP8 POP PUSH1 0x40 DUP11 ADD CALLDATALOAD SWAP2 POP DUP1 DUP3 GT ISZERO PUSH2 0x1E76 JUMPI PUSH1 0x0 DUP1 REVERT JUMPDEST PUSH2 0x1E82 DUP12 DUP4 DUP13 ADD PUSH2 0x1BB8 JUMP JUMPDEST SWAP7 POP PUSH1 0x60 DUP11 ADD CALLDATALOAD SWAP2 POP DUP1 DUP3 GT ISZERO PUSH2 0x1E98 JUMPI PUSH1 0x0 DUP1 REVERT JUMPDEST PUSH2 0x1EA4 DUP12 DUP4 DUP13 ADD PUSH2 0x1BB8 JUMP JUMPDEST SWAP6 POP PUSH1 0x80 DUP11 ADD CALLDATALOAD SWAP2 POP DUP1 DUP3 GT ISZERO PUSH2 0x1EBA JUMPI PUSH1 0x0 DUP1 REVERT JUMPDEST PUSH2 0x1EC6 DUP12 DUP4 DUP13 ADD PUSH2 0x1BB8 JUMP JUMPDEST SWAP5 POP PUSH1 0xA0 DUP11 ADD CALLDATALOAD SWAP2 POP DUP1 DUP3 GT ISZERO PUSH2 0x1EDC JUMPI PUSH1 0x0 DUP1 REVERT JUMPDEST PUSH2 0x1EE8 DUP12 DUP4 DUP13 ADD PUSH2 0x1BB8 JUMP JUMPDEST SWAP4 POP PUSH1 0xC0 DUP11 ADD CALLDATALOAD SWAP2 POP DUP1 DUP3 GT ISZERO PUSH2 0x1EFE JUMPI PUSH1 0x0 DUP1 REVERT JUMPDEST POP PUSH2 0x1F0B DUP11 DUP3 DUP12 ADD PUSH2 0x1BB8 JUMP JUMPDEST SWAP2 POP POP SWAP3 SWAP6 SWAP9 SWAP2 SWAP5 SWAP8 POP SWAP3 SWAP6 POP JUMP JUMPDEST PUSH1 0x0 DUP1 PUSH1 0x0 DUP1 PUSH1 0x80 DUP6 DUP8 SUB SLT ISZERO PUSH2 0x1F30 JUMPI PUSH1 0x0 DUP1 REVERT JUMPDEST DUP5 CALLDATALOAD SWAP4 POP PUSH1 0x20 DUP6 ADD CALLDATALOAD PUSH8 0xFFFFFFFFFFFFFFFF DUP1 DUP3 GT ISZERO PUSH2 0x1F4F JUMPI PUSH1 0x0 DUP1 REVERT JUMPDEST PUSH2 0x1F5B DUP9 DUP4 DUP10 ADD PUSH2 0x1BB8 JUMP JUMPDEST SWAP5 POP PUSH1 0x40 DUP8 ADD CALLDATALOAD SWAP2 POP DUP1 DUP3 GT ISZERO PUSH2 0x1F71 JUMPI PUSH1 0x0 DUP1 REVERT JUMPDEST POP PUSH2 0x1F7E DUP8 DUP3 DUP9 ADD PUSH2 0x1BB8 JUMP JUMPDEST SWAP5 SWAP8 SWAP4 SWAP7 POP SWAP4 SWAP5 PUSH1 0x60 ADD CALLDATALOAD SWAP4 POP POP POP JUMP JUMPDEST PUSH4 0x4E487B71 PUSH1 0xE0 SHL PUSH1 0x0 MSTORE PUSH1 0x21 PUSH1 0x4 MSTORE PUSH1 0x24 PUSH1 0x0 REVERT JUMPDEST PUSH1 0x3 DUP2 LT PUSH2 0x18F6 JUMPI PUSH4 0x4E487B71 PUSH1 0xE0 SHL PUSH1 0x0 MSTORE PUSH1 0x21 PUSH1 0x4 MSTORE PUSH1 0x24 PUSH1 0x0 REVERT JUMPDEST PUSH1 0x0 PUSH2 0x120 DUP1 DUP4 MSTORE PUSH2 0x1FD7 DUP2 DUP5 ADD DUP14 PUSH2 0x1D3E JUMP JUMPDEST SWAP1 POP DUP3 DUP2 SUB PUSH1 0x20 DUP5 ADD MSTORE PUSH2 0x1FEB DUP2 DUP13 PUSH2 0x1D3E JUMP JUMPDEST SWAP1 POP DUP3 DUP2 SUB PUSH1 0x40 DUP5 ADD MSTORE PUSH2 0x1FFF DUP2 DUP12 PUSH2 0x1D3E JUMP JUMPDEST PUSH1 0x60 DUP5 ADD DUP11 SWAP1 MSTORE PUSH1 0x1 PUSH1 0x1 PUSH1 0xA0 SHL SUB DUP10 AND PUSH1 0x80 DUP6 ADD MSTORE SWAP2 POP PUSH2 0x2022 SWAP1 POP DUP7 PUSH2 0x1FA5 JUMP JUMPDEST DUP6 PUSH1 0xA0 DUP4 ADD MSTORE PUSH2 0x2031 DUP6 PUSH2 0x1FA5 JUMP JUMPDEST DUP5 PUSH1 0xC0 DUP4 ADD MSTORE DUP4 PUSH1 0xE0 DUP4 ADD MSTORE DUP3 ISZERO ISZERO PUSH2 0x100 DUP4 ADD MSTORE SWAP11 SWAP10 POP POP POP POP POP POP POP POP POP POP JUMP JUMPDEST PUSH1 0x0 PUSH1 0x20 DUP3 DUP5 SUB SLT ISZERO PUSH2 0x2066 JUMPI PUSH1 0x0 DUP1 REVERT JUMPDEST POP CALLDATALOAD SWAP2 SWAP1 POP JUMP JUMPDEST DUP8 DUP2 MSTORE DUP7 PUSH1 0x20 DUP3 ADD MSTORE PUSH1 0xE0 PUSH1 0x40 DUP3 ADD MSTORE PUSH1 0x0 PUSH2 0x208C PUSH1 0xE0 DUP4 ADD DUP9 PUSH2 0x1D3E JUMP JUMPDEST DUP3 DUP2 SUB PUSH1 0x60 DUP5 ADD MSTORE PUSH2 0x209E DUP2 DUP9 PUSH2 0x1D3E JUMP JUMPDEST PUSH1 0x80 DUP5 ADD SWAP7 SWAP1 SWAP7 MSTORE POP POP SWAP2 ISZERO ISZERO PUSH1 0xA0 DUP4 ADD MSTORE ISZERO ISZERO PUSH1 0xC0 SWAP1 SWAP2 ADD MSTORE SWAP5 SWAP4 POP POP POP POP JUMP JUMPDEST DUP6 DUP2 MSTORE PUSH1 0x20 DUP2 ADD DUP6 SWAP1 MSTORE PUSH1 0x40 DUP2 ADD DUP5 SWAP1 MSTORE DUP3 ISZERO ISZERO PUSH1 0x60 DUP3 ADD MSTORE PUSH1 0xA0 DUP2 ADD PUSH2 0x20E6 DUP4 PUSH2 0x1FA5 JUMP JUMPDEST DUP3 PUSH1 0x80 DUP4 ADD MSTORE SWAP7 SWAP6 POP POP POP POP POP POP JUMP JUMPDEST PUSH1 0x0 DUP1 PUSH1 0x0 PUSH1 0x60 DUP5 DUP7 SUB SLT ISZERO PUSH2 0x210B JUMPI PUSH1 0x0 DUP1 REVERT JUMPDEST DUP4 CALLDATALOAD PUSH8 0xFFFFFFFFFFFFFFFF DUP2 GT ISZERO PUSH2 0x2122 JUMPI PUSH1 0x0 DUP1 REVERT JUMPDEST PUSH2 0x212E DUP7 DUP3 DUP8 ADD PUSH2 0x1BB8 JUMP JUMPDEST SWAP7 PUSH1 0x20 DUP7 ADD CALLDATALOAD SWAP7 POP PUSH1 0x40 SWAP1 SWAP6 ADD CALLDATALOAD SWAP5 SWAP4 POP POP POP POP JUMP JUMPDEST DUP1 CALLDATALOAD PUSH1 0xFF DUP2 AND DUP2 EQ PUSH2 0x1CB4 JUMPI PUSH1 0x0 DUP1 REVERT JUMPDEST PUSH1 0x0 DUP1 PUSH1 0x0 DUP1 PUSH1 0x0 DUP1 PUSH1 0x0 DUP1 PUSH2 0x100 DUP10 DUP12 SUB SLT ISZERO PUSH2 0x2172 JUMPI PUSH1 0x0 DUP1 REVERT JUMPDEST DUP9 CALLDATALOAD PUSH8 0xFFFFFFFFFFFFFFFF DUP1 DUP3 GT ISZERO PUSH2 0x218A JUMPI PUSH1 0x0 DUP1 REVERT JUMPDEST PUSH2 0x2196 DUP13 DUP4 DUP14 ADD PUSH2 0x1BB8 JUMP JUMPDEST SWAP10 POP PUSH1 0x20 DUP12 ADD CALLDATALOAD SWAP2 POP DUP1 DUP3 GT ISZERO PUSH2 0x21AC JUMPI PUSH1 0x0 DUP1 REVERT JUMPDEST PUSH2 0x21B8 DUP13 DUP4 DUP14 ADD PUSH2 0x1BB8 JUMP JUMPDEST SWAP9 POP PUSH1 0x40 DUP12 ADD CALLDATALOAD SWAP2 POP DUP1 DUP3 GT ISZERO PUSH2 0x21CE JUMPI PUSH1 0x0 DUP1 REVERT JUMPDEST POP PUSH2 0x21DB DUP12 DUP3 DUP13 ADD PUSH2 0x1BB8 JUMP JUMPDEST SWAP7 POP POP PUSH1 0x60 DUP10 ADD CALLDATALOAD SWAP5 POP PUSH1 0x80 DUP10 ADD CALLDATALOAD SWAP4 POP PUSH1 0xA0 DUP10 ADD CALLDATALOAD SWAP3 POP PUSH2 0x21FF PUSH1 0xC0 DUP11 ADD PUSH2 0x2144 JUMP JUMPDEST SWAP2 POP PUSH2 0x220D PUSH1 0xE0 DUP11 ADD PUSH2 0x1CA4 JUMP JUMPDEST SWAP1 POP SWAP3 SWAP6 SWAP9 POP SWAP3 SWAP6 SWAP9 SWAP1 SWAP4 SWAP7 POP JUMP JUMPDEST PUSH1 0x1 PUSH1 0x1 PUSH1 0xA0 SHL SUB DUP2 AND DUP2 EQ PUSH2 0x18F6 JUMPI PUSH1 0x0 DUP1 REVERT JUMPDEST PUSH1 0x0 PUSH1 0x20 DUP3 DUP5 SUB SLT ISZERO PUSH2 0x2243 JUMPI PUSH1 0x0 DUP1 REVERT JUMPDEST DUP2 CALLDATALOAD PUSH2 0x15A2 DUP2 PUSH2 0x221C JUMP JUMPDEST PUSH1 0x0 PUSH1 0x20 DUP3 DUP5 SUB SLT ISZERO PUSH2 0x2260 JUMPI PUSH1 0x0 DUP1 REVERT JUMPDEST DUP2 CALLDATALOAD PUSH2 0x15A2 DUP2 PUSH2 0x1C45 JUMP JUMPDEST PUSH1 0x0 DUP3 MLOAD PUSH2 0x227D DUP2 DUP5 PUSH1 0x20 DUP8 ADD PUSH2 0x1D1A JUMP JUMPDEST SWAP2 SWAP1 SWAP2 ADD SWAP3 SWAP2 POP POP JUMP JUMPDEST PUSH1 0x40 DUP2 MSTORE PUSH1 0x0 PUSH2 0x229A PUSH1 0x40 DUP4 ADD DUP6 PUSH2 0x1D3E JUMP JUMPDEST SWAP1 POP PUSH2 0x22A5 DUP4 PUSH2 0x1FA5 JUMP JUMPDEST DUP3 PUSH1 0x20 DUP4 ADD MSTORE SWAP4 SWAP3 POP POP POP JUMP JUMPDEST PUSH1 0x1 DUP2 DUP2 SHR SWAP1 DUP3 AND DUP1 PUSH2 0x22C6 JUMPI PUSH1 0x7F DUP3 AND SWAP2 POP JUMPDEST PUSH1 0x20 DUP3 LT DUP2 SUB PUSH2 0x22E6 JUMPI PUSH4 0x4E487B71 PUSH1 0xE0 SHL PUSH1 0x0 MSTORE PUSH1 0x22 PUSH1 0x4 MSTORE PUSH1 0x24 PUSH1 0x0 REVERT JUMPDEST POP SWAP2 SWAP1 POP JUMP JUMPDEST PUSH1 0x1F DUP3 GT ISZERO PUSH2 0x2336 JUMPI PUSH1 0x0 DUP2 DUP2 MSTORE PUSH1 0x20 DUP2 KECCAK256 PUSH1 0x1F DUP6 ADD PUSH1 0x5 SHR DUP2 ADD PUSH1 0x20 DUP7 LT ISZERO PUSH2 0x2313 JUMPI POP DUP1 JUMPDEST PUSH1 0x1F DUP6 ADD PUSH1 0x5 SHR DUP3 ADD SWAP2 POP JUMPDEST DUP2 DUP2 LT ISZERO PUSH2 0x2332 JUMPI DUP3 DUP2 SSTORE PUSH1 0x1 ADD PUSH2 0x231F JUMP JUMPDEST POP POP POP JUMPDEST POP POP POP JUMP JUMPDEST DUP2 MLOAD PUSH8 0xFFFFFFFFFFFFFFFF DUP2 GT ISZERO PUSH2 0x2355 JUMPI PUSH2 0x2355 PUSH2 0x1BA2 JUMP JUMPDEST PUSH2 0x2369 DUP2 PUSH2 0x2363 DUP5 SLOAD PUSH2 0x22B2 JUMP JUMPDEST DUP5 PUSH2 0x22EC JUMP JUMPDEST PUSH1 0x20 DUP1 PUSH1 0x1F DUP4 GT PUSH1 0x1 DUP2 EQ PUSH2 0x239E JUMPI PUSH1 0x0 DUP5 ISZERO PUSH2 0x2386 JUMPI POP DUP6 DUP4 ADD MLOAD JUMPDEST PUSH1 0x0 NOT PUSH1 0x3 DUP7 SWAP1 SHL SHR NOT AND PUSH1 0x1 DUP6 SWAP1 SHL OR DUP6 SSTORE PUSH2 0x2332 JUMP JUMPDEST PUSH1 0x0 DUP6 DUP2 MSTORE PUSH1 0x20 DUP2 KECCAK256 PUSH1 0x1F NOT DUP7 AND SWAP2 JUMPDEST DUP3 DUP2 LT ISZERO PUSH2 0x23CD JUMPI DUP9 DUP7 ADD MLOAD DUP3 SSTORE SWAP5 DUP5 ADD SWAP5 PUSH1 0x1 SWAP1 SWAP2 ADD SWAP1 DUP5 ADD PUSH2 0x23AE JUMP JUMPDEST POP DUP6 DUP3 LT ISZERO PUSH2 0x23EB JUMPI DUP8 DUP6 ADD MLOAD PUSH1 0x0 NOT PUSH1 0x3 DUP9 SWAP1 SHL PUSH1 0xF8 AND SHR NOT AND DUP2 SSTORE JUMPDEST POP POP POP POP POP PUSH1 0x1 SWAP1 DUP2 SHL ADD SWAP1 SSTORE POP JUMP JUMPDEST PUSH1 0x40 DUP2 MSTORE PUSH1 0x0 PUSH2 0x240E PUSH1 0x40 DUP4 ADD DUP6 PUSH2 0x1D3E JUMP JUMPDEST SWAP1 POP DUP3 PUSH1 0x20 DUP4 ADD MSTORE SWAP4 SWAP3 POP POP POP JUMP JUMPDEST PUSH1 0x0 PUSH1 0x20 DUP3 DUP5 SUB SLT ISZERO PUSH2 0x242F JUMPI PUSH1 0x0 DUP1 REVERT JUMPDEST DUP2 MLOAD PUSH2 0x15A2 DUP2 PUSH2 0x221C JUMP JUMPDEST PUSH4 0x4E487B71 PUSH1 0xE0 SHL PUSH1 0x0 MSTORE PUSH1 0x11 PUSH1 0x4 MSTORE PUSH1 0x24 PUSH1 0x0 REVERT JUMPDEST PUSH1 0x0 PUSH1 0x1 DUP3 ADD PUSH2 0x2462 JUMPI PUSH2 0x2462 PUSH2 0x243A JUMP JUMPDEST POP PUSH1 0x1 ADD SWAP1 JUMP JUMPDEST PUSH1 0x0 PUSH1 0x20 DUP3 DUP5 SUB SLT ISZERO PUSH2 0x247B JUMPI PUSH1 0x0 DUP1 REVERT JUMPDEST POP MLOAD SWAP2 SWAP1 POP JUMP JUMPDEST PUSH1 0x1 PUSH1 0x1 PUSH1 0xA0 SHL SUB DUP7 AND DUP2 MSTORE PUSH1 0xA0 PUSH1 0x20 DUP3 ADD DUP2 SWAP1 MSTORE PUSH1 0x0 SWAP1 PUSH2 0x24A6 SWAP1 DUP4 ADD DUP8 PUSH2 0x1D3E JUMP JUMPDEST SWAP1 POP PUSH2 0x24B1 DUP6 PUSH2 0x1FA5 JUMP JUMPDEST DUP5 PUSH1 0x40 DUP4 ADD MSTORE DUP4 PUSH1 0x60 DUP4 ADD MSTORE DUP3 PUSH1 0x80 DUP4 ADD MSTORE SWAP7 SWAP6 POP POP POP POP POP POP JUMP JUMPDEST DUP1 DUP3 ADD DUP1 DUP3 GT ISZERO PUSH2 0x24E0 JUMPI PUSH2 0x24E0 PUSH2 0x243A JUMP JUMPDEST SWAP3 SWAP2 POP POP JUMP JUMPDEST PUSH1 0x20 DUP2 MSTORE PUSH1 0x0 PUSH2 0x15A2 PUSH1 0x20 DUP4 ADD DUP5 PUSH2 0x1D3E JUMP JUMPDEST PUSH1 0x0 DUP3 PUSH2 0x2516 JUMPI PUSH4 0x4E487B71 PUSH1 0xE0 SHL PUSH1 0x0 MSTORE PUSH1 0x12 PUSH1 0x4 MSTORE PUSH1 0x24 PUSH1 0x0 REVERT JUMPDEST POP DIV SWAP1 JUMP JUMPDEST DUP2 DUP2 SUB DUP2 DUP2 GT ISZERO PUSH2 0x24E0 JUMPI PUSH2 0x24E0 PUSH2 0x243A JUMP JUMPDEST PUSH1 0xC0 DUP2 MSTORE PUSH1 0x0 PUSH2 0x2541 PUSH1 0xC0 DUP4 ADD DUP10 PUSH2 0x1D3E JUMP JUMPDEST PUSH1 0x20 DUP4 ADD SWAP8 SWAP1 SWAP8 MSTORE POP PUSH1 0x40 DUP2 ADD SWAP5 SWAP1 SWAP5 MSTORE PUSH1 0x60 DUP5 ADD SWAP3 SWAP1 SWAP3 MSTORE PUSH1 0xFF AND PUSH1 0x80 DUP4 ADD MSTORE ISZERO ISZERO PUSH1 0xA0 SWAP1 SWAP2 ADD MSTORE SWAP2 SWAP1 POP JUMP JUMPDEST PUSH1 0x0 DUP1 PUSH1 0x40 DUP4 DUP6 SUB SLT ISZERO PUSH2 0x2582 JUMPI PUSH1 0x0 DUP1 REVERT JUMPDEST DUP3 MLOAD PUSH2 0x258D DUP2 PUSH2 0x1C45 JUMP JUMPDEST PUSH1 0x20 SWAP4 SWAP1 SWAP4 ADD MLOAD SWAP3 SWAP5 SWAP3 SWAP4 POP POP POP JUMP JUMPDEST PUSH1 0x60 DUP2 MSTORE PUSH1 0x0 PUSH2 0x25B0 PUSH1 0x60 DUP4 ADD DUP7 PUSH2 0x1D3E JUMP JUMPDEST PUSH1 0x1 PUSH1 0x1 PUSH1 0xA0 SHL SUB DUP6 AND PUSH1 0x20 DUP5 ADD MSTORE SWAP1 POP PUSH2 0x25CA DUP4 PUSH2 0x1FA5 JUMP JUMPDEST DUP3 PUSH1 0x40 DUP4 ADD MSTORE SWAP5 SWAP4 POP POP POP POP JUMP INVALID LOG2 PUSH5 0x6970667358 0x22 SLT KECCAK256 LOG3 0xA9 SWAP12 0xAA DIV 0x25 SWAP7 0xD6 0xD3 ADDMOD SWAP7 SWAP10 0x4F SLT SWAP9 PUSH21 0x4FEEC4F3087B3DC33B602C9844A578A764736F6C63 NUMBER STOP ADDMOD EQ STOP CALLER "},"methodIdentifiers":{"claims(uint256)":"a888c2cd","coverageLimits(uint8)":"fedda0e4","createPolicy(string,uint256,uint256)":"e93b2a34","owner()":"8da5cb5b","policies(uint256)":"d3e89483","policyNFT()":"af02808a","processClaim(uint256,bool)":"35446def","registerVehicle(string,string,string,uint256,uint256,uint256,uint8,bool)":"f21ad98b","renounceOwnership()":"715018a6","riskAssessment()":"70a1a7d5","submitClaim(uint256,string,string,uint256)":"8f749e15","transferOwnership(address)":"f2fde38b","updateVerificationStatus(string,uint8)":"1ca2cf28","uploadVehiclePhotos(string,string,string,string,string,string,string)":"7daaaaf3","vehiclePhotos(string)":"744007fd","vehicles(string)":"976de5c5"}}}}}