{"contracts/PolicyNFT.sol":{"PolicyNFT":{"abi":[{"inputs":[],"stateMutability":"nonpayable","type":"constructor"},{"inputs":[{"internalType":"address","name":"sender","type":"address"},{"internalType":"uint256","name":"tokenId","type":"uint256"},{"internalType":"address","name":"owner","type":"address"}],"name":"ERC721IncorrectOwner","type":"error"},{"inputs":[{"internalType":"address","name":"operator","type":"address"},{"internalType":"uint256","name":"tokenId","type":"uint256"}],"name":"ERC721InsufficientApproval","type":"error"},{"inputs":[{"internalType":"address","name":"approver","type":"address"}],"name":"ERC721InvalidApprover","type":"error"},{"inputs":[{"internalType":"address","name":"operator","type":"address"}],"name":"ERC721InvalidOperator","type":"error"},{"inputs":[{"internalType":"address","name":"owner","type":"address"}],"name":"ERC721InvalidOwner","type":"error"},{"inputs":[{"internalType":"address","name":"receiver","type":"address"}],"name":"ERC721InvalidReceiver","type":"error"},{"inputs":[{"internalType":"address","name":"sender","type":"address"}],"name":"ERC721InvalidSender","type":"error"},{"inputs":[{"internalType":"uint256","name":"tokenId","type":"uint256"}],"name":"ERC721NonexistentToken","type":"error"},{"inputs":[{"internalType":"address","name":"owner","type":"address"}],"name":"OwnableInvalidOwner","type":"error"},{"inputs":[{"internalType":"address","name":"account","type":"address"}],"name":"OwnableUnauthorizedAccount","type":"error"},{"anonymous":false,"inputs":[{"indexed":true,"internalType":"address","name":"owner","type":"address"},{"indexed":true,"internalType":"address","name":"approved","type":"address"},{"indexed":true,"internalType":"uint256","name":"tokenId","type":"uint256"}],"name":"Approval","type":"event"},{"anonymous":false,"inputs":[{"indexed":true,"internalType":"address","name":"owner","type":"address"},{"indexed":true,"internalType":"address","name":"operator","type":"address"},{"indexed":false,"internalType":"bool","name":"approved","type":"bool"}],"name":"ApprovalForAll","type":"event"},{"anonymous":false,"inputs":[{"indexed":true,"internalType":"address","name":"previousOwner","type":"address"},{"indexed":true,"internalType":"address","name":"newOwner","type":"address"}],"name":"OwnershipTransferred","type":"event"},{"anonymous":false,"inputs":[{"indexed":true,"internalType":"address","name":"from","type":"address"},{"indexed":true,"internalType":"address","name":"to","type":"address"},{"indexed":true,"internalType":"uint256","name":"tokenId","type":"uint256"}],"name":"Transfer","type":"event"},{"inputs":[{"internalType":"address","name":"to","type":"address"},{"internalType":"uint256","name":"tokenId","type":"uint256"}],"name":"approve","outputs":[],"stateMutability":"nonpayable","type":"function"},{"inputs":[{"internalType":"address","name":"owner","type":"address"}],"name":"balanceOf","outputs":[{"internalType":"uint256","name":"","type":"uint256"}],"stateMutability":"view","type":"function"},{"inputs":[{"internalType":"uint256","name":"policyId","type":"uint256"}],"name":"burnPolicy","outputs":[],"stateMutability":"nonpayable","type":"function"},{"inputs":[{"internalType":"uint256","name":"tokenId","type":"uint256"}],"name":"getApproved","outputs":[{"internalType":"address","name":"","type":"address"}],"stateMutability":"view","type":"function"},{"inputs":[{"internalType":"uint256","name":"policyId","type":"uint256"}],"name":"getPolicyMetadata","outputs":[{"components":[{"internalType":"string","name":"vehicleId","type":"string"},{"internalType":"uint256","name":"createdAt","type":"uint256"},{"internalType":"enum IVehicleShield.VerificationTier","name":"tier","type":"uint8"},{"internalType":"uint256","name":"premium","type":"uint256"},{"internalType":"uint256","name":"coverage","type":"uint256"}],"internalType":"struct PolicyNFT.PolicyMetadata","name":"","type":"tuple"}],"stateMutability":"view","type":"function"},{"inputs":[{"internalType":"uint256","name":"policyId","type":"uint256"}],"name":"getPolicyOwner","outputs":[{"internalType":"address","name":"","type":"address"}],"stateMutability":"view","type":"function"},{"inputs":[{"internalType":"address","name":"owner","type":"address"},{"internalType":"address","name":"operator","type":"address"}],"name":"isApprovedForAll","outputs":[{"internalType":"bool","name":"","type":"bool"}],"stateMutability":"view","type":"function"},{"inputs":[{"internalType":"address","name":"to","type":"address"},{"internalType":"string","name":"vehicleId","type":"string"},{"internalType":"enum IVehicleShield.VerificationTier","name":"tier","type":"uint8"},{"internalType":"uint256","name":"premium","type":"uint256"},{"internalType":"uint256","name":"coverage","type":"uint256"}],"name":"mintPolicy","outputs":[{"internalType":"uint256","name":"","type":"uint256"}],"stateMutability":"nonpayable","type":"function"},{"inputs":[],"name":"name","outputs":[{"internalType":"string","name":"","type":"string"}],"stateMutability":"view","type":"function"},{"inputs":[],"name":"owner","outputs":[{"internalType":"address","name":"","type":"address"}],"stateMutability":"view","type":"function"},{"inputs":[{"internalType":"uint256","name":"tokenId","type":"uint256"}],"name":"ownerOf","outputs":[{"internalType":"address","name":"","type":"address"}],"stateMutability":"view","type":"function"},{"inputs":[],"name":"renounceOwnership","outputs":[],"stateMutability":"nonpayable","type":"function"},{"inputs":[{"internalType":"address","name":"from","type":"address"},{"internalType":"address","name":"to","type":"address"},{"internalType":"uint256","name":"tokenId","type":"uint256"}],"name":"safeTransferFrom","outputs":[],"stateMutability":"nonpayable","type":"function"},{"inputs":[{"internalType":"address","name":"from","type":"address"},{"internalType":"address","name":"to","type":"address"},{"internalType":"uint256","name":"tokenId","type":"uint256"},{"internalType":"bytes","name":"data","type":"bytes"}],"name":"safeTransferFrom","outputs":[],"stateMutability":"nonpayable","type":"function"},{"inputs":[{"internalType":"address","name":"operator","type":"address"},{"internalType":"bool","name":"approved","type":"bool"}],"name":"setApprovalForAll","outputs":[],"stateMutability":"nonpayable","type":"function"},{"inputs":[{"internalType":"address","name":"insuranceCoreAddress","type":"address"}],"name":"setInsuranceCoreAddress","outputs":[],"stateMutability":"nonpayable","type":"function"},{"inputs":[{"internalType":"bytes4","name":"interfaceId","type":"bytes4"}],"name":"supportsInterface","outputs":[{"internalType":"bool","name":"","type":"bool"}],"stateMutability":"view","type":"function"},{"inputs":[],"name":"symbol","outputs":[{"internalType":"string","name":"","type":"string"}],"stateMutability":"view","type":"function"},{"inputs":[{"internalType":"uint256","name":"tokenId","type":"uint256"}],"name":"tokenURI","outputs":[{"internalType":"string","name":"","type":"string"}],"stateMutability":"view","type":"function"},{"inputs":[{"internalType":"address","name":"from","type":"address"},{"internalType":"address","name":"to","type":"address"},{"internalType":"uint256","name":"tokenId","type":"uint256"}],"name":"transferFrom","outputs":[],"stateMutability":"nonpayable","type":"function"},{"inputs":[{"internalType":"address","name":"newOwner","type":"address"}],"name":"transferOwnership","outputs":[],"stateMutability":"nonpayable","type":"function"}],"evm":{"bytecode":{"linkReferences":{},"object":"608060405260016008553480156200001657600080fd5b50336040518060400160405280601481526020017f56656869636c65536869656c6420506f6c6963790000000000000000000000008152506040518060400160405280600381526020016205653560ec1b81525081600090816200007b9190620001c5565b5060016200008a8282620001c5565b5050506001600160a01b038116620000bc57604051631e4fbdf760e01b81526000600482015260240160405180910390fd5b620000c781620000ce565b5062000291565b600680546001600160a01b038381166001600160a01b0319831681179093556040519116919082907f8be0079c531659141344cd1fd0a4f28419497f9722a3daafe3b4186f6b6457e090600090a35050565b634e487b7160e01b600052604160045260246000fd5b600181811c908216806200014b57607f821691505b6020821081036200016c57634e487b7160e01b600052602260045260246000fd5b50919050565b601f821115620001c057600081815260208120601f850160051c810160208610156200019b5750805b601f850160051c820191505b81811015620001bc57828155600101620001a7565b5050505b505050565b81516001600160401b03811115620001e157620001e162000120565b620001f981620001f2845462000136565b8462000172565b602080601f831160018114620002315760008415620002185750858301515b600019600386901b1c1916600185901b178555620001bc565b600085815260208120601f198616915b82811015620002625788860151825594840194600190910190840162000241565b5085821015620002815787850151600019600388901b60f8161c191681555b5050505050600190811b01905550565b61176380620002a16000396000f3fe608060405234801561001057600080fd5b50600436106101375760003560e01c8063715018a6116100b8578063b88d4fde1161007c578063b88d4fde1461028d578063c87b56dd146102a0578063ca009021146102b3578063e985e9c5146102c6578063f2fde38b146102d9578063f457a0fe146102ec57600080fd5b8063715018a6146102395780638cf7a293146102415780638da5cb5b1461026157806395d89b4114610272578063a22cb4651461027a57600080fd5b8063239036c0116100ff578063239036c0146101da57806323b872dd146101ed57806342842e0e146102005780636352211e1461021357806370a082311461022657600080fd5b806301ffc9a71461013c57806306fdde0314610164578063081812fc14610179578063095ea7b3146101a457806321a9bfe8146101b9575b600080fd5b61014f61014a36600461118a565b6102ff565b60405190151581526020015b60405180910390f35b61016c610351565b60405161015b91906111f7565b61018c61018736600461120a565b6103e3565b6040516001600160a01b03909116815260200161015b565b6101b76101b236600461123f565b61040c565b005b6101cc6101c73660046112f5565b61041b565b60405190815260200161015b565b6101b76101e836600461137f565b61054c565b6101b76101fb36600461139a565b610576565b6101b761020e36600461139a565b610601565b61018c61022136600461120a565b610621565b6101cc61023436600461137f565b61062c565b6101b7610674565b61025461024f36600461120a565b610688565b60405161015b91906113ec565b6006546001600160a01b031661018c565b61016c610791565b6101b761028836600461145c565b6107a0565b6101b761029b366004611498565b6107ab565b61016c6102ae36600461120a565b6107c3565b61018c6102c136600461120a565b610838565b61014f6102d4366004611514565b610843565b6101b76102e736600461137f565b610871565b6101b76102fa36600461120a565b6108af565b60006001600160e01b031982166380ac58cd60e01b148061033057506001600160e01b03198216635b5e139f60e01b145b8061034b57506301ffc9a760e01b6001600160e01b03198316145b92915050565b60606000805461036090611547565b80601f016020809104026020016040519081016040528092919081815260200182805461038c90611547565b80156103d95780601f106103ae576101008083540402835291602001916103d9565b820191906000526020600020905b8154815290600101906020018083116103bc57829003601f168201915b5050505050905090565b60006103ee82610951565b506000828152600460205260409020546001600160a01b031661034b565b61041782823361098a565b5050565b6009546000906001600160a01b0316331461047d5760405162461bcd60e51b815260206004820152601b60248201527f43616c6c6572206973206e6f7420496e737572616e6365436f7265000000000060448201526064015b60405180910390fd5b600880546000918261048e83611581565b9190505590506040518060a001604052808781526020014281526020018660028111156104bd576104bd6113d6565b8152602080820187905260409182018690526000848152600790915220815181906104e890826115ee565b506020820151816001015560408201518160020160006101000a81548160ff0219169083600281111561051d5761051d6113d6565b0217905550606082015160038201556080909101516004909101556105428782610997565b9695505050505050565b6105546109b1565b600980546001600160a01b0319166001600160a01b0392909216919091179055565b6001600160a01b0382166105a057604051633250574960e11b815260006004820152602401610474565b60006105ad8383336109de565b9050836001600160a01b0316816001600160a01b0316146105fb576040516364283d7b60e01b81526001600160a01b0380861660048301526024820184905282166044820152606401610474565b50505050565b61061c838383604051806020016040528060008152506107ab565b505050565b600061034b82610951565b60006001600160a01b038216610658576040516322718ad960e21b815260006004820152602401610474565b506001600160a01b031660009081526003602052604090205490565b61067c6109b1565b6106866000610ad7565b565b6106906110e6565b60008281526007602052604090819020815160a081019092528054829082906106b890611547565b80601f01602080910402602001604051908101604052809291908181526020018280546106e490611547565b80156107315780601f1061070657610100808354040283529160200191610731565b820191906000526020600020905b81548152906001019060200180831161071457829003601f168201915b50505091835250506001820154602082015260028083015460409092019160ff1690811115610762576107626113d6565b6002811115610773576107736113d6565b81526003820154602082015260049091015460409091015292915050565b60606001805461036090611547565b610417338383610b29565b6107b6848484610576565b6105fb3385858585610bc8565b60606107ce82610951565b5060006107e660408051602081019091526000815290565b905060008151116108065760405180602001604052806000815250610831565b8061081084610cf3565b6040516020016108219291906116ae565b6040516020818303038152906040525b9392505050565b600061034b82610621565b6001600160a01b03918216600090815260056020908152604080832093909416825291909152205460ff1690565b6108796109b1565b6001600160a01b0381166108a357604051631e4fbdf760e01b815260006004820152602401610474565b6108ac81610ad7565b50565b6009546001600160a01b031633146109095760405162461bcd60e51b815260206004820152601b60248201527f43616c6c6572206973206e6f7420496e737572616e6365436f726500000000006044820152606401610474565b61091281610d86565b60008181526007602052604081209061092b8282611126565b5060006001820181905560028201805460ff191690556003820181905560049091015550565b6000818152600260205260408120546001600160a01b03168061034b57604051637e27328960e01b815260048101849052602401610474565b61061c8383836001610dc1565b610417828260405180602001604052806000815250610ec7565b6006546001600160a01b031633146106865760405163118cdaa760e01b8152336004820152602401610474565b6000828152600260205260408120546001600160a01b0390811690831615610a0b57610a0b818486610edf565b6001600160a01b03811615610a4957610a28600085600080610dc1565b6001600160a01b038116600090815260036020526040902080546000190190555b6001600160a01b03851615610a78576001600160a01b0385166000908152600360205260409020805460010190555b60008481526002602052604080822080546001600160a01b0319166001600160a01b0389811691821790925591518793918516917fddf252ad1be2c89b69c2b068fc378daa952ba7f163c4a11628f55a4df523b3ef91a4949350505050565b600680546001600160a01b038381166001600160a01b0319831681179093556040519116919082907f8be0079c531659141344cd1fd0a4f28419497f9722a3daafe3b4186f6b6457e090600090a35050565b6001600160a01b038216610b5b57604051630b61174360e31b81526001600160a01b0383166004820152602401610474565b6001600160a01b03838116600081815260056020908152604080832094871680845294825291829020805460ff191686151590811790915591519182527f17307eab39ab6107e8899845ad3d59bd9653f200f220920489ca2b5937696c31910160405180910390a3505050565b6001600160a01b0383163b15610cec57604051630a85bd0160e11b81526001600160a01b0384169063150b7a0290610c0a9088908890879087906004016116dd565b6020604051808303816000875af1925050508015610c45575060408051601f3d908101601f19168201909252610c4291810190611710565b60015b610cae573d808015610c73576040519150601f19603f3d011682016040523d82523d6000602084013e610c78565b606091505b508051600003610ca657604051633250574960e11b81526001600160a01b0385166004820152602401610474565b805181602001fd5b6001600160e01b03198116630a85bd0160e11b14610cea57604051633250574960e11b81526001600160a01b0385166004820152602401610474565b505b5050505050565b60606000610d0083610f43565b600101905060008167ffffffffffffffff811115610d2057610d20611269565b6040519080825280601f01601f191660200182016040528015610d4a576020820181803683370190505b5090508181016020015b600019016f181899199a1a9b1b9c1cb0b131b232b360811b600a86061a8153600a8504945084610d5457509392505050565b6000610d9560008360006109de565b90506001600160a01b03811661041757604051637e27328960e01b815260048101839052602401610474565b8080610dd557506001600160a01b03821615155b15610e97576000610de584610951565b90506001600160a01b03831615801590610e115750826001600160a01b0316816001600160a01b031614155b8015610e245750610e228184610843565b155b15610e4d5760405163a9fbf51f60e01b81526001600160a01b0384166004820152602401610474565b8115610e955783856001600160a01b0316826001600160a01b03167f8c5be1e5ebec7d5bd14f71427d1e84f3dd0314c0f7b2291e5b200ac8c7c3b92560405160405180910390a45b505b5050600090815260046020526040902080546001600160a01b0319166001600160a01b0392909216919091179055565b610ed1838361101b565b61061c336000858585610bc8565b610eea838383611080565b61061c576001600160a01b038316610f1857604051637e27328960e01b815260048101829052602401610474565b60405163177e802f60e01b81526001600160a01b038316600482015260248101829052604401610474565b60008072184f03e93ff9f4daa797ed6e38ed64bf6a1f0160401b8310610f825772184f03e93ff9f4daa797ed6e38ed64bf6a1f0160401b830492506040015b6d04ee2d6d415b85acef81000000008310610fae576d04ee2d6d415b85acef8100000000830492506020015b662386f26fc100008310610fcc57662386f26fc10000830492506010015b6305f5e1008310610fe4576305f5e100830492506008015b6127108310610ff857612710830492506004015b6064831061100a576064830492506002015b600a831061034b5760010192915050565b6001600160a01b03821661104557604051633250574960e11b815260006004820152602401610474565b6000611053838360006109de565b90506001600160a01b0381161561061c576040516339e3563760e11b815260006004820152602401610474565b60006001600160a01b038316158015906110de5750826001600160a01b0316846001600160a01b031614806110ba57506110ba8484610843565b806110de57506000828152600460205260409020546001600160a01b038481169116145b949350505050565b6040518060a00160405280606081526020016000815260200160006002811115611112576111126113d6565b815260200160008152602001600081525090565b50805461113290611547565b6000825580601f10611142575050565b601f0160209004906000526020600020908101906108ac91905b80821115611170576000815560010161115c565b5090565b6001600160e01b0319811681146108ac57600080fd5b60006020828403121561119c57600080fd5b813561083181611174565b60005b838110156111c25781810151838201526020016111aa565b50506000910152565b600081518084526111e38160208601602086016111a7565b601f01601f19169290920160200192915050565b60208152600061083160208301846111cb565b60006020828403121561121c57600080fd5b5035919050565b80356001600160a01b038116811461123a57600080fd5b919050565b6000806040838503121561125257600080fd5b61125b83611223565b946020939093013593505050565b634e487b7160e01b600052604160045260246000fd5b600067ffffffffffffffff8084111561129a5761129a611269565b604051601f8501601f19908116603f011681019082821181831017156112c2576112c2611269565b816040528093508581528686860111156112db57600080fd5b858560208301376000602087830101525050509392505050565b600080600080600060a0868803121561130d57600080fd5b61131686611223565b9450602086013567ffffffffffffffff81111561133257600080fd5b8601601f8101881361134357600080fd5b6113528882356020840161127f565b94505060408601356003811061136757600080fd5b94979396509394606081013594506080013592915050565b60006020828403121561139157600080fd5b61083182611223565b6000806000606084860312156113af57600080fd5b6113b884611223565b92506113c660208501611223565b9150604084013590509250925092565b634e487b7160e01b600052602160045260246000fd5b602081526000825160a0602084015261140860c08401826111cb565b90506020840151604084015260408401516003811061143757634e487b7160e01b600052602160045260246000fd5b8060608501525060608401516080840152608084015160a08401528091505092915050565b6000806040838503121561146f57600080fd5b61147883611223565b91506020830135801515811461148d57600080fd5b809150509250929050565b600080600080608085870312156114ae57600080fd5b6114b785611223565b93506114c560208601611223565b925060408501359150606085013567ffffffffffffffff8111156114e857600080fd5b8501601f810187136114f957600080fd5b6115088782356020840161127f565b91505092959194509250565b6000806040838503121561152757600080fd5b61153083611223565b915061153e60208401611223565b90509250929050565b600181811c9082168061155b57607f821691505b60208210810361157b57634e487b7160e01b600052602260045260246000fd5b50919050565b6000600182016115a157634e487b7160e01b600052601160045260246000fd5b5060010190565b601f82111561061c57600081815260208120601f850160051c810160208610156115cf5750805b601f850160051c820191505b81811015610cea578281556001016115db565b815167ffffffffffffffff81111561160857611608611269565b61161c816116168454611547565b846115a8565b602080601f83116001811461165157600084156116395750858301515b600019600386901b1c1916600185901b178555610cea565b600085815260208120601f198616915b8281101561168057888601518255948401946001909101908401611661565b508582101561169e5787850151600019600388901b60f8161c191681555b5050505050600190811b01905550565b600083516116c08184602088016111a7565b8351908301906116d48183602088016111a7565b01949350505050565b6001600160a01b0385811682528416602082015260408101839052608060608201819052600090610542908301846111cb565b60006020828403121561172257600080fd5b81516108318161117456fea2646970667358221220a4e6ed0f1419cda18177e0686fad6ab064fb2f49833adc556b4e199319e7fd8964736f6c63430008140033","opcodes":"PUSH1 0x80 PUSH1 0x40 MSTORE PUSH1 0x1 PUSH1 0x8 SSTORE CALLVALUE DUP1 ISZERO PUSH3 0x16 JUMPI PUSH1 0x0 DUP1 REVERT JUMPDEST POP CALLER PUSH1 0x40 MLOAD DUP1 PUSH1 0x40 ADD PUSH1 0x40 MSTORE DUP1 PUSH1 0x14 DUP2 MSTORE PUSH1 0x20 ADD PUSH32 0x56656869636C65536869656C6420506F6C696379000000000000000000000000 DUP2 MSTORE POP PUSH1 0x40 MLOAD DUP1 PUSH1 0x40 ADD PUSH1 0x40 MSTORE DUP1 PUSH1 0x3 DUP2 MSTORE PUSH1 0x20 ADD PUSH3 0x56535 PUSH1 0xEC SHL DUP2 MSTORE POP DUP2 PUSH1 0x0 SWAP1 DUP2 PUSH3 0x7B SWAP2 SWAP1 PUSH3 0x1C5 JUMP JUMPDEST POP PUSH1 0x1 PUSH3 0x8A DUP3 DUP3 PUSH3 0x1C5 JUMP JUMPDEST POP POP POP PUSH1 0x1 PUSH1 0x1 PUSH1 0xA0 SHL SUB DUP2 AND PUSH3 0xBC JUMPI PUSH1 0x40 MLOAD PUSH4 0x1E4FBDF7 PUSH1 0xE0 SHL DUP2 MSTORE PUSH1 0x0 PUSH1 0x4 DUP3 ADD MSTORE PUSH1 0x24 ADD PUSH1 0x40 MLOAD DUP1 SWAP2 SUB SWAP1 REVERT JUMPDEST PUSH3 0xC7 DUP2 PUSH3 0xCE JUMP JUMPDEST POP PUSH3 0x291 JUMP JUMPDEST PUSH1 0x6 DUP1 SLOAD PUSH1 0x1 PUSH1 0x1 PUSH1 0xA0 SHL SUB DUP4 DUP2 AND PUSH1 0x1 PUSH1 0x1 PUSH1 0xA0 SHL SUB NOT DUP4 AND DUP2 OR SWAP1 SWAP4 SSTORE PUSH1 0x40 MLOAD SWAP2 AND SWAP2 SWAP1 DUP3 SWAP1 PUSH32 0x8BE0079C531659141344CD1FD0A4F28419497F9722A3DAAFE3B4186F6B6457E0 SWAP1 PUSH1 0x0 SWAP1 LOG3 POP POP JUMP JUMPDEST PUSH4 0x4E487B71 PUSH1 0xE0 SHL PUSH1 0x0 MSTORE PUSH1 0x41 PUSH1 0x4 MSTORE PUSH1 0x24 PUSH1 0x0 REVERT JUMPDEST PUSH1 0x1 DUP2 DUP2 SHR SWAP1 DUP3 AND DUP1 PUSH3 0x14B JUMPI PUSH1 0x7F DUP3 AND SWAP2 POP JUMPDEST PUSH1 0x20 DUP3 LT DUP2 SUB PUSH3 0x16C JUMPI PUSH4 0x4E487B71 PUSH1 0xE0 SHL PUSH1 0x0 MSTORE PUSH1 0x22 PUSH1 0x4 MSTORE PUSH1 0x24 PUSH1 0x0 REVERT JUMPDEST POP SWAP2 SWAP1 POP JUMP JUMPDEST PUSH1 0x1F DUP3 GT ISZERO PUSH3 0x1C0 JUMPI PUSH1 0x0 DUP2 DUP2 MSTORE PUSH1 0x20 DUP2 KECCAK256 PUSH1 0x1F DUP6 ADD PUSH1 0x5 SHR DUP2 ADD PUSH1 0x20 DUP7 LT ISZERO PUSH3 0x19B JUMPI POP DUP1 JUMPDEST PUSH1 0x1F DUP6 ADD PUSH1 0x5 SHR DUP3 ADD SWAP2 POP JUMPDEST DUP2 DUP2 LT ISZERO PUSH3 0x1BC JUMPI DUP3 DUP2 SSTORE PUSH1 0x1 ADD PUSH3 0x1A7 JUMP JUMPDEST POP POP POP JUMPDEST POP POP POP JUMP JUMPDEST DUP2 MLOAD PUSH1 0x1 PUSH1 0x1 PUSH1 0x40 SHL SUB DUP2 GT ISZERO PUSH3 0x1E1 JUMPI PUSH3 0x1E1 PUSH3 0x120 JUMP JUMPDEST PUSH3 0x1F9 DUP2 PUSH3 0x1F2 DUP5 SLOAD PUSH3 0x136 JUMP JUMPDEST DUP5 PUSH3 0x172 JUMP JUMPDEST PUSH1 0x20 DUP1 PUSH1 0x1F DUP4 GT PUSH1 0x1 DUP2 EQ PUSH3 0x231 JUMPI PUSH1 0x0 DUP5 ISZERO PUSH3 0x218 JUMPI POP DUP6 DUP4 ADD MLOAD JUMPDEST PUSH1 0x0 NOT PUSH1 0x3 DUP7 SWAP1 SHL SHR NOT AND PUSH1 0x1 DUP6 SWAP1 SHL OR DUP6 SSTORE PUSH3 0x1BC JUMP JUMPDEST PUSH1 0x0 DUP6 DUP2 MSTORE PUSH1 0x20 DUP2 KECCAK256 PUSH1 0x1F NOT DUP7 AND SWAP2 JUMPDEST DUP3 DUP2 LT ISZERO PUSH3 0x262 JUMPI DUP9 DUP7 ADD MLOAD DUP3 SSTORE SWAP5 DUP5 ADD SWAP5 PUSH1 0x1 SWAP1 SWAP2 ADD SWAP1 DUP5 ADD PUSH3 0x241 JUMP JUMPDEST POP DUP6 DUP3 LT ISZERO PUSH3 0x281 JUMPI DUP8 DUP6 ADD MLOAD PUSH1 0x0 NOT PUSH1 0x3 DUP9 SWAP1 SHL PUSH1 0xF8 AND SHR NOT AND DUP2 SSTORE JUMPDEST POP POP POP POP POP PUSH1 0x1 SWAP1 DUP2 SHL ADD SWAP1 SSTORE POP JUMP JUMPDEST PUSH2 0x1763 DUP1 PUSH3 0x2A1 PUSH1 0x0 CODECOPY PUSH1 0x0 RETURN INVALID PUSH1 0x80 PUSH1 0x40 MSTORE CALLVALUE DUP1 ISZERO PUSH2 0x10 JUMPI PUSH1 0x0 DUP1 REVERT JUMPDEST POP PUSH1 0x4 CALLDATASIZE LT PUSH2 0x137 JUMPI PUSH1 0x0 CALLDATALOAD PUSH1 0xE0 SHR DUP1 PUSH4 0x715018A6 GT PUSH2 0xB8 JUMPI DUP1 PUSH4 0xB88D4FDE GT PUSH2 0x7C JUMPI DUP1 PUSH4 0xB88D4FDE EQ PUSH2 0x28D JUMPI DUP1 PUSH4 0xC87B56DD EQ PUSH2 0x2A0 JUMPI DUP1 PUSH4 0xCA009021 EQ PUSH2 0x2B3 JUMPI DUP1 PUSH4 0xE985E9C5 EQ PUSH2 0x2C6 JUMPI DUP1 PUSH4 0xF2FDE38B EQ PUSH2 0x2D9 JUMPI DUP1 PUSH4 0xF457A0FE EQ PUSH2 0x2EC JUMPI PUSH1 0x0 DUP1 REVERT JUMPDEST DUP1 PUSH4 0x715018A6 EQ PUSH2 0x239 JUMPI DUP1 PUSH4 0x8CF7A293 EQ PUSH2 0x241 JUMPI DUP1 PUSH4 0x8DA5CB5B EQ PUSH2 0x261 JUMPI DUP1 PUSH4 0x95D89B41 EQ PUSH2 0x272 JUMPI DUP1 PUSH4 0xA22CB465 EQ PUSH2 0x27A JUMPI PUSH1 0x0 DUP1 REVERT JUMPDEST DUP1 PUSH4 0x239036C0 GT PUSH2 0xFF JUMPI DUP1 PUSH4 0x239036C0 EQ PUSH2 0x1DA JUMPI DUP1 PUSH4 0x23B872DD EQ PUSH2 0x1ED JUMPI DUP1 PUSH4 0x42842E0E EQ PUSH2 0x200 JUMPI DUP1 PUSH4 0x6352211E EQ PUSH2 0x213 JUMPI DUP1 PUSH4 0x70A08231 EQ PUSH2 0x226 JUMPI PUSH1 0x0 DUP1 REVERT JUMPDEST DUP1 PUSH4 0x1FFC9A7 EQ PUSH2 0x13C JUMPI DUP1 PUSH4 0x6FDDE03 EQ PUSH2 0x164 JUMPI DUP1 PUSH4 0x81812FC EQ PUSH2 0x179 JUMPI DUP1 PUSH4 0x95EA7B3 EQ PUSH2 0x1A4 JUMPI DUP1 PUSH4 0x21A9BFE8 EQ PUSH2 0x1B9 JUMPI JUMPDEST PUSH1 0x0 DUP1 REVERT JUMPDEST PUSH2 0x14F PUSH2 0x14A CALLDATASIZE PUSH1 0x4 PUSH2 0x118A JUMP JUMPDEST PUSH2 0x2FF JUMP JUMPDEST PUSH1 0x40 MLOAD SWAP1 ISZERO ISZERO DUP2 MSTORE PUSH1 0x20 ADD JUMPDEST PUSH1 0x40 MLOAD DUP1 SWAP2 SUB SWAP1 RETURN JUMPDEST PUSH2 0x16C PUSH2 0x351 JUMP JUMPDEST PUSH1 0x40 MLOAD PUSH2 0x15B SWAP2 SWAP1 PUSH2 0x11F7 JUMP JUMPDEST PUSH2 0x18C PUSH2 0x187 CALLDATASIZE PUSH1 0x4 PUSH2 0x120A JUMP JUMPDEST PUSH2 0x3E3 JUMP JUMPDEST PUSH1 0x40 MLOAD PUSH1 0x1 PUSH1 0x1 PUSH1 0xA0 SHL SUB SWAP1 SWAP2 AND DUP2 MSTORE PUSH1 0x20 ADD PUSH2 0x15B JUMP JUMPDEST PUSH2 0x1B7 PUSH2 0x1B2 CALLDATASIZE PUSH1 0x4 PUSH2 0x123F JUMP JUMPDEST PUSH2 0x40C JUMP JUMPDEST STOP JUMPDEST PUSH2 0x1CC PUSH2 0x1C7 CALLDATASIZE PUSH1 0x4 PUSH2 0x12F5 JUMP JUMPDEST PUSH2 0x41B JUMP JUMPDEST PUSH1 0x40 MLOAD SWAP1 DUP2 MSTORE PUSH1 0x20 ADD PUSH2 0x15B JUMP JUMPDEST PUSH2 0x1B7 PUSH2 0x1E8 CALLDATASIZE PUSH1 0x4 PUSH2 0x137F JUMP JUMPDEST PUSH2 0x54C JUMP JUMPDEST PUSH2 0x1B7 PUSH2 0x1FB CALLDATASIZE PUSH1 0x4 PUSH2 0x139A JUMP JUMPDEST PUSH2 0x576 JUMP JUMPDEST PUSH2 0x1B7 PUSH2 0x20E CALLDATASIZE PUSH1 0x4 PUSH2 0x139A JUMP JUMPDEST PUSH2 0x601 JUMP JUMPDEST PUSH2 0x18C PUSH2 0x221 CALLDATASIZE PUSH1 0x4 PUSH2 0x120A JUMP JUMPDEST PUSH2 0x621 JUMP JUMPDEST PUSH2 0x1CC PUSH2 0x234 CALLDATASIZE PUSH1 0x4 PUSH2 0x137F JUMP JUMPDEST PUSH2 0x62C JUMP JUMPDEST PUSH2 0x1B7 PUSH2 0x674 JUMP JUMPDEST PUSH2 0x254 PUSH2 0x24F CALLDATASIZE PUSH1 0x4 PUSH2 0x120A JUMP JUMPDEST PUSH2 0x688 JUMP JUMPDEST PUSH1 0x40 MLOAD PUSH2 0x15B SWAP2 SWAP1 PUSH2 0x13EC JUMP JUMPDEST PUSH1 0x6 SLOAD PUSH1 0x1 PUSH1 0x1 PUSH1 0xA0 SHL SUB AND PUSH2 0x18C JUMP JUMPDEST PUSH2 0x16C PUSH2 0x791 JUMP JUMPDEST PUSH2 0x1B7 PUSH2 0x288 CALLDATASIZE PUSH1 0x4 PUSH2 0x145C JUMP JUMPDEST PUSH2 0x7A0 JUMP JUMPDEST PUSH2 0x1B7 PUSH2 0x29B CALLDATASIZE PUSH1 0x4 PUSH2 0x1498 JUMP JUMPDEST PUSH2 0x7AB JUMP JUMPDEST PUSH2 0x16C PUSH2 0x2AE CALLDATASIZE PUSH1 0x4 PUSH2 0x120A JUMP JUMPDEST PUSH2 0x7C3 JUMP JUMPDEST PUSH2 0x18C PUSH2 0x2C1 CALLDATASIZE PUSH1 0x4 PUSH2 0x120A JUMP JUMPDEST PUSH2 0x838 JUMP JUMPDEST PUSH2 0x14F PUSH2 0x2D4 CALLDATASIZE PUSH1 0x4 PUSH2 0x1514 JUMP JUMPDEST PUSH2 0x843 JUMP JUMPDEST PUSH2 0x1B7 PUSH2 0x2E7 CALLDATASIZE PUSH1 0x4 PUSH2 0x137F JUMP JUMPDEST PUSH2 0x871 JUMP JUMPDEST PUSH2 0x1B7 PUSH2 0x2FA CALLDATASIZE PUSH1 0x4 PUSH2 0x120A JUMP JUMPDEST PUSH2 0x8AF JUMP JUMPDEST PUSH1 0x0 PUSH1 0x1 PUSH1 0x1 PUSH1 0xE0 SHL SUB NOT DUP3 AND PUSH4 0x80AC58CD PUSH1 0xE0 SHL EQ DUP1 PUSH2 0x330 JUMPI POP PUSH1 0x1 PUSH1 0x1 PUSH1 0xE0 SHL SUB NOT DUP3 AND PUSH4 0x5B5E139F PUSH1 0xE0 SHL EQ JUMPDEST DUP1 PUSH2 0x34B JUMPI POP PUSH4 0x1FFC9A7 PUSH1 0xE0 SHL PUSH1 0x1 PUSH1 0x1 PUSH1 0xE0 SHL SUB NOT DUP4 AND EQ JUMPDEST SWAP3 SWAP2 POP POP JUMP JUMPDEST PUSH1 0x60 PUSH1 0x0 DUP1 SLOAD PUSH2 0x360 SWAP1 PUSH2 0x1547 JUMP JUMPDEST DUP1 PUSH1 0x1F ADD PUSH1 0x20 DUP1 SWAP2 DIV MUL PUSH1 0x20 ADD PUSH1 0x40 MLOAD SWAP1 DUP2 ADD PUSH1 0x40 MSTORE DUP1 SWAP3 SWAP2 SWAP1 DUP2 DUP2 MSTORE PUSH1 0x20 ADD DUP3 DUP1 SLOAD PUSH2 0x38C SWAP1 PUSH2 0x1547 JUMP JUMPDEST DUP1 ISZERO PUSH2 0x3D9 JUMPI DUP1 PUSH1 0x1F LT PUSH2 0x3AE JUMPI PUSH2 0x100 DUP1 DUP4 SLOAD DIV MUL DUP4 MSTORE SWAP2 PUSH1 0x20 ADD SWAP2 PUSH2 0x3D9 JUMP JUMPDEST DUP3 ADD SWAP2 SWAP1 PUSH1 0x0 MSTORE PUSH1 0x20 PUSH1 0x0 KECCAK256 SWAP1 JUMPDEST DUP2 SLOAD DUP2 MSTORE SWAP1 PUSH1 0x1 ADD SWAP1 PUSH1 0x20 ADD DUP1 DUP4 GT PUSH2 0x3BC JUMPI DUP3 SWAP1 SUB PUSH1 0x1F AND DUP3 ADD SWAP2 JUMPDEST POP POP POP POP POP SWAP1 POP SWAP1 JUMP JUMPDEST PUSH1 0x0 PUSH2 0x3EE DUP3 PUSH2 0x951 JUMP JUMPDEST POP PUSH1 0x0 DUP3 DUP2 MSTORE PUSH1 0x4 PUSH1 0x20 MSTORE PUSH1 0x40 SWAP1 KECCAK256 SLOAD PUSH1 0x1 PUSH1 0x1 PUSH1 0xA0 SHL SUB AND PUSH2 0x34B JUMP JUMPDEST PUSH2 0x417 DUP3 DUP3 CALLER PUSH2 0x98A JUMP JUMPDEST POP POP JUMP JUMPDEST PUSH1 0x9 SLOAD PUSH1 0x0 SWAP1 PUSH1 0x1 PUSH1 0x1 PUSH1 0xA0 SHL SUB AND CALLER EQ PUSH2 0x47D JUMPI PUSH1 0x40 MLOAD PUSH3 0x461BCD PUSH1 0xE5 SHL DUP2 MSTORE PUSH1 0x20 PUSH1 0x4 DUP3 ADD MSTORE PUSH1 0x1B PUSH1 0x24 DUP3 ADD MSTORE PUSH32 0x43616C6C6572206973206E6F7420496E737572616E6365436F72650000000000 PUSH1 0x44 DUP3 ADD MSTORE PUSH1 0x64 ADD JUMPDEST PUSH1 0x40 MLOAD DUP1 SWAP2 SUB SWAP1 REVERT JUMPDEST PUSH1 0x8 DUP1 SLOAD PUSH1 0x0 SWAP2 DUP3 PUSH2 0x48E DUP4 PUSH2 0x1581 JUMP JUMPDEST SWAP2 SWAP1 POP SSTORE SWAP1 POP PUSH1 0x40 MLOAD DUP1 PUSH1 0xA0 ADD PUSH1 0x40 MSTORE DUP1 DUP8 DUP2 MSTORE PUSH1 0x20 ADD TIMESTAMP DUP2 MSTORE PUSH1 0x20 ADD DUP7 PUSH1 0x2 DUP2 GT ISZERO PUSH2 0x4BD JUMPI PUSH2 0x4BD PUSH2 0x13D6 JUMP JUMPDEST DUP2 MSTORE PUSH1 0x20 DUP1 DUP3 ADD DUP8 SWAP1 MSTORE PUSH1 0x40 SWAP2 DUP3 ADD DUP7 SWAP1 MSTORE PUSH1 0x0 DUP5 DUP2 MSTORE PUSH1 0x7 SWAP1 SWAP2 MSTORE KECCAK256 DUP2 MLOAD DUP2 SWAP1 PUSH2 0x4E8 SWAP1 DUP3 PUSH2 0x15EE JUMP JUMPDEST POP PUSH1 0x20 DUP3 ADD MLOAD DUP2 PUSH1 0x1 ADD SSTORE PUSH1 0x40 DUP3 ADD MLOAD DUP2 PUSH1 0x2 ADD PUSH1 0x0 PUSH2 0x100 EXP DUP2 SLOAD DUP2 PUSH1 0xFF MUL NOT AND SWAP1 DUP4 PUSH1 0x2 DUP2 GT ISZERO PUSH2 0x51D JUMPI PUSH2 0x51D PUSH2 0x13D6 JUMP JUMPDEST MUL OR SWAP1 SSTORE POP PUSH1 0x60 DUP3 ADD MLOAD PUSH1 0x3 DUP3 ADD SSTORE PUSH1 0x80 SWAP1 SWAP2 ADD MLOAD PUSH1 0x4 SWAP1 SWAP2 ADD SSTORE PUSH2 0x542 DUP8 DUP3 PUSH2 0x997 JUMP JUMPDEST SWAP7 SWAP6 POP POP POP POP POP POP JUMP JUMPDEST PUSH2 0x554 PUSH2 0x9B1 JUMP JUMPDEST PUSH1 0x9 DUP1 SLOAD PUSH1 0x1 PUSH1 0x1 PUSH1 0xA0 SHL SUB NOT AND PUSH1 0x1 PUSH1 0x1 PUSH1 0xA0 SHL SUB SWAP3 SWAP1 SWAP3 AND SWAP2 SWAP1 SWAP2 OR SWAP1 SSTORE JUMP JUMPDEST PUSH1 0x1 PUSH1 0x1 PUSH1 0xA0 SHL SUB DUP3 AND PUSH2 0x5A0 JUMPI PUSH1 0x40 MLOAD PUSH4 0x32505749 PUSH1 0xE1 SHL DUP2 MSTORE PUSH1 0x0 PUSH1 0x4 DUP3 ADD MSTORE PUSH1 0x24 ADD PUSH2 0x474 JUMP JUMPDEST PUSH1 0x0 PUSH2 0x5AD DUP4 DUP4 CALLER PUSH2 0x9DE JUMP JUMPDEST SWAP1 POP DUP4 PUSH1 0x1 PUSH1 0x1 PUSH1 0xA0 SHL SUB AND DUP2 PUSH1 0x1 PUSH1 0x1 PUSH1 0xA0 SHL SUB AND EQ PUSH2 0x5FB JUMPI PUSH1 0x40 MLOAD PUSH4 0x64283D7B PUSH1 0xE0 SHL DUP2 MSTORE PUSH1 0x1 PUSH1 0x1 PUSH1 0xA0 SHL SUB DUP1 DUP7 AND PUSH1 0x4 DUP4 ADD MSTORE PUSH1 0x24 DUP3 ADD DUP5 SWAP1 MSTORE DUP3 AND PUSH1 0x44 DUP3 ADD MSTORE PUSH1 0x64 ADD PUSH2 0x474 JUMP JUMPDEST POP POP POP POP JUMP JUMPDEST PUSH2 0x61C DUP4 DUP4 DUP4 PUSH1 0x40 MLOAD DUP1 PUSH1 0x20 ADD PUSH1 0x40 MSTORE DUP1 PUSH1 0x0 DUP2 MSTORE POP PUSH2 0x7AB JUMP JUMPDEST POP POP POP JUMP JUMPDEST PUSH1 0x0 PUSH2 0x34B DUP3 PUSH2 0x951 JUMP JUMPDEST PUSH1 0x0 PUSH1 0x1 PUSH1 0x1 PUSH1 0xA0 SHL SUB DUP3 AND PUSH2 0x658 JUMPI PUSH1 0x40 MLOAD PUSH4 0x22718AD9 PUSH1 0xE2 SHL DUP2 MSTORE PUSH1 0x0 PUSH1 0x4 DUP3 ADD MSTORE PUSH1 0x24 ADD PUSH2 0x474 JUMP JUMPDEST POP PUSH1 0x1 PUSH1 0x1 PUSH1 0xA0 SHL SUB AND PUSH1 0x0 SWAP1 DUP2 MSTORE PUSH1 0x3 PUSH1 0x20 MSTORE PUSH1 0x40 SWAP1 KECCAK256 SLOAD SWAP1 JUMP JUMPDEST PUSH2 0x67C PUSH2 0x9B1 JUMP JUMPDEST PUSH2 0x686 PUSH1 0x0 PUSH2 0xAD7 JUMP JUMPDEST JUMP JUMPDEST PUSH2 0x690 PUSH2 0x10E6 JUMP JUMPDEST PUSH1 0x0 DUP3 DUP2 MSTORE PUSH1 0x7 PUSH1 0x20 MSTORE PUSH1 0x40 SWAP1 DUP2 SWAP1 KECCAK256 DUP2 MLOAD PUSH1 0xA0 DUP2 ADD SWAP1 SWAP3 MSTORE DUP1 SLOAD DUP3 SWAP1 DUP3 SWAP1 PUSH2 0x6B8 SWAP1 PUSH2 0x1547 JUMP JUMPDEST DUP1 PUSH1 0x1F ADD PUSH1 0x20 DUP1 SWAP2 DIV MUL PUSH1 0x20 ADD PUSH1 0x40 MLOAD SWAP1 DUP2 ADD PUSH1 0x40 MSTORE DUP1 SWAP3 SWAP2 SWAP1 DUP2 DUP2 MSTORE PUSH1 0x20 ADD DUP3 DUP1 SLOAD PUSH2 0x6E4 SWAP1 PUSH2 0x1547 JUMP JUMPDEST DUP1 ISZERO PUSH2 0x731 JUMPI DUP1 PUSH1 0x1F LT PUSH2 0x706 JUMPI PUSH2 0x100 DUP1 DUP4 SLOAD DIV MUL DUP4 MSTORE SWAP2 PUSH1 0x20 ADD SWAP2 PUSH2 0x731 JUMP JUMPDEST DUP3 ADD SWAP2 SWAP1 PUSH1 0x0 MSTORE PUSH1 0x20 PUSH1 0x0 KECCAK256 SWAP1 JUMPDEST DUP2 SLOAD DUP2 MSTORE SWAP1 PUSH1 0x1 ADD SWAP1 PUSH1 0x20 ADD DUP1 DUP4 GT PUSH2 0x714 JUMPI DUP3 SWAP1 SUB PUSH1 0x1F AND DUP3 ADD SWAP2 JUMPDEST POP POP POP SWAP2 DUP4 MSTORE POP POP PUSH1 0x1 DUP3 ADD SLOAD PUSH1 0x20 DUP3 ADD MSTORE PUSH1 0x2 DUP1 DUP4 ADD SLOAD PUSH1 0x40 SWAP1 SWAP3 ADD SWAP2 PUSH1 0xFF AND SWAP1 DUP2 GT ISZERO PUSH2 0x762 JUMPI PUSH2 0x762 PUSH2 0x13D6 JUMP JUMPDEST PUSH1 0x2 DUP2 GT ISZERO PUSH2 0x773 JUMPI PUSH2 0x773 PUSH2 0x13D6 JUMP JUMPDEST DUP2 MSTORE PUSH1 0x3 DUP3 ADD SLOAD PUSH1 0x20 DUP3 ADD MSTORE PUSH1 0x4 SWAP1 SWAP2 ADD SLOAD PUSH1 0x40 SWAP1 SWAP2 ADD MSTORE SWAP3 SWAP2 POP POP JUMP JUMPDEST PUSH1 0x60 PUSH1 0x1 DUP1 SLOAD PUSH2 0x360 SWAP1 PUSH2 0x1547 JUMP JUMPDEST PUSH2 0x417 CALLER DUP4 DUP4 PUSH2 0xB29 JUMP JUMPDEST PUSH2 0x7B6 DUP5 DUP5 DUP5 PUSH2 0x576 JUMP JUMPDEST PUSH2 0x5FB CALLER DUP6 DUP6 DUP6 DUP6 PUSH2 0xBC8 JUMP JUMPDEST PUSH1 0x60 PUSH2 0x7CE DUP3 PUSH2 0x951 JUMP JUMPDEST POP PUSH1 0x0 PUSH2 0x7E6 PUSH1 0x40 DUP1 MLOAD PUSH1 0x20 DUP2 ADD SWAP1 SWAP2 MSTORE PUSH1 0x0 DUP2 MSTORE SWAP1 JUMP JUMPDEST SWAP1 POP PUSH1 0x0 DUP2 MLOAD GT PUSH2 0x806 JUMPI PUSH1 0x40 MLOAD DUP1 PUSH1 0x20 ADD PUSH1 0x40 MSTORE DUP1 PUSH1 0x0 DUP2 MSTORE POP PUSH2 0x831 JUMP JUMPDEST DUP1 PUSH2 0x810 DUP5 PUSH2 0xCF3 JUMP JUMPDEST PUSH1 0x40 MLOAD PUSH1 0x20 ADD PUSH2 0x821 SWAP3 SWAP2 SWAP1 PUSH2 0x16AE JUMP JUMPDEST PUSH1 0x40 MLOAD PUSH1 0x20 DUP2 DUP4 SUB SUB DUP2 MSTORE SWAP1 PUSH1 0x40 MSTORE JUMPDEST SWAP4 SWAP3 POP POP POP JUMP JUMPDEST PUSH1 0x0 PUSH2 0x34B DUP3 PUSH2 0x621 JUMP JUMPDEST PUSH1 0x1 PUSH1 0x1 PUSH1 0xA0 SHL SUB SWAP2 DUP3 AND PUSH1 0x0 SWAP1 DUP2 MSTORE PUSH1 0x5 PUSH1 0x20 SWAP1 DUP2 MSTORE PUSH1 0x40 DUP1 DUP4 KECCAK256 SWAP4 SWAP1 SWAP5 AND DUP3 MSTORE SWAP2 SWAP1 SWAP2 MSTORE KECCAK256 SLOAD PUSH1 0xFF AND SWAP1 JUMP JUMPDEST PUSH2 0x879 PUSH2 0x9B1 JUMP JUMPDEST PUSH1 0x1 PUSH1 0x1 PUSH1 0xA0 SHL SUB DUP2 AND PUSH2 0x8A3 JUMPI PUSH1 0x40 MLOAD PUSH4 0x1E4FBDF7 PUSH1 0xE0 SHL DUP2 MSTORE PUSH1 0x0 PUSH1 0x4 DUP3 ADD MSTORE PUSH1 0x24 ADD PUSH2 0x474 JUMP JUMPDEST PUSH2 0x8AC DUP2 PUSH2 0xAD7 JUMP JUMPDEST POP JUMP JUMPDEST PUSH1 0x9 SLOAD PUSH1 0x1 PUSH1 0x1 PUSH1 0xA0 SHL SUB AND CALLER EQ PUSH2 0x909 JUMPI PUSH1 0x40 MLOAD PUSH3 0x461BCD PUSH1 0xE5 SHL DUP2 MSTORE PUSH1 0x20 PUSH1 0x4 DUP3 ADD MSTORE PUSH1 0x1B PUSH1 0x24 DUP3 ADD MSTORE PUSH32 0x43616C6C6572206973206E6F7420496E737572616E6365436F72650000000000 PUSH1 0x44 DUP3 ADD MSTORE PUSH1 0x64 ADD PUSH2 0x474 JUMP JUMPDEST PUSH2 0x912 DUP2 PUSH2 0xD86 JUMP JUMPDEST PUSH1 0x0 DUP2 DUP2 MSTORE PUSH1 0x7 PUSH1 0x20 MSTORE PUSH1 0x40 DUP2 KECCAK256 SWAP1 PUSH2 0x92B DUP3 DUP3 PUSH2 0x1126 JUMP JUMPDEST POP PUSH1 0x0 PUSH1 0x1 DUP3 ADD DUP2 SWAP1 SSTORE PUSH1 0x2 DUP3 ADD DUP1 SLOAD PUSH1 0xFF NOT AND SWAP1 SSTORE PUSH1 0x3 DUP3 ADD DUP2 SWAP1 SSTORE PUSH1 0x4 SWAP1 SWAP2 ADD SSTORE POP JUMP JUMPDEST PUSH1 0x0 DUP2 DUP2 MSTORE PUSH1 0x2 PUSH1 0x20 MSTORE PUSH1 0x40 DUP2 KECCAK256 SLOAD PUSH1 0x1 PUSH1 0x1 PUSH1 0xA0 SHL SUB AND DUP1 PUSH2 0x34B JUMPI PUSH1 0x40 MLOAD PUSH4 0x7E273289 PUSH1 0xE0 SHL DUP2 MSTORE PUSH1 0x4 DUP2 ADD DUP5 SWAP1 MSTORE PUSH1 0x24 ADD PUSH2 0x474 JUMP JUMPDEST PUSH2 0x61C DUP4 DUP4 DUP4 PUSH1 0x1 PUSH2 0xDC1 JUMP JUMPDEST PUSH2 0x417 DUP3 DUP3 PUSH1 0x40 MLOAD DUP1 PUSH1 0x20 ADD PUSH1 0x40 MSTORE DUP1 PUSH1 0x0 DUP2 MSTORE POP PUSH2 0xEC7 JUMP JUMPDEST PUSH1 0x6 SLOAD PUSH1 0x1 PUSH1 0x1 PUSH1 0xA0 SHL SUB AND CALLER EQ PUSH2 0x686 JUMPI PUSH1 0x40 MLOAD PUSH4 0x118CDAA7 PUSH1 0xE0 SHL DUP2 MSTORE CALLER PUSH1 0x4 DUP3 ADD MSTORE PUSH1 0x24 ADD PUSH2 0x474 JUMP JUMPDEST PUSH1 0x0 DUP3 DUP2 MSTORE PUSH1 0x2 PUSH1 0x20 MSTORE PUSH1 0x40 DUP2 KECCAK256 SLOAD PUSH1 0x1 PUSH1 0x1 PUSH1 0xA0 SHL SUB SWAP1 DUP2 AND SWAP1 DUP4 AND ISZERO PUSH2 0xA0B JUMPI PUSH2 0xA0B DUP2 DUP5 DUP7 PUSH2 0xEDF JUMP JUMPDEST PUSH1 0x1 PUSH1 0x1 PUSH1 0xA0 SHL SUB DUP2 AND ISZERO PUSH2 0xA49 JUMPI PUSH2 0xA28 PUSH1 0x0 DUP6 PUSH1 0x0 DUP1 PUSH2 0xDC1 JUMP JUMPDEST PUSH1 0x1 PUSH1 0x1 PUSH1 0xA0 SHL SUB DUP2 AND PUSH1 0x0 SWAP1 DUP2 MSTORE PUSH1 0x3 PUSH1 0x20 MSTORE PUSH1 0x40 SWAP1 KECCAK256 DUP1 SLOAD PUSH1 0x0 NOT ADD SWAP1 SSTORE JUMPDEST PUSH1 0x1 PUSH1 0x1 PUSH1 0xA0 SHL SUB DUP6 AND ISZERO PUSH2 0xA78 JUMPI PUSH1 0x1 PUSH1 0x1 PUSH1 0xA0 SHL SUB DUP6 AND PUSH1 0x0 SWAP1 DUP2 MSTORE PUSH1 0x3 PUSH1 0x20 MSTORE PUSH1 0x40 SWAP1 KECCAK256 DUP1 SLOAD PUSH1 0x1 ADD SWAP1 SSTORE JUMPDEST PUSH1 0x0 DUP5 DUP2 MSTORE PUSH1 0x2 PUSH1 0x20 MSTORE PUSH1 0x40 DUP1 DUP3 KECCAK256 DUP1 SLOAD PUSH1 0x1 PUSH1 0x1 PUSH1 0xA0 SHL SUB NOT AND PUSH1 0x1 PUSH1 0x1 PUSH1 0xA0 SHL SUB DUP10 DUP2 AND SWAP2 DUP3 OR SWAP1 SWAP3 SSTORE SWAP2 MLOAD DUP8 SWAP4 SWAP2 DUP6 AND SWAP2 PUSH32 0xDDF252AD1BE2C89B69C2B068FC378DAA952BA7F163C4A11628F55A4DF523B3EF SWAP2 LOG4 SWAP5 SWAP4 POP POP POP POP JUMP JUMPDEST PUSH1 0x6 DUP1 SLOAD PUSH1 0x1 PUSH1 0x1 PUSH1 0xA0 SHL SUB DUP4 DUP2 AND PUSH1 0x1 PUSH1 0x1 PUSH1 0xA0 SHL SUB NOT DUP4 AND DUP2 OR SWAP1 SWAP4 SSTORE PUSH1 0x40 MLOAD SWAP2 AND SWAP2 SWAP1 DUP3 SWAP1 PUSH32 0x8BE0079C531659141344CD1FD0A4F28419497F9722A3DAAFE3B4186F6B6457E0 SWAP1 PUSH1 0x0 SWAP1 LOG3 POP POP JUMP JUMPDEST PUSH1 0x1 PUSH1 0x1 PUSH1 0xA0 SHL SUB DUP3 AND PUSH2 0xB5B JUMPI PUSH1 0x40 MLOAD PUSH4 0xB611743 PUSH1 0xE3 SHL DUP2 MSTORE PUSH1 0x1 PUSH1 0x1 PUSH1 0xA0 SHL SUB DUP4 AND PUSH1 0x4 DUP3 ADD MSTORE PUSH1 0x24 ADD PUSH2 0x474 JUMP JUMPDEST PUSH1 0x1 PUSH1 0x1 PUSH1 0xA0 SHL SUB DUP4 DUP2 AND PUSH1 0x0 DUP2 DUP2 MSTORE PUSH1 0x5 PUSH1 0x20 SWAP1 DUP2 MSTORE PUSH1 0x40 DUP1 DUP4 KECCAK256 SWAP5 DUP8 AND DUP1 DUP5 MSTORE SWAP5 DUP3 MSTORE SWAP2 DUP3 SWAP1 KECCAK256 DUP1 SLOAD PUSH1 0xFF NOT AND DUP7 ISZERO ISZERO SWAP1 DUP2 OR SWAP1 SWAP2 SSTORE SWAP2 MLOAD SWAP2 DUP3 MSTORE PUSH32 0x17307EAB39AB6107E8899845AD3D59BD9653F200F220920489CA2B5937696C31 SWAP2 ADD PUSH1 0x40 MLOAD DUP1 SWAP2 SUB SWAP1 LOG3 POP POP POP JUMP JUMPDEST PUSH1 0x1 PUSH1 0x1 PUSH1 0xA0 SHL SUB DUP4 AND EXTCODESIZE ISZERO PUSH2 0xCEC JUMPI PUSH1 0x40 MLOAD PUSH4 0xA85BD01 PUSH1 0xE1 SHL DUP2 MSTORE PUSH1 0x1 PUSH1 0x1 PUSH1 0xA0 SHL SUB DUP5 AND SWAP1 PUSH4 0x150B7A02 SWAP1 PUSH2 0xC0A SWAP1 DUP9 SWAP1 DUP9 SWAP1 DUP8 SWAP1 DUP8 SWAP1 PUSH1 0x4 ADD PUSH2 0x16DD JUMP JUMPDEST PUSH1 0x20 PUSH1 0x40 MLOAD DUP1 DUP4 SUB DUP2 PUSH1 0x0 DUP8 GAS CALL SWAP3 POP POP POP DUP1 ISZERO PUSH2 0xC45 JUMPI POP PUSH1 0x40 DUP1 MLOAD PUSH1 0x1F RETURNDATASIZE SWAP1 DUP2 ADD PUSH1 0x1F NOT AND DUP3 ADD SWAP1 SWAP3 MSTORE PUSH2 0xC42 SWAP2 DUP2 ADD SWAP1 PUSH2 0x1710 JUMP JUMPDEST PUSH1 0x1 JUMPDEST PUSH2 0xCAE JUMPI RETURNDATASIZE DUP1 DUP1 ISZERO PUSH2 0xC73 JUMPI PUSH1 0x40 MLOAD SWAP2 POP PUSH1 0x1F NOT PUSH1 0x3F RETURNDATASIZE ADD AND DUP3 ADD PUSH1 0x40 MSTORE RETURNDATASIZE DUP3 MSTORE RETURNDATASIZE PUSH1 0x0 PUSH1 0x20 DUP5 ADD RETURNDATACOPY PUSH2 0xC78 JUMP JUMPDEST PUSH1 0x60 SWAP2 POP JUMPDEST POP DUP1 MLOAD PUSH1 0x0 SUB PUSH2 0xCA6 JUMPI PUSH1 0x40 MLOAD PUSH4 0x32505749 PUSH1 0xE1 SHL DUP2 MSTORE PUSH1 0x1 PUSH1 0x1 PUSH1 0xA0 SHL SUB DUP6 AND PUSH1 0x4 DUP3 ADD MSTORE PUSH1 0x24 ADD PUSH2 0x474 JUMP JUMPDEST DUP1 MLOAD DUP2 PUSH1 0x20 ADD REVERT JUMPDEST PUSH1 0x1 PUSH1 0x1 PUSH1 0xE0 SHL SUB NOT DUP2 AND PUSH4 0xA85BD01 PUSH1 0xE1 SHL EQ PUSH2 0xCEA JUMPI PUSH1 0x40 MLOAD PUSH4 0x32505749 PUSH1 0xE1 SHL DUP2 MSTORE PUSH1 0x1 PUSH1 0x1 PUSH1 0xA0 SHL SUB DUP6 AND PUSH1 0x4 DUP3 ADD MSTORE PUSH1 0x24 ADD PUSH2 0x474 JUMP JUMPDEST POP JUMPDEST POP POP POP POP POP JUMP JUMPDEST PUSH1 0x60 PUSH1 0x0 PUSH2 0xD00 DUP4 PUSH2 0xF43 JUMP JUMPDEST PUSH1 0x1 ADD SWAP1 POP PUSH1 0x0 DUP2 PUSH8 0xFFFFFFFFFFFFFFFF DUP2 GT ISZERO PUSH2 0xD20 JUMPI PUSH2 0xD20 PUSH2 0x1269 JUMP JUMPDEST PUSH1 0x40 MLOAD SWAP1 DUP1 DUP3 MSTORE DUP1 PUSH1 0x1F ADD PUSH1 0x1F NOT AND PUSH1 0x20 ADD DUP3 ADD PUSH1 0x40 MSTORE DUP1 ISZERO PUSH2 0xD4A JUMPI PUSH1 0x20 DUP3 ADD DUP2 DUP1 CALLDATASIZE DUP4 CALLDATACOPY ADD SWAP1 POP JUMPDEST POP SWAP1 POP DUP2 DUP2 ADD PUSH1 0x20 ADD JUMPDEST PUSH1 0x0 NOT ADD PUSH16 0x181899199A1A9B1B9C1CB0B131B232B3 PUSH1 0x81 SHL PUSH1 0xA DUP7 MOD BYTE DUP2 MSTORE8 PUSH1 0xA DUP6 DIV SWAP5 POP DUP5 PUSH2 0xD54 JUMPI POP SWAP4 SWAP3 POP POP POP JUMP JUMPDEST PUSH1 0x0 PUSH2 0xD95 PUSH1 0x0 DUP4 PUSH1 0x0 PUSH2 0x9DE JUMP JUMPDEST SWAP1 POP PUSH1 0x1 PUSH1 0x1 PUSH1 0xA0 SHL SUB DUP2 AND PUSH2 0x417 JUMPI PUSH1 0x40 MLOAD PUSH4 0x7E273289 PUSH1 0xE0 SHL DUP2 MSTORE PUSH1 0x4 DUP2 ADD DUP4 SWAP1 MSTORE PUSH1 0x24 ADD PUSH2 0x474 JUMP JUMPDEST DUP1 DUP1 PUSH2 0xDD5 JUMPI POP PUSH1 0x1 PUSH1 0x1 PUSH1 0xA0 SHL SUB DUP3 AND ISZERO ISZERO JUMPDEST ISZERO PUSH2 0xE97 JUMPI PUSH1 0x0 PUSH2 0xDE5 DUP5 PUSH2 0x951 JUMP JUMPDEST SWAP1 POP PUSH1 0x1 PUSH1 0x1 PUSH1 0xA0 SHL SUB DUP4 AND ISZERO DUP1 ISZERO SWAP1 PUSH2 0xE11 JUMPI POP DUP3 PUSH1 0x1 PUSH1 0x1 PUSH1 0xA0 SHL SUB AND DUP2 PUSH1 0x1 PUSH1 0x1 PUSH1 0xA0 SHL SUB AND EQ ISZERO JUMPDEST DUP1 ISZERO PUSH2 0xE24 JUMPI POP PUSH2 0xE22 DUP2 DUP5 PUSH2 0x843 JUMP JUMPDEST ISZERO JUMPDEST ISZERO PUSH2 0xE4D JUMPI PUSH1 0x40 MLOAD PUSH4 0xA9FBF51F PUSH1 0xE0 SHL DUP2 MSTORE PUSH1 0x1 PUSH1 0x1 PUSH1 0xA0 SHL SUB DUP5 AND PUSH1 0x4 DUP3 ADD MSTORE PUSH1 0x24 ADD PUSH2 0x474 JUMP JUMPDEST DUP2 ISZERO PUSH2 0xE95 JUMPI DUP4 DUP6 PUSH1 0x1 PUSH1 0x1 PUSH1 0xA0 SHL SUB AND DUP3 PUSH1 0x1 PUSH1 0x1 PUSH1 0xA0 SHL SUB AND PUSH32 0x8C5BE1E5EBEC7D5BD14F71427D1E84F3DD0314C0F7B2291E5B200AC8C7C3B925 PUSH1 0x40 MLOAD PUSH1 0x40 MLOAD DUP1 SWAP2 SUB SWAP1 LOG4 JUMPDEST POP JUMPDEST POP POP PUSH1 0x0 SWAP1 DUP2 MSTORE PUSH1 0x4 PUSH1 0x20 MSTORE PUSH1 0x40 SWAP1 KECCAK256 DUP1 SLOAD PUSH1 0x1 PUSH1 0x1 PUSH1 0xA0 SHL SUB NOT AND PUSH1 0x1 PUSH1 0x1 PUSH1 0xA0 SHL SUB SWAP3 SWAP1 SWAP3 AND SWAP2 SWAP1 SWAP2 OR SWAP1 SSTORE JUMP JUMPDEST PUSH2 0xED1 DUP4 DUP4 PUSH2 0x101B JUMP JUMPDEST PUSH2 0x61C CALLER PUSH1 0x0 DUP6 DUP6 DUP6 PUSH2 0xBC8 JUMP JUMPDEST PUSH2 0xEEA DUP4 DUP4 DUP4 PUSH2 0x1080 JUMP JUMPDEST PUSH2 0x61C JUMPI PUSH1 0x1 PUSH1 0x1 PUSH1 0xA0 SHL SUB DUP4 AND PUSH2 0xF18 JUMPI PUSH1 0x40 MLOAD PUSH4 0x7E273289 PUSH1 0xE0 SHL DUP2 MSTORE PUSH1 0x4 DUP2 ADD DUP3 SWAP1 MSTORE PUSH1 0x24 ADD PUSH2 0x474 JUMP JUMPDEST PUSH1 0x40 MLOAD PUSH4 0x177E802F PUSH1 0xE0 SHL DUP2 MSTORE PUSH1 0x1 PUSH1 0x1 PUSH1 0xA0 SHL SUB DUP4 AND PUSH1 0x4 DUP3 ADD MSTORE PUSH1 0x24 DUP2 ADD DUP3 SWAP1 MSTORE PUSH1 0x44 ADD PUSH2 0x474 JUMP JUMPDEST PUSH1 0x0 DUP1 PUSH19 0x184F03E93FF9F4DAA797ED6E38ED64BF6A1F01 PUSH1 0x40 SHL DUP4 LT PUSH2 0xF82 JUMPI PUSH19 0x184F03E93FF9F4DAA797ED6E38ED64BF6A1F01 PUSH1 0x40 SHL DUP4 DIV SWAP3 POP PUSH1 0x40 ADD JUMPDEST PUSH14 0x4EE2D6D415B85ACEF8100000000 DUP4 LT PUSH2 0xFAE JUMPI PUSH14 0x4EE2D6D415B85ACEF8100000000 DUP4 DIV SWAP3 POP PUSH1 0x20 ADD JUMPDEST PUSH7 0x2386F26FC10000 DUP4 LT PUSH2 0xFCC JUMPI PUSH7 0x2386F26FC10000 DUP4 DIV SWAP3 POP PUSH1 0x10 ADD JUMPDEST PUSH4 0x5F5E100 DUP4 LT PUSH2 0xFE4 JUMPI PUSH4 0x5F5E100 DUP4 DIV SWAP3 POP PUSH1 0x8 ADD JUMPDEST PUSH2 0x2710 DUP4 LT PUSH2 0xFF8 JUMPI PUSH2 0x2710 DUP4 DIV SWAP3 POP PUSH1 0x4 ADD JUMPDEST PUSH1 0x64 DUP4 LT PUSH2 0x100A JUMPI PUSH1 0x64 DUP4 DIV SWAP3 POP PUSH1 0x2 ADD JUMPDEST PUSH1 0xA DUP4 LT PUSH2 0x34B JUMPI PUSH1 0x1 ADD SWAP3 SWAP2 POP POP JUMP JUMPDEST PUSH1 0x1 PUSH1 0x1 PUSH1 0xA0 SHL SUB DUP3 AND PUSH2 0x1045 JUMPI PUSH1 0x40 MLOAD PUSH4 0x32505749 PUSH1 0xE1 SHL DUP2 MSTORE PUSH1 0x0 PUSH1 0x4 DUP3 ADD MSTORE PUSH1 0x24 ADD PUSH2 0x474 JUMP JUMPDEST PUSH1 0x0 PUSH2 0x1053 DUP4 DUP4 PUSH1 0x0 PUSH2 0x9DE JUMP JUMPDEST SWAP1 POP PUSH1 0x1 PUSH1 0x1 PUSH1 0xA0 SHL SUB DUP2 AND ISZERO PUSH2 0x61C JUMPI PUSH1 0x40 MLOAD PUSH4 0x39E35637 PUSH1 0xE1 SHL DUP2 MSTORE PUSH1 0x0 PUSH1 0x4 DUP3 ADD MSTORE PUSH1 0x24 ADD PUSH2 0x474 JUMP JUMPDEST PUSH1 0x0 PUSH1 0x1 PUSH1 0x1 PUSH1 0xA0 SHL SUB DUP4 AND ISZERO DUP1 ISZERO SWAP1 PUSH2 0x10DE JUMPI POP DUP3 PUSH1 0x1 PUSH1 0x1 PUSH1 0xA0 SHL SUB AND DUP5 PUSH1 0x1 PUSH1 0x1 PUSH1 0xA0 SHL SUB AND EQ DUP1 PUSH2 0x10BA JUMPI POP PUSH2 0x10BA DUP5 DUP5 PUSH2 0x843 JUMP JUMPDEST DUP1 PUSH2 0x10DE JUMPI POP PUSH1 0x0 DUP3 DUP2 MSTORE PUSH1 0x4 PUSH1 0x20 MSTORE PUSH1 0x40 SWAP1 KECCAK256 SLOAD PUSH1 0x1 PUSH1 0x1 PUSH1 0xA0 SHL SUB DUP5 DUP2 AND SWAP2 AND EQ JUMPDEST SWAP5 SWAP4 POP POP POP POP JUMP JUMPDEST PUSH1 0x40 MLOAD DUP1 PUSH1 0xA0 ADD PUSH1 0x40 MSTORE DUP1 PUSH1 0x60 DUP2 MSTORE PUSH1 0x20 ADD PUSH1 0x0 DUP2 MSTORE PUSH1 0x20 ADD PUSH1 0x0 PUSH1 0x2 DUP2 GT ISZERO PUSH2 0x1112 JUMPI PUSH2 0x1112 PUSH2 0x13D6 JUMP JUMPDEST DUP2 MSTORE PUSH1 0x20 ADD PUSH1 0x0 DUP2 MSTORE PUSH1 0x20 ADD PUSH1 0x0 DUP2 MSTORE POP SWAP1 JUMP JUMPDEST POP DUP1 SLOAD PUSH2 0x1132 SWAP1 PUSH2 0x1547 JUMP JUMPDEST PUSH1 0x0 DUP3 SSTORE DUP1 PUSH1 0x1F LT PUSH2 0x1142 JUMPI POP POP JUMP JUMPDEST PUSH1 0x1F ADD PUSH1 0x20 SWAP1 DIV SWAP1 PUSH1 0x0 MSTORE PUSH1 0x20 PUSH1 0x0 KECCAK256 SWAP1 DUP2 ADD SWAP1 PUSH2 0x8AC SWAP2 SWAP1 JUMPDEST DUP1 DUP3 GT ISZERO PUSH2 0x1170 JUMPI PUSH1 0x0 DUP2 SSTORE PUSH1 0x1 ADD PUSH2 0x115C JUMP JUMPDEST POP SWAP1 JUMP JUMPDEST PUSH1 0x1 PUSH1 0x1 PUSH1 0xE0 SHL SUB NOT DUP2 AND DUP2 EQ PUSH2 0x8AC JUMPI PUSH1 0x0 DUP1 REVERT JUMPDEST PUSH1 0x0 PUSH1 0x20 DUP3 DUP5 SUB SLT ISZERO PUSH2 0x119C JUMPI PUSH1 0x0 DUP1 REVERT JUMPDEST DUP2 CALLDATALOAD PUSH2 0x831 DUP2 PUSH2 0x1174 JUMP JUMPDEST PUSH1 0x0 JUMPDEST DUP4 DUP2 LT ISZERO PUSH2 0x11C2 JUMPI DUP2 DUP2 ADD MLOAD DUP4 DUP3 ADD MSTORE PUSH1 0x20 ADD PUSH2 0x11AA JUMP JUMPDEST POP POP PUSH1 0x0 SWAP2 ADD MSTORE JUMP JUMPDEST PUSH1 0x0 DUP2 MLOAD DUP1 DUP5 MSTORE PUSH2 0x11E3 DUP2 PUSH1 0x20 DUP7 ADD PUSH1 0x20 DUP7 ADD PUSH2 0x11A7 JUMP JUMPDEST PUSH1 0x1F ADD PUSH1 0x1F NOT AND SWAP3 SWAP1 SWAP3 ADD PUSH1 0x20 ADD SWAP3 SWAP2 POP POP JUMP JUMPDEST PUSH1 0x20 DUP2 MSTORE PUSH1 0x0 PUSH2 0x831 PUSH1 0x20 DUP4 ADD DUP5 PUSH2 0x11CB JUMP JUMPDEST PUSH1 0x0 PUSH1 0x20 DUP3 DUP5 SUB SLT ISZERO PUSH2 0x121C JUMPI PUSH1 0x0 DUP1 REVERT JUMPDEST POP CALLDATALOAD SWAP2 SWAP1 POP JUMP JUMPDEST DUP1 CALLDATALOAD PUSH1 0x1 PUSH1 0x1 PUSH1 0xA0 SHL SUB DUP2 AND DUP2 EQ PUSH2 0x123A JUMPI PUSH1 0x0 DUP1 REVERT JUMPDEST SWAP2 SWAP1 POP JUMP JUMPDEST PUSH1 0x0 DUP1 PUSH1 0x40 DUP4 DUP6 SUB SLT ISZERO PUSH2 0x1252 JUMPI PUSH1 0x0 DUP1 REVERT JUMPDEST PUSH2 0x125B DUP4 PUSH2 0x1223 JUMP JUMPDEST SWAP5 PUSH1 0x20 SWAP4 SWAP1 SWAP4 ADD CALLDATALOAD SWAP4 POP POP POP JUMP JUMPDEST PUSH4 0x4E487B71 PUSH1 0xE0 SHL PUSH1 0x0 MSTORE PUSH1 0x41 PUSH1 0x4 MSTORE PUSH1 0x24 PUSH1 0x0 REVERT JUMPDEST PUSH1 0x0 PUSH8 0xFFFFFFFFFFFFFFFF DUP1 DUP5 GT ISZERO PUSH2 0x129A JUMPI PUSH2 0x129A PUSH2 0x1269 JUMP JUMPDEST PUSH1 0x40 MLOAD PUSH1 0x1F DUP6 ADD PUSH1 0x1F NOT SWAP1 DUP2 AND PUSH1 0x3F ADD AND DUP2 ADD SWAP1 DUP3 DUP3 GT DUP2 DUP4 LT OR ISZERO PUSH2 0x12C2 JUMPI PUSH2 0x12C2 PUSH2 0x1269 JUMP JUMPDEST DUP2 PUSH1 0x40 MSTORE DUP1 SWAP4 POP DUP6 DUP2 MSTORE DUP7 DUP7 DUP7 ADD GT ISZERO PUSH2 0x12DB JUMPI PUSH1 0x0 DUP1 REVERT JUMPDEST DUP6 DUP6 PUSH1 0x20 DUP4 ADD CALLDATACOPY PUSH1 0x0 PUSH1 0x20 DUP8 DUP4 ADD ADD MSTORE POP POP POP SWAP4 SWAP3 POP POP POP JUMP JUMPDEST PUSH1 0x0 DUP1 PUSH1 0x0 DUP1 PUSH1 0x0 PUSH1 0xA0 DUP7 DUP9 SUB SLT ISZERO PUSH2 0x130D JUMPI PUSH1 0x0 DUP1 REVERT JUMPDEST PUSH2 0x1316 DUP7 PUSH2 0x1223 JUMP JUMPDEST SWAP5 POP PUSH1 0x20 DUP7 ADD CALLDATALOAD PUSH8 0xFFFFFFFFFFFFFFFF DUP2 GT ISZERO PUSH2 0x1332 JUMPI PUSH1 0x0 DUP1 REVERT JUMPDEST DUP7 ADD PUSH1 0x1F DUP2 ADD DUP9 SGT PUSH2 0x1343 JUMPI PUSH1 0x0 DUP1 REVERT JUMPDEST PUSH2 0x1352 DUP9 DUP3 CALLDATALOAD PUSH1 0x20 DUP5 ADD PUSH2 0x127F JUMP JUMPDEST SWAP5 POP POP PUSH1 0x40 DUP7 ADD CALLDATALOAD PUSH1 0x3 DUP2 LT PUSH2 0x1367 JUMPI PUSH1 0x0 DUP1 REVERT JUMPDEST SWAP5 SWAP8 SWAP4 SWAP7 POP SWAP4 SWAP5 PUSH1 0x60 DUP2 ADD CALLDATALOAD SWAP5 POP PUSH1 0x80 ADD CALLDATALOAD SWAP3 SWAP2 POP POP JUMP JUMPDEST PUSH1 0x0 PUSH1 0x20 DUP3 DUP5 SUB SLT ISZERO PUSH2 0x1391 JUMPI PUSH1 0x0 DUP1 REVERT JUMPDEST PUSH2 0x831 DUP3 PUSH2 0x1223 JUMP JUMPDEST PUSH1 0x0 DUP1 PUSH1 0x0 PUSH1 0x60 DUP5 DUP7 SUB SLT ISZERO PUSH2 0x13AF JUMPI PUSH1 0x0 DUP1 REVERT JUMPDEST PUSH2 0x13B8 DUP5 PUSH2 0x1223 JUMP JUMPDEST SWAP3 POP PUSH2 0x13C6 PUSH1 0x20 DUP6 ADD PUSH2 0x1223 JUMP JUMPDEST SWAP2 POP PUSH1 0x40 DUP5 ADD CALLDATALOAD SWAP1 POP SWAP3 POP SWAP3 POP SWAP3 JUMP JUMPDEST PUSH4 0x4E487B71 PUSH1 0xE0 SHL PUSH1 0x0 MSTORE PUSH1 0x21 PUSH1 0x4 MSTORE PUSH1 0x24 PUSH1 0x0 REVERT JUMPDEST PUSH1 0x20 DUP2 MSTORE PUSH1 0x0 DUP3 MLOAD PUSH1 0xA0 PUSH1 0x20 DUP5 ADD MSTORE PUSH2 0x1408 PUSH1 0xC0 DUP5 ADD DUP3 PUSH2 0x11CB JUMP JUMPDEST SWAP1 POP PUSH1 0x20 DUP5 ADD MLOAD PUSH1 0x40 DUP5 ADD MSTORE PUSH1 0x40 DUP5 ADD MLOAD PUSH1 0x3 DUP2 LT PUSH2 0x1437 JUMPI PUSH4 0x4E487B71 PUSH1 0xE0 SHL PUSH1 0x0 MSTORE PUSH1 0x21 PUSH1 0x4 MSTORE PUSH1 0x24 PUSH1 0x0 REVERT JUMPDEST DUP1 PUSH1 0x60 DUP6 ADD MSTORE POP PUSH1 0x60 DUP5 ADD MLOAD PUSH1 0x80 DUP5 ADD MSTORE PUSH1 0x80 DUP5 ADD MLOAD PUSH1 0xA0 DUP5 ADD MSTORE DUP1 SWAP2 POP POP SWAP3 SWAP2 POP POP JUMP JUMPDEST PUSH1 0x0 DUP1 PUSH1 0x40 DUP4 DUP6 SUB SLT ISZERO PUSH2 0x146F JUMPI PUSH1 0x0 DUP1 REVERT JUMPDEST PUSH2 0x1478 DUP4 PUSH2 0x1223 JUMP JUMPDEST SWAP2 POP PUSH1 0x20 DUP4 ADD CALLDATALOAD DUP1 ISZERO ISZERO DUP2 EQ PUSH2 0x148D JUMPI PUSH1 0x0 DUP1 REVERT JUMPDEST DUP1 SWAP2 POP POP SWAP3 POP SWAP3 SWAP1 POP JUMP JUMPDEST PUSH1 0x0 DUP1 PUSH1 0x0 DUP1 PUSH1 0x80 DUP6 DUP8 SUB SLT ISZERO PUSH2 0x14AE JUMPI PUSH1 0x0 DUP1 REVERT JUMPDEST PUSH2 0x14B7 DUP6 PUSH2 0x1223 JUMP JUMPDEST SWAP4 POP PUSH2 0x14C5 PUSH1 0x20 DUP7 ADD PUSH2 0x1223 JUMP JUMPDEST SWAP3 POP PUSH1 0x40 DUP6 ADD CALLDATALOAD SWAP2 POP PUSH1 0x60 DUP6 ADD CALLDATALOAD PUSH8 0xFFFFFFFFFFFFFFFF DUP2 GT ISZERO PUSH2 0x14E8 JUMPI PUSH1 0x0 DUP1 REVERT JUMPDEST DUP6 ADD PUSH1 0x1F DUP2 ADD DUP8 SGT PUSH2 0x14F9 JUMPI PUSH1 0x0 DUP1 REVERT JUMPDEST PUSH2 0x1508 DUP8 DUP3 CALLDATALOAD PUSH1 0x20 DUP5 ADD PUSH2 0x127F JUMP JUMPDEST SWAP2 POP POP SWAP3 SWAP6 SWAP2 SWAP5 POP SWAP3 POP JUMP JUMPDEST PUSH1 0x0 DUP1 PUSH1 0x40 DUP4 DUP6 SUB SLT ISZERO PUSH2 0x1527 JUMPI PUSH1 0x0 DUP1 REVERT JUMPDEST PUSH2 0x1530 DUP4 PUSH2 0x1223 JUMP JUMPDEST SWAP2 POP PUSH2 0x153E PUSH1 0x20 DUP5 ADD PUSH2 0x1223 JUMP JUMPDEST SWAP1 POP SWAP3 POP SWAP3 SWAP1 POP JUMP JUMPDEST PUSH1 0x1 DUP2 DUP2 SHR SWAP1 DUP3 AND DUP1 PUSH2 0x155B JUMPI PUSH1 0x7F DUP3 AND SWAP2 POP JUMPDEST PUSH1 0x20 DUP3 LT DUP2 SUB PUSH2 0x157B JUMPI PUSH4 0x4E487B71 PUSH1 0xE0 SHL PUSH1 0x0 MSTORE PUSH1 0x22 PUSH1 0x4 MSTORE PUSH1 0x24 PUSH1 0x0 REVERT JUMPDEST POP SWAP2 SWAP1 POP JUMP JUMPDEST PUSH1 0x0 PUSH1 0x1 DUP3 ADD PUSH2 0x15A1 JUMPI PUSH4 0x4E487B71 PUSH1 0xE0 SHL PUSH1 0x0 MSTORE PUSH1 0x11 PUSH1 0x4 MSTORE PUSH1 0x24 PUSH1 0x0 REVERT JUMPDEST POP PUSH1 0x1 ADD SWAP1 JUMP JUMPDEST PUSH1 0x1F DUP3 GT ISZERO PUSH2 0x61C JUMPI PUSH1 0x0 DUP2 DUP2 MSTORE PUSH1 0x20 DUP2 KECCAK256 PUSH1 0x1F DUP6 ADD PUSH1 0x5 SHR DUP2 ADD PUSH1 0x20 DUP7 LT ISZERO PUSH2 0x15CF JUMPI POP DUP1 JUMPDEST PUSH1 0x1F DUP6 ADD PUSH1 0x5 SHR DUP3 ADD SWAP2 POP JUMPDEST DUP2 DUP2 LT ISZERO PUSH2 0xCEA JUMPI DUP3 DUP2 SSTORE PUSH1 0x1 ADD PUSH2 0x15DB JUMP JUMPDEST DUP2 MLOAD PUSH8 0xFFFFFFFFFFFFFFFF DUP2 GT ISZERO PUSH2 0x1608 JUMPI PUSH2 0x1608 PUSH2 0x1269 JUMP JUMPDEST PUSH2 0x161C DUP2 PUSH2 0x1616 DUP5 SLOAD PUSH2 0x1547 JUMP JUMPDEST DUP5 PUSH2 0x15A8 JUMP JUMPDEST PUSH1 0x20 DUP1 PUSH1 0x1F DUP4 GT PUSH1 0x1 DUP2 EQ PUSH2 0x1651 JUMPI PUSH1 0x0 DUP5 ISZERO PUSH2 0x1639 JUMPI POP DUP6 DUP4 ADD MLOAD JUMPDEST PUSH1 0x0 NOT PUSH1 0x3 DUP7 SWAP1 SHL SHR NOT AND PUSH1 0x1 DUP6 SWAP1 SHL OR DUP6 SSTORE PUSH2 0xCEA JUMP JUMPDEST PUSH1 0x0 DUP6 DUP2 MSTORE PUSH1 0x20 DUP2 KECCAK256 PUSH1 0x1F NOT DUP7 AND SWAP2 JUMPDEST DUP3 DUP2 LT ISZERO PUSH2 0x1680 JUMPI DUP9 DUP7 ADD MLOAD DUP3 SSTORE SWAP5 DUP5 ADD SWAP5 PUSH1 0x1 SWAP1 SWAP2 ADD SWAP1 DUP5 ADD PUSH2 0x1661 JUMP JUMPDEST POP DUP6 DUP3 LT ISZERO PUSH2 0x169E JUMPI DUP8 DUP6 ADD MLOAD PUSH1 0x0 NOT PUSH1 0x3 DUP9 SWAP1 SHL PUSH1 0xF8 AND SHR NOT AND DUP2 SSTORE JUMPDEST POP POP POP POP POP PUSH1 0x1 SWAP1 DUP2 SHL ADD SWAP1 SSTORE POP JUMP JUMPDEST PUSH1 0x0 DUP4 MLOAD PUSH2 0x16C0 DUP2 DUP5 PUSH1 0x20 DUP9 ADD PUSH2 0x11A7 JUMP JUMPDEST DUP4 MLOAD SWAP1 DUP4 ADD SWAP1 PUSH2 0x16D4 DUP2 DUP4 PUSH1 0x20 DUP9 ADD PUSH2 0x11A7 JUMP JUMPDEST ADD SWAP5 SWAP4 POP POP POP POP JUMP JUMPDEST PUSH1 0x1 PUSH1 0x1 PUSH1 0xA0 SHL SUB DUP6 DUP2 AND DUP3 MSTORE DUP5 AND PUSH1 0x20 DUP3 ADD MSTORE PUSH1 0x40 DUP2 ADD DUP4 SWAP1 MSTORE PUSH1 0x80 PUSH1 0x60 DUP3 ADD DUP2 SWAP1 MSTORE PUSH1 0x0 SWAP1 PUSH2 0x542 SWAP1 DUP4 ADD DUP5 PUSH2 0x11CB JUMP JUMPDEST PUSH1 0x0 PUSH1 0x20 DUP3 DUP5 SUB SLT ISZERO PUSH2 0x1722 JUMPI PUSH1 0x0 DUP1 REVERT JUMPDEST DUP2 MLOAD PUSH2 0x831 DUP2 PUSH2 0x1174 JUMP INVALID LOG2 PUSH5 0x6970667358 0x22 SLT KECCAK256 LOG4 0xE6 0xED 0xF EQ NOT 0xCD LOG1 DUP2 PUSH24 0xE0686FAD6AB064FB2F49833ADC556B4E199319E7FD896473 PUSH16 0x6C634300081400330000000000000000 "},"methodIdentifiers":{"approve(address,uint256)":"095ea7b3","balanceOf(address)":"70a08231","burnPolicy(uint256)":"f457a0fe","getApproved(uint256)":"081812fc","getPolicyMetadata(uint256)":"8cf7a293","getPolicyOwner(uint256)":"ca009021","isApprovedForAll(address,address)":"e985e9c5","mintPolicy(address,string,uint8,uint256,uint256)":"21a9bfe8","name()":"06fdde03","owner()":"8da5cb5b","ownerOf(uint256)":"6352211e","renounceOwnership()":"715018a6","safeTransferFrom(address,address,uint256)":"42842e0e","safeTransferFrom(address,address,uint256,bytes)":"b88d4fde","setApprovalForAll(address,bool)":"a22cb465","setInsuranceCoreAddress(address)":"239036c0","supportsInterface(bytes4)":"01ffc9a7","symbol()":"95d89b41","tokenURI(uint256)":"c87b56dd","transferFrom(address,address,uint256)":"23b872dd","transferOwnership(address)":"f2fde38b"}}}}}